:10028000C0F9A4B0999282F88090FF20100804026F
:01029000016C
:10026F00060C00000000000002080000020A000057
:04003B00C2AF7F0AC7
:0F003F007D9B7C03ED1D70011C144C70F7DFF1ED
:01004E00228F
:10005E00AE08AF097C007D6412018F8F11AE08AF20
:10006E00097C007D6412018F7E007F0ACFCDCFCE3A
:10007E00CCCE12018F8F10AE08AF097C007D0A1214
:10008E00018F8D0FE511700A75110AE51070037559
:10009E00100AAE0AAF0B7C007D6412018F8F0EAE7C
:1000AE000AAF0B7C007D6412018F7E007F0ACFCDDC
:1000BE00CFCECCCE12018F8F0DAE0AAF0B7C007D52
:1000CE000A12018F8D0CE50E700A750E0AE50D7081
:1000DE0003750D0AE4FE7590FFEE90028B93F5A06A
:1000EE00740C2EF8E690028093F5907F0412003F78
:0400FE000EBE06E24A
:0101020022DA
:10024F00E4F591F592F595F596F5B1F5B2D288D220
:10025F008AD2B875A805438F30D2AF12005E80FBEB
:03000300020016E2
:10001600C0E0C0D075D000C004C005C00712003BC8
:100026000509E50970020508D2AFD007D005D0044E
:05003600D0D0D0E03243
:030013000201E403
:1001E400C0E0C0D075D000C004C005C00712003BF9
:1001F400050BE50B7002050AD2AFD007D005D00479
:05020400D0D0D0E03273
:030053000202099D
:10020900C0E0C0D075D000C004C005C00712003BD3
:10021900750800750900D2AFD007D005D004D0D039
:03022900D0E032F0
:03005B0002022C72
:10022C00C0E0C0D075D000C004C005C00712003BB0
:10023C00750A00750B00D2AFD007D005D004D0D012
:03024C00D0E032CD
:03000000020103F7
:0C010300787FE4F6D8FD75811102014AF6
:10018F00BC000BBE0029EF8DF084FFADF022E4CC54
:10019F00F875F008EF2FFFEE33FEEC33FCEE9DEC1D
:1001AF00984005FCEE9DFE0FD5F0E9E4CEFD22ED63
:1001BF00F8F5F0EE8420D21CFEADF075F008EF2FAD
:1001CF00FFED33FD4007985006D5F0F222C398FD9E
:0501DF000FD5F0EA223B
:10010F0002024FE493A3F8E493A34003F68001F2B5
:10011F0008DFF48029E493A3F85407240CC8C333F1
:10012F00C4540F4420C8834004F456800146F6DFC0
:10013F00E4800B010204081020408090026FE47EDF
:10014F00019360BCA3FF543F30E509541FFEE493B5
:10015F00A360010ECF54C025E060A840B8E493A37C
:10016F00FAE493A3F8E493A3C8C582C8CAC583CAA7
:10017F00F0A3C8C582C8CAC583CADFE9DEE780BE5F
:01027F00007E
:00000001FF
