:020000040800F2
:100000000028002009150008CD130008D9130008A6
:10001000DF130008E5130008EB13000800000000E0
:10002000000000000000000000000000F1130008C4
:10003000FD13000800000000091400081514000852
:1000400051150008511500085115000851150008F8
:1000500051150008511500085115000851150008E8
:1000600051150008511500085115000851150008D8
:1000700051150008511500085115000851150008C8
:1000800051150008511500085115000851150008B8
:1000900051150008511500085115000851150008A8
:1000A0005115000851150008511500085115000898
:1000B00051150008511500080000000051150008F6
:1000C0005115000800000000000000005115000854
:1000D0000000000021140008511500080000000075
:1000E00051150008511500085115000800000000C6
:1000F0000000000000000000000000000000000000
:0C01000000000000000000005FF808F1A3
:1001100010B5054C237833B9044B13B10448AFF341
:1001200000800123237010BDDC01002000000000CE
:10013000FC58000808B5034B1BB103490348AFF353
:10014000008008BD00000000E0010020FC5800080D
:10015000034613F8012B002AFBD1181A0138704707
:1001600081F0004102E000BF83F0004330B54FEA68
:1001700041044FEA430594EA050F08BF90EA020FD5
:100180001FBF54EA000C55EA020C7FEA645C7FEA68
:10019000655C00F0E2804FEA5454D4EB5555B8BF8B
:1001A0006D420CDD2C4480EA020281EA030382EAFC
:1001B000000083EA010180EA020281EA0303362D8E
:1001C00088BF30BD11F0004F4FEA01314FF4801C61
:1001D0004CEA113102D0404261EB410113F0004F73
:1001E0004FEA03334CEA133302D0524263EB43032A
:1001F00094EA050F00F0A780A4F10104D5F1200EC8
:100200000DDB02FA0EFC22FA05F2801841F1000122
:1002100003FA0EF2801843FA05F359410EE0A5F1F6
:1002200020050EF1200E012A03FA0EFC28BF4CF027
:10023000020C43FA05F3C01851EBE37101F00045DD
:1002400007D54FF0000EDCF1000C7EEB00006EEBEA
:100250000101B1F5801F1BD3B1F5001F0CD3490874
:100260005FEA30004FEA3C0C04F101044FEA4452CB
:1002700012F5800F80F09A80BCF1004F08BF5FEA52
:10028000500C50F1000041EB045141EA050130BD32
:100290005FEA4C0C404141EB010111F4801FA4F1D5
:1002A0000104E9D191F0000F04BF01460020B1FA2A
:1002B00081F308BF2033A3F10B03B3F120020CDA62
:1002C0000C3208DD02F1140CC2F10C0201FA0CF040
:1002D00021FA02F10CE002F11402D8BFC2F1200CA5
:1002E00001FA02F120FA0CFCDCBF41EA0C0190405B
:1002F000E41AA2BF01EB0451294330BD6FEA0404A4
:100300001F3C1CDA0C340EDC04F11404C4F120028E
:1003100020FA04F001FA02F340EA030021FA04F3A0
:1003200045EA030130BDC4F10C04C4F1200220FAF7
:1003300002F001FA04F340EA0300294630BD21FA35
:1003400004F0294630BD94F0000F83F4801306BFFB
:1003500081F480110134013D4EE77FEA645C18BFEF
:100360007FEA655C29D094EA050F08BF90EA020F86
:1003700005D054EA000C04BF1946104630BD91EA7E
:10038000030F1EBF0021002030BD5FEA545C05D181
:100390004000494128BF41F0004130BD14F58004C0
:1003A0003CBF01F5801130BD01F0004545F0FE4134
:1003B00041F470014FF0000030BD7FEA645C1ABF69
:1003C000194610467FEA655C1CBF0B46024650EAA0
:1003D000013406BF52EA033591EA030F41F40021CC
:1003E00030BD00BF90F0000F04BF0021704730B552
:1003F0004FF4806404F132044FF000054FF0000127
:1004000050E700BF90F0000F04BF0021704730B5E7
:100410004FF4806404F1320410F0004548BF4042BC
:100420004FF000013EE700BF42004FEAE2014FEA11
:1004300031014FEA02701FBF12F07F4393F07F4FEC
:1004400081F06051704732F07F4208BF704793F0EF
:100450007F4F04BF41F40021704730B54FF4607402
:1004600001F0004521F000411CE700BF50EA010205
:1004700008BF704730B54FF000050AE050EA0102AE
:1004800008BF704730B511F0004502D5404261EB1E
:1004900041014FF4806404F132045FEA915C3FF45F
:1004A000D8AE4FF003025FEADC0C18BF03325FEAFC
:1004B000DC0C18BF033202EBDC02C2F1200300FAAD
:1004C00003FC20FA02F001FA03FE40EA0E0021FAD2
:1004D00002F11444BDE600BF70B54FF0FF0C4CF4C0
:1004E000E06C1CEA11541DBF1CEA135594EA0C0F72
:1004F00095EA0C0F00F0DEF82C4481EA030621EAAD
:100500004C5123EA4C5350EA013518BF52EA0335E7
:1005100041F4801143F4801338D0A0FB02CE4FF099
:100520000005E1FB02E506F00042E0FB03E54FF0C9
:100530000006E1FB03569CF0000F18BF4EF0010EC1
:10054000A4F1FF04B6F5007F64F5407404D25FEABD
:100550004E0E6D4146EB060642EAC62141EA555170
:100560004FEAC52040EA5E504FEACE2EB4F1FD0CB2
:1005700088BFBCF5E06F1ED8BEF1004F08BF5FEA30
:10058000500E50F1000041EB045170BD06F00046E2
:1005900046EA010140EA020081EA0301B4EB5C048F
:1005A000C2BFD4EB0C0541EA045170BD41F4801187
:1005B0004FF0000E013C00F3AB8014F1360FDEBFAC
:1005C000002001F0004170BDC4F10004203C35DA88
:1005D0000C341BDC04F11404C4F1200500FA05F30B
:1005E00020FA04F001FA05F240EA020001F00042AC
:1005F00021F0004110EBD37021FA04F642EB060122
:100600005EEA430E08BF20EAD37070BDC4F10C044B
:10061000C4F1200500FA04F320FA05F001FA04F20F
:1006200040EA020001F0004110EBD37041F10001FB
:100630005EEA430E08BF20EAD37070BDC4F1200506
:1006400000FA05F24EEA020E20FA04F301FA05F26E
:1006500043EA020321FA04F001F0004121FA04F216
:1006600020EA020000EBD3705EEA430E08BF20EAE6
:10067000D37070BD94F0000F0FD101F00046400020
:1006800041EB010111F4801F08BF013CF7D041EAA2
:10069000060195F0000F18BF704703F000465200A6
:1006A00043EB030313F4801F08BF013DF7D043EA77
:1006B0000603704794EA0C0F0CEA135518BF95EA2D
:1006C0000C0F0CD050EA410618BF52EA4306D1D1B4
:1006D00081EA030101F000414FF0000070BD50EAD3
:1006E000410606BF1046194652EA430619D094EA5D
:1006F0000C0F02D150EA013613D195EA0C0F05D147
:1007000052EA03361CBF104619460AD181EA03019A
:1007100001F0004141F0FE4141F470014FF0000052
:1007200070BD41F0FE4141F4780170BD70B54FF0ED
:10073000FF0C4CF4E06C1CEA11541DBF1CEA13556D
:1007400094EA0C0F95EA0C0F00F0A7F8A4EB05044F
:1007500081EA030E52EA03354FEA013100F0888046
:100760004FEA03334FF0805545EA131343EA12630F
:100770004FEA022245EA111545EA10654FEA0026C4
:100780000EF000419D4208BF964244F1FD0404F57D
:10079000407402D25B084FEA3202B61A65EB0305D9
:1007A0005B084FEA32024FF480104FF4002CB6EB96
:1007B000020E75EB030E22BFB61A754640EA0C0016
:1007C0005B084FEA3202B6EB020E75EB030E22BF56
:1007D000B61A754640EA5C005B084FEA3202B6EB97
:1007E000020E75EB030E22BFB61A754640EA9C0056
:1007F0005B084FEA3202B6EB020E75EB030E22BF26
:10080000B61A754640EADC0055EA060E18D04FEAE3
:10081000051545EA16754FEA06164FEAC30343EA83
:1008200052734FEAC2025FEA1C1CC0D111F4801F50
:100830000BD141EA00014FF000004FF0004CB6E749
:1008400011F4801F04BF01430020B4F1FD0C88BFE8
:10085000BCF5E06F3FF6AFAEB5EB030C04BFB6EBF3
:10086000020C5FEA500C50F1000041EB045170BDE6
:100870000EF0004E4EEA113114EB5C04C2BFD4EB13
:100880000C0541EA045170BD41F480114FF0000E97
:10089000013C90E645EA060E8DE60CEA135594EA13
:1008A0000C0F08BF95EA0C0F3FF43BAF94EA0C0F16
:1008B0000AD150EA01347FF434AF95EA0C0F7FF48B
:1008C00025AF104619462CE795EA0C0F06D152EADF
:1008D00003353FF4FDAE1046194622E750EA4106C3
:1008E00018BF52EA43067FF4C5AE50EA41047FF4D4
:1008F0000DAF52EA43057FF4EBAE12E74FF0FF3C39
:1009000006E000BF4FF0010C02E000BF4FF0010C09
:100910004DF804CD4FEA410C7FEA6C5C4FEA430C82
:1009200018BF7FEA6C5C1BD001B050EA410C0CBFD1
:1009300052EA430C91EA030F02BF90EA020F002033
:10094000704710F1000F91EA030F58BF994208BF9A
:1009500090422CBFD8176FEAE37040F00100704757
:100960004FEA410C7FEA6C5C02D150EA013C07D1AE
:100970004FEA430C7FEA6C5CD6D152EA033CD3D0F9
:100980005DF8040B704700BF8446104662468C46F3
:100990001946634600E000BF01B5FFF7B7FF002826
:1009A00048BF10F1000F01BD4DF808EDFFF7F4FF4F
:1009B0000CBF012000205DF808FB00BF4DF808EDDA
:1009C000FFF7EAFF34BF012000205DF808FB00BFFD
:1009D0004DF808EDFFF7E0FF94BF012000205DF81F
:1009E00008FB00BF4DF808EDFFF7CEFF94BF0120D4
:1009F00000205DF808FB00BF4DF808EDFFF7C4FFCD
:100A000034BF012000205DF808FB00BF4FEA410C15
:100A10007FEA6C5C02D150EA013C0AD14FEA430CF8
:100A20007FEA6C5C02D152EA033C02D14FF0000035
:100A300070474FF0010070474FEA410212F5001273
:100A400015D211D56FF47873B3EB625212D94FEA15
:100A5000C12343F0004343EA505311F0004F23FAFF
:100A600002F018BF404270474FF00000704750EA54
:100A7000013005D111F0004008BF6FF00040704711
:100A80004FF00000704700BF80F0004002E000BF60
:100A900081F0004142001FBF5FEA410392EA030F69
:100AA0007FEA226C7FEA236C6AD04FEA1262D2EBB3
:100AB0001363C1BFD218414048404140B8BF5B42B8
:100AC000192B88BF704710F0004F40F4000020F051
:100AD0007F4018BF404211F0004F41F4000121F067
:100AE0007F4118BF494292EA030F3FD0A2F10102B1
:100AF00041FA03FC10EB0C00C3F1200301FA03F1EF
:100B000000F0004302D5494260EB4000B0F5000F11
:100B100013D3B0F1807F06D340084FEA310102F1D0
:100B20000102FE2A51D2B1F1004F40EBC25008BF82
:100B300020F0010040EA03007047490040EB00004C
:100B400010F4000FA2F10102EDD1B0FA80FCACF17B
:100B5000080CB2EB0C0200FA0CF0AABF00EBC2507A
:100B600052421843BCBFD0401843704792F0000F68
:100B700081F4000106BF80F400000132013BB5E7BB
:100B80004FEA41037FEA226C18BF7FEA236C21D031
:100B900092EA030F04D092F0000F08BF0846704796
:100BA00090EA010F1CBF0020704712F07F4F04D164
:100BB000400028BF40F00040704712F100723CBF77
:100BC00000F50000704700F0004343F0FE4040F4A1
:100BD000000070477FEA226216BF08467FEA23635F
:100BE0000146420206BF5FEA412390EA010F40F44A
:100BF000800070474FF0000304E000BF10F0004396
:100C000048BF40425FEA000C08BF704743F096437C
:100C100001464FF000001CE050EA010208BF704797
:100C20004FF000030AE000BF50EA010208BF70471E
:100C300011F0004302D5404261EB41015FEA010C33
:100C400002BF84460146002043F0B64308BFA3F12B
:100C50008053A3F50003BCFA8CF2083AA3EBC2530D
:100C600010DB01FA02FC634400FA02FCC2F120022C
:100C7000BCF1004F20FA02F243EB020008BF20F063
:100C80000100704702F1200201FA02FCC2F12002C9
:100C900050EA4C0021FA02F243EB020008BF20EABE
:100CA000DC7070474FF0FF0C1CEAD0521EBF1CEAEC
:100CB000D15392EA0C0F93EA0C0F6FD01A4480EADA
:100CC000010C400218BF5FEA41211ED04FF00063C3
:100CD00043EA501043EA5111A0FB01310CF00040EF
:100CE000B1F5000F3EBF490041EAD3715B0040EA15
:100CF000010062F17F02FD2A1DD8B3F1004F40EBE5
:100D0000C25008BF20F00100704790F0000F0CF0B7
:100D1000004C08BF49024CEA502040EA51207F3A7B
:100D2000C2BFD2F1FF0340EAC250704740F4000056
:100D30004FF00003013A5DDC12F1190FDCBF00F047
:100D400000407047C2F10002410021FA02F1C2F1F5
:100D5000200200FA02FC5FEA310040F1000053EA91
:100D60004C0308BF20EADC70704792F0000F00F0DF
:100D7000004C02BF400010F4000F013AF9D040EAE5
:100D80000C0093F0000F01F0004C02BF490011F479
:100D9000000F013BF9D041EA0C018FE70CEAD15377
:100DA00092EA0C0F18BF93EA0C0F0AD030F0004CF7
:100DB00018BF31F0004CD8D180EA010000F00040AB
:100DC000704790F0000F17BF90F0004F084691F069
:100DD000000F91F0004F14D092EA0C0F01D14202A3
:100DE0000FD193EA0C0F03D14B0218BF084608D16C
:100DF00080EA010000F0004040F0FE4040F40000B6
:100E0000704740F0FE4040F4400070474FF0FF0C48
:100E10001CEAD0521EBF1CEAD15392EA0C0F93EA8F
:100E20000C0F69D0A2EB030280EA010C49024FEAE1
:100E3000402037D04FF0805343EA111143EA10139A
:100E40000CF000408B4238BF5B0042F17D024FF452
:100E5000000C8B4224BF5B1A40EA0C00B3EB510F2D
:100E600024BFA3EB510340EA5C00B3EB910F24BF16
:100E7000A3EB910340EA9C00B3EBD10F24BFA3EB9B
:100E8000D10340EADC001B0118BF5FEA1C1CE0D163
:100E9000FD2A3FF650AF8B4240EBC25008BF20F016
:100EA000010070470CF0004C4CEA50207F32C2BF6A
:100EB000D2F1FF0340EAC250704740F400004FF007
:100EC0000003013A37E792F0000F00F0004C02BF38
:100ED000400010F4000F013AF9D040EA0C0093F002
:100EE000000F01F0004C02BF490011F4000F013B5C
:100EF000F9D041EA0C0195E70CEAD15392EA0C0FC4
:100F000008D142027FF47DAF93EA0C0F7FF470AFFB
:100F1000084676E793EA0C0F04D14B023FF44CAF3E
:100F200008466EE730F0004C18BF31F0004CCAD1D3
:100F300030F000427FF45CAF31F000437FF43CAF0F
:100F40005FE700BF90B58BB000AF07F1140300223C
:100F50001A605A609A6000F0FDFA0123BB61002319
:100F6000FB6100F04DF800F003F900F099F800F093
:100F7000D5F801237B6107F1140319461B4800F0E3
:100F800025FE1A4800F042FC0A21184800F018FD1E
:100F9000164800F00FFE7862144800F0E5FC786A0D
:100FA00000F0FCF83862386AFFF73EFA03460C4658
:100FB00038461A4623460E4903F0B2F80A230C229B
:100FC0000C490D4802F037F839460A2305220A4831
:100FD00002F031F80A2302220849074802F02BF8F0
:100FE0004FF47A7000F018FBC3E700BF0402002042
:100FF000185900081C590008340200202C59000818
:1010000080B594B000AF07F12803282200211846CC
:1010100002F02EFC07F1140300221A605A609A6055
:10102000DA601A613B1D00221A605A609A60DA6029
:101030000223BB620123BB631023FB6300237B6499
:1010400007F12803184601F01BFA0346002B01D0D4
:1010500000F0F4F80F237B610023BB610023FB61E8
:1010600000233B6200237B6207F114030021184632
:1010700001F086FC0346002B01D000F0DFF80223CC
:101080007B600023FB603B1D184601F015FE034604
:10109000002B01D000F0D2F800BF5037BD4680BD14
:1010A00080B584B000AF3B1D00221A605A609A6080
:1010B000184B194A1A60174B00229A60154B0022F0
:1010C0001A73144B00221A75124B4FF46022DA6126
:1010D000104B00225A600F4B01221A610D4800F09C
:1010E000BDFA0346002B01D000F0A8F801237B6075
:1010F0000123BB600023FB603B1D1946054800F03F
:1011000065FD0346002B01D000F098F800BF1037B2
:10111000BD4680BD040200200024014080B500AF20
:10112000114B124A1A60104B4FF496425A600E4B04
:1011300000229A600C4B0022DA600B4B00221A61ED
:10114000094B0C225A61084B00229A61064B00227F
:10115000DA61054801F022FF0346002B01D000F0C0
:101160006DF800BF80BD00BF340200200038014090
:1011700080B483B000AF084B9B69074A43F0040377
:101180009361054B9B6903F004037B607B6800BFA0
:101190000C37BD4680BC70470010024090B589B046
:1011A00000AF78604FF00003BB610023FB613BE0C0
:1011B000FB690133204A52F823307A689A4230D3CF
:1011C0001D4AFB6952F823307A689A4229D81A4A94
:1011D000FB6952F823307B61FB690133164A52F8F0
:1011E00023303B61F869FFF705FD0346FB607A6930
:1011F0007B68D31A1846FFF7FDFC04467A693B6901
:10120000D31A1846FFF7F6FC034619462046FFF7A7
:10121000FDFD03461946F868FFF73CFC0346BB6139
:1012200005E0FB690133FB61FB69272BC0D9BB6972
:1012300018462437BD4690BD5859000880B400AF09
:1012400000BFBD4680BC704780B485B000AF154B71
:101250009B69144A43F001039361124B9B6903F0AD
:101260000103BB60BB680F4BDB690E4A43F0805340
:10127000D3610C4BDB6903F080537B607B680A4BC6
:101280005B68FB60FB6823F0E063FB60FB6843F096
:101290008063FB60044AFB68536000BF1437BD469F
:1012A00080BC7047001002400000014080B588B04B
:1012B00000AF786007F1100300221A605A609A604C
:1012C000DA607B681B68144A934221D1134B9B69F7
:1012D000124A43F400739361104B9B6903F400734B
:1012E000FB60FB680D4B9B690C4A43F00403936160
:1012F0000A4B9B6903F00403BB60BB6802233B619C
:1013000003237B6107F110031946054800F066FFCF
:1013100000BF2037BD4680BD0024014000100240C0
:101320000008014080B588B000AF786007F1100375
:1013300000221A605A609A60DA607B681B68204A53
:10134000934239D11F4B9B691E4A43F480439361FA
:101350001C4B9B6903F48043FB60FB68194B9B6942
:10136000184A43F004039361164B9B6903F004038E
:10137000BB60BB684FF400733B6102237B610323B6
:10138000FB6107F1100319460F4800F027FF4FF4E7
:1013900080633B6100237B610023BB6107F1100385
:1013A0001946094800F01AFF00220021252000F00C
:1013B00068FE252000F081FE00BF2037BD4680BDBD
:1013C00000380140001002400008014080B400AF26
:1013D00000BFBD4680BC704780B400AFFEE780B45C
:1013E00000AFFEE780B400AFFEE780B400AFFEE7D9
:1013F00080B400AF00BFBD4680BC704780B400AF72
:1014000000BFBD4680BC704780B400AF00BFBD4682
:1014100080BC704780B500AF00F0E2F800BF80BD2F
:1014200080B500AF024801F09FFE00BF80BD00BF45
:101430003402002080B586B000AF7860144A154BA6
:10144000D31A7B617B693B61134B1B68002B02D174
:10145000114B124A1A60104B1A687B6813443A69A0
:101460009A4207D202F0DAF902460C2313604FF0D9
:10147000FF3309E0084B1B68FB60074B1A687B6869
:101480001344054A1360FB6818461837BD4680BDF3
:101490000028002000040000F80100208002002045
:1014A00080B400AF154B1B68144A43F0010313606E
:1014B000124B5A681149124B13404B600F4B1B687B
:1014C0000E4A23F0847323F4803313600B4B1B68A4
:1014D0000A4A23F480231360084B5B68074A23F40D
:1014E000FE035360054B4FF41F029A60054B4FF00B
:1014F00000629A6000BFBD4680BC70470010024089
:101500000000FFF800ED00E0002103E00B4B5B580A
:10151000435004310A480B4B42189A42F6D30A4A08
:1015200002E0002342F8043B084B9A42F9D3FFF74C
:10153000B7FF02F079F9FFF705FD7047785C000806
:1015400000000020DC010020DC0100207C020020E3
:10155000FEE7000080B500AF084B1B68074A43F068
:1015600010031360032000F081FD002000F008F854
:10157000FFF76AFE0023184680BD00BF002002402E
:1015800080B582B000AF7860124B1A68124B1B789E
:1015900019464FF47A73B3FBF1F3B2FBF3F3184639
:1015A00000F099FD0346002B01D001230EE07B687B
:1015B0000F2B0AD8002279684FF0FF3000F061FD50
:1015C000064A7B681360002300E0012318460837B1
:1015D000BD4680BD0000002008000020040000205F
:1015E00080B400AF054B1B781A46054B1B681344AB
:1015F000034A136000BFBD4680BC7047080000204E
:101600007402002080B400AF024B1B681846BD4630
:1016100080BC70477402002080B584B000AF786051
:10162000FFF7F0FFB8607B68FB60FB68B3F1FF3F3A
:1016300005D0094B1B781A46FB681344FB6000BFBA
:10164000FFF7E0FF0246BB68D31AFA689A42F7D860
:1016500000BF1037BD4680BD0800002080B586B0B1
:1016600000AF78600023FB7500233B610023BB6063
:101670000023FB607B68002B01D10123BEE07B6867
:101680009B68002B7B689B6A002B09D17B6800223A
:10169000DA627B68002283F824207868FFF706FE70
:1016A000786800F0DDFB0346FB757B689B6A03F0FE
:1016B0001003002B40F09980FB7D002B40F09580BB
:1016C0007B689B6A23F4885323F0020343F00202F1
:1016D0007B689A627B685A687B68DB691A437B681F
:1016E0001B7B5B001343BA681343BB607B689B683A
:1016F000B3F5807F03D07B689B68012B02D14FF448
:10170000807300E000233A6913433B617B681B7DD3
:10171000012B19D17B681B7B002B09D17B689B694E
:10172000013B5A033B69134343F400633B610BE005
:101730007B689B6A43F020027B689A627B68DB6A65
:1017400043F001027B68DA627B681B685B6823F404
:1017500069417B681B683A690A435A607B681B6869
:101760009A68284B13407A681268B9680B439360F3
:101770007B689B68B3F5807F03D07B689B68012BF7
:1017800004D17B681B69013B1B05FB607B681B6800
:10179000DB6A23F470017B681B68FA680A43DA622B
:1017A0007B681B689A68184B1340BA689A420BD141
:1017B0007B680022DA627B689B6A23F0030343F0B4
:1017C00001027B689A6218E07B689B6A23F012032F
:1017D00043F010027B689A627B68DB6A43F0010287
:1017E0007B68DA620123FB7507E07B689B6A43F044
:1017F00010027B689A620123FB75FB7D184618373F
:10180000BD4680BDFDF7E1FFFE0E1FFF80B584B031
:1018100000AF78600023FB737B6893F82430012BC2
:1018200001D1022398E07B68012283F824207868A4
:1018300000F0C4FA0346FB73FB7B002B40F087806B
:101840007B689B6A23F4407323F0010343F48072A6
:101850007B689A627B681B68414A934205D1414B81
:101860005B6803F47023002B15D17B689B6A23F41B
:1018700080127B689A627B681B685B6803F48063F4
:10188000002B26D07B689B6A23F4405343F480529C
:101890007B689A621DE07B689B6A43F480127B68D8
:1018A0009A627B681B682F4A934204D07B681B684E
:1018B0002B4A93420DD12B4B5B6803F48063002BC2
:1018C00007D07B689B6A23F4405343F480527B68C3
:1018D0009A627B689B6A03F48053002B06D07B6876
:1018E000DB6A23F006027B68DA6202E07B68002292
:1018F000DA627B68002283F824207B681B686FF023
:1019000002021A607B681B689B6803F46023B3F5CE
:10191000602F13D17B681B68114A934205D1114B8C
:101920005B6803F47023002B08D17B681B689A68FE
:101930007B681B6842F4A0029A600CE07B681B681D
:101940009A687B681B6842F480129A6003E07B68A7
:10195000002283F82420FB7B18461037BD4680BD4B
:10196000002801400024014080B584B000AF7860B9
:101970000023FB737B6893F82430012B01D10223F1
:101980001AE07B68012283F82420786800F068FA66
:101990000346FB73FB7B002B09D17B689B6A23F416
:1019A000885323F0010343F001027B689A627B684D
:1019B000002283F82420FB7B18461037BD4680BDEB
:1019C00090B587B000AF7860396000237B61002359
:1019D000FB6000233B61FFF715FE78617B681B68A5
:1019E0009B6803F48073002B0BD07B689B6A43F0E9
:1019F00020027B689A627B68002283F824200123FE
:101A0000C8E07B681B685B6803F48073002B2AD1F5
:101A10007B681B68DB6A03F47003002B23D11AE098
:101A20003B68B3F1FF3F16D03B68002B07D0FFF7B0
:101A3000E9FD02467B69D31A3A689A420BD27B6869
:101A40009B6A43F004027B689A627B68002283F8F9
:101A5000242003239EE07B681B681B6803F00203BD
:101A6000002BDDD06CE04D4B1C68022001F0DAF950
:101A70000346B4FBF3F27B681B681969484B0B40C3
:101A8000002B18D17B681B68D968464B0B40002B94
:101A900011D17B681B681969434B0B40002B08D19F
:101AA0007B681B68D968414B0B40002B01D1142384
:101AB00020E029231EE07B681B6819693A4B0B4024
:101AC000002B06D17B681B68D968384B0B40002B74
:101AD0000DD07B681B681969354B0B40002B08D172
:101AE0007B681B68D968324B0B40002B01D1542313
:101AF00000E0FC2302FB03F33B611DE03B68B3F114
:101B0000FF3F16D03B68002B07D0FFF77BFD024656
:101B10007B69D31A3A689A420BD27B689B6A43F07E
:101B200004027B689A627B68002283F824200323E6
:101B300030E0FB680133FB60FB683A699A42DDD80C
:101B40007B681B686FF012021A607B689B6A43F423
:101B500000727B689A627B681B689B6803F4602351
:101B6000B3F5602F15D17B681B7B002B11D17B68EF
:101B70009B6A23F480727B689A627B689B6A03F499
:101B80008053002B05D17B689B6A43F001027B6880
:101B90009A62002318461C37BD4690BD0000002005
:101BA0002449922424499200922449129224490003
:101BB0004992240080B483B000AF78607B681B68D2
:101BC000DB6C18460C37BD4680BC704780B485B0CE
:101BD00000AF786039600023FB730023BB607B6833
:101BE00093F82430012B01D10223DCE07B68012231
:101BF00083F824203B685B68062B1CD87B681B6835
:101C0000596B3B685A6813469B001344053B1F22DF
:101C100002FA03F3DB4319403B6818683B685A68D3
:101C200013469B001344053B00FA03F27B681B68D4
:101C30000A435A633CE03B685B680C2B1CD87B680A
:101C40001B68196B3B685A6813469B001344233B7F
:101C50001F2202FA03F3DB4319403B6818683B6814
:101C60005A6813469B001344233B00FA03F27B6837
:101C70001B680A431A631BE07B681B68D96A3B68D0
:101C80005A6813469B001344413B1F2202FA03F398
:101C9000DB4319403B6818683B685A6813469B0051
:101CA0001344413B00FA03F27B681B680A43DA6283
:101CB0003B681B68092B1CD97B681B68D9683B688B
:101CC0001A6813465B0013441E3B072202FA03F313
:101CD000DB4319403B6898683B681A6813465B0011
:101CE00013441E3B00FA03F27B681B680A43DA6068
:101CF00019E07B681B6819693B681A6813465B002A
:101D00001344072202FA03F3DB4319403B68986847
:101D10003B681A6813465B00134400FA03F27B68C1
:101D20001B680A431A613B681B68102B03D03B6891
:101D30001B68112B32D17B681B681D4A934225D149
:101D40007B681B689B6803F40003002B26D17B682B
:101D50001B689A687B681B6842F400029A603B68C3
:101D60001B68102B1AD1134B1B68134AA2FB0323C9
:101D70009A0C13469B0013445B00BB6002E0BB68F7
:101D8000013BBB60BB68002BF9D107E07B689B6A15
:101D900043F020027B689A620123FB737B68002278
:101DA00083F82420FB7B18461437BD4680BC70475F
:101DB000002401400000002083DE1B4380B584B076
:101DC00000AF78600023FB600023BB607B681B686A
:101DD0009B6803F00103012B39D07B681B689A686C
:101DE0007B681B6842F001029A601B4B1B681B4A10
:101DF000A2FB03239B0CBB6002E0BB68013BBB6002
:101E0000BB68002BF9D1FFF7FDFBF86018E0FFF786
:101E1000F9FB0246FB68D31A022B11D97B689B6A37
:101E200043F010027B689A627B68DB6A43F0010230
:101E30007B68DA627B68002283F82420012307E0B4
:101E40007B681B689B6803F00103012BDFD1002333
:101E500018461037BD4680BD0000002083DE1B43BE
:101E600080B584B000AF78600023FB607B681B689E
:101E70009B6803F00103012B27D17B681B689A68DC
:101E80007B681B6822F001029A60FFF7BBFBF860D9
:101E900014E0FFF7B7FB0246FB68D31A022B0DD9FB
:101EA0007B689B6A43F010027B689A627B68DB6AFE
:101EB00043F001027B68DA62012307E07B681B685C
:101EC0009B6803F00103012BE3D000231846103771
:101ED000BD4680BD80B485B000AF78607B6803F0FC
:101EE0000703FB600C4BDB68BB60BA684FF6FF036F
:101EF0001340BB60FB681A02BB68134343F0BF6327
:101F000043F40033BB60044ABB68D36000BF14379E
:101F1000BD4680BC704700BF00ED00E080B400AF5C
:101F2000044BDB681B0A03F007031846BD4680BC60
:101F3000704700BF00ED00E080B483B000AF0346FF
:101F4000FB7197F90730002B0BDBFB7903F01F02C5
:101F5000064997F907305B09012000FA02F241F8BF
:101F6000232000BF0C37BD4680BC704700E100E075
:101F700080B483B000AF03463960FB7197F9073036
:101F8000002B0ADB3B68DAB20C4997F907301201E3
:101F9000D2B20B4483F800230AE03B68DAB2084966
:101FA000FB7903F00F03043B1201D2B20B441A7603
:101FB00000BF0C37BD4680BC704700BF00E100E0A9
:101FC00000ED00E080B489B000AFF860B9607A60DD
:101FD000FB6803F00703FB61FB69C3F10703042BF4
:101FE00028BF0423BB61FB690433062B02D9FB69BC
:101FF000033B00E000237B614FF0FF32BB6902FA34
:1020000003F3DA43BB681A407B699A404FF0FF3113
:102010007B6901FA03F3D9437B680B4013431846ED
:102020002437BD4680BC704780B582B000AF786071
:102030007B68013BB3F1807F01D301230FE00A4AA3
:102040007B68013B53600F214FF0FF30FFF790FF9B
:10205000054B00229A60044B07221A6000231846A1
:102060000837BD4680BD00BF10E000E080B582B0FB
:1020700000AF78607868FFF72DFF00BF0837BD46D6
:1020800080BD80B586B000AF0346B9607A60FB734F
:1020900000237B61FFF742FF78617A68B96878694D
:1020A000FFF790FF024697F90F3011461846FFF7E9
:1020B0005FFF00BF1837BD4680BD80B582B000AF5E
:1020C0000346FB7197F907301846FFF735FF00BF4D
:1020D0000837BD4680BD80B582B000AF78607868B3
:1020E000FFF7A2FF034618460837BD4680BD000033
:1020F00080B584B000AF78600023FB737B6893F8F1
:102100002130022B05D07B6804229A630123FB73E4
:1021100051E07B681B681A687B681B6822F00E021E
:102120001A607B681B681A687B681B6822F00102D2
:102130001A607B681B68224A934229D07B681B681F
:10214000204A934222D07B681B681F4A93421AD0D0
:102150007B681B681D4A934212D07B681B681C4A2F
:1021600093420AD07B681B681A4A934202D14FF40B
:1021700080130EE04FF080730BE04FF4803308E0E3
:102180004FF4805305E04FF4807302E0102300E029
:102190000123114A53607B68012283F821207B6868
:1021A000002283F820207B685B6B002B03D07B68C8
:1021B0005B6B78689847FB7B18461037BD4680BD3F
:1021C000080002401C00024030000240440002406F
:1021D000580002406C0002400000024080B48BB006
:1021E00000AF7860396000237B6200233B6221E10D
:1021F00001227B6A02FA03F3FB613B681B68FA6900
:102200001340BB61BA69FB699A4240F010813B6898
:102210005B68122B34D0122B0DD8022B2BD0022B43
:1022200004D8002B31D0012B1CD048E0032B43D025
:10223000112B1BD043E0864A934226D0844A934216
:1022400006D8844A934220D0834A93421DD036E078
:10225000824A934219D0824A934216D0814A9342CD
:1022600013D02CE03B68DB683B6228E03B68DB680E
:1022700004333B6223E03B68DB6808333B621EE0CB
:102280003B68DB680C333B6219E03B689B68002BC2
:1022900002D104233B6212E03B689B68012B05D10D
:1022A00008233B627B68FA691A6108E008233B62F5
:1022B0007B68FA695A6102E000233B6200BFBB6998
:1022C000FF2B01D87B6801E07B6804337B61BB692D
:1022D000FF2B02D87B6A9B0002E07B6A083B9B00D5
:1022E0003B617B691A680F213B6901FA03F3DB4309
:1022F0001A40396A3B6901FA03F31A437B691A6091
:102300003B685B6803F08053002B00F09080564BD5
:102310009B69554A43F001039361534B9B6903F05A
:102320000103BB60BB68514A7B6A9B08023352F8C9
:102330002330FB607B6A03F003039B000F2202FA49
:1023400003F3DB43FA681340FB607B68484A93421F
:102350000DD07B68474A934207D07B68464A934238
:1023600001D1022304E0032302E0012300E0002363
:102370007A6A02F0030292009340FA681343FB600A
:102380003A497B6A9B080233FA6841F823203B688C
:102390005B6803F48033002B06D0384B1A6837494A
:1023A000BB6913430B6006E0344B1A68BB69DB431F
:1023B000324913400B603B685B6803F40033002B29
:1023C00006D02E4B5A682D49BB6913434B6006E07B
:1023D0002A4B5A68BB69DB43284913404B603B6872
:1023E0005B6803F48013002B06D0244B9A682349C2
:1023F000BB6913438B6006E0204B9A68BB69DB43E3
:102400001E4913408B603B685B6803F40013002B8C
:1024100006D01A4BDA681949BB691343CB6006E052
:10242000164BDA68BB69DB4314491340CB607B6A07
:1024300001337B623B681A687B6A22FA03F3002B44
:102440007FF4D6AE00BF2C37BD4680BC704700BFBE
:1024500000002110000011100000121000003110C7
:102460000000321000002210001002400000014065
:1024700000080140000C0140001001400004014030
:1024800080B586B000AF78607B68002B01D1012356
:102490006CE27B681B6803F00103002B00F087806F
:1024A000924B5B6803F00C03042B0CD08F4B5B68E2
:1024B00003F00C03082B12D18C4B5B6803F48033C0
:1024C000B3F5803F0BD1894B1B6803F40033002B1D
:1024D0006CD07B685B68002B68D1012346E27B6887
:1024E0005B68B3F5803F06D1804B1B687F4A43F49D
:1024F000803313602EE07B685B68002B0CD17B4B34
:102500001B687A4A23F480331360784B1B68774A40
:1025100023F4802313601DE07B685B68B3F5A02F74
:102520000CD1724B1B68714A43F4802313606F4BCC
:102530001B686E4A43F4803313600BE06B4B1B68DF
:102540006A4A23F480331360684B1B68674A23F49C
:10255000802313607B685B68002B13D0FFF752F871
:10256000386108E0FFF74EF802463B69D31A642B46
:1025700001D90323FAE15D4B1B6803F40033002B00
:10258000F0D014E0FFF73EF8386108E0FFF73AF8C2
:1025900002463B69D31A642B01D90323E6E1534B6E
:1025A0001B6803F40033002BF0D100E000BF7B6810
:1025B0001B6803F00203002B63D04C4B5B6803F0F5
:1025C0000C03002B0BD0494B5B6803F00C03082B6A
:1025D0001CD1464B5B6803F48033002B16D1434B70
:1025E0001B6803F00203002B05D07B681B69012BDD
:1025F00001D00123BAE13D4B1B6823F0F8027B6850
:102600005B69DB00394913430B603AE07B681B6967
:10261000002B20D0364B01221A60FEF7F3FF386101
:1026200008E0FEF7EFFF02463B69D31A022B01D9FF
:1026300003239BE12D4B1B6803F00203002BF0D01A
:102640002A4B1B6823F0F8027B685B69DB00274993
:1026500013430B6015E0264B00221A60FEF7D2FFF1
:10266000386108E0FEF7CEFF02463B69D31A022B21
:1026700001D903237AE11D4B1B6803F00203002BF1
:10268000F0D17B681B6803F00803002B3AD07B680D
:102690009B69002B19D0174B01221A60FEF7B2FF7D
:1026A000386108E0FEF7AEFF02463B69D31A022B01
:1026B00001D903235AE10D4B5B6A03F00203002B9F
:1026C000F0D0012000F0DAFA1CE00A4B00221A6078
:1026D000FEF798FF38610FE0FEF794FF02463B6972
:1026E000D31A022B08D9032340E100BF0010024097
:1026F00000004242800442429E4B5B6A03F00203A8
:10270000002BE9D17B681B6803F00403002B00F069
:10271000A6800023FB75974BDB6903F08053002BE9
:102720000DD1944BDB69934A43F08053D361914BB5
:10273000DB6903F08053BB60BB680123FB758E4BE4
:102740001B6803F48073002B18D18B4B1B688A4ADB
:1027500043F480731360FEF755FF386108E0FEF71D
:1027600051FF02463B69D31A642B01D90323FDE0D4
:10277000814B1B6803F48073002BF0D07B68DB680F
:10278000012B06D17B4B1B6A7A4A43F0010313628B
:102790002DE07B68DB68002B0CD1764B1B6A754AF9
:1027A00023F001031362734B1B6A724A23F0040384
:1027B00013621CE07B68DB68052B0CD16D4B1B6A38
:1027C0006C4A43F0040313626A4B1B6A694A43F084
:1027D000010313620BE0674B1B6A664A23F0010397
:1027E0001362644B1B6A634A23F0040313627B6821
:1027F000DB68002B15D0FEF705FF38610AE0FEF715
:1028000001FF02463B69D31A41F28832934201D953
:102810000323ABE0574B1B6A03F00203002BEED0FF
:1028200014E0FEF7EFFE38610AE0FEF7EBFE024629
:102830003B69D31A41F28832934201D9032395E0D0
:102840004C4B1B6A03F00203002BEED1FB7D012BE6
:1028500005D1484BDB69474A23F08053D3617B683D
:10286000DB69002B00F08180424B5B6803F00C03B6
:10287000082B61D07B68DB69022B46D13F4B0022DD
:102880001A60FEF7BFFE386108E0FEF7BBFE0246A5
:102890003B69D31A022B01D9032367E0354B1B6830
:1028A00003F00073002BF0D17B681B6AB3F5803F07
:1028B00008D1304B5B6823F400327B689B682D495C
:1028C00013434B602B4B5B6823F474127B68196ACB
:1028D0007B685B6A0B43274913434B60274B0122FC
:1028E0001A60FEF78FFE386108E0FEF78BFE0246A5
:1028F0003B69D31A022B01D9032337E01D4B1B6818
:1029000003F00073002BF0D02FE01C4B00221A6064
:10291000FEF778FE386108E0FEF774FE02463B6978
:10292000D31A022B01D9032320E0124B1B6803F0BA
:102930000073002BF0D118E07B68DB69012B01D11B
:10294000012313E00B4B5B68FB60FB6803F48032F0
:102950007B681B6A9A4206D1FB6803F470127B689D
:102960005B6A9A4201D0012300E000231846183721
:10297000BD4680BD00100240007000406000424231
:1029800080B584B000AF786039607B68002B01D1DE
:102990000123D0E06A4B1B6803F007033A689A42B0
:1029A00010D9674B1B6823F0070265493B68134346
:1029B0000B60634B1B6803F007033A689A4201D02F
:1029C0000123B8E07B681B6803F00203002B20D0D2
:1029D0007B681B6803F00403002B05D0594B5B6830
:1029E000584A43F4E06353607B681B6803F00803B4
:1029F000002B05D0534B5B68524A43F4605353603D
:102A0000504B5B6823F0F0027B689B684D49134391
:102A10004B607B681B6803F00103002B40D07B6890
:102A20005B68012B07D1474B1B6803F40033002B75
:102A300015D101237FE07B685B68022B07D1414BF6
:102A40001B6803F00073002B09D1012373E03D4B99
:102A50001B6803F00203002B01D101236BE0394B0B
:102A60005B6823F003027B685B68364913434B6065
:102A7000FEF7C8FDF8600AE0FEF7C4FD0246FB68F9
:102A8000D31A41F28832934201D9032353E02D4BEC
:102A90005B6803F00C027B685B689B009A42EBD199
:102AA000274B1B6803F007033A689A4210D2244B65
:102AB0001B6823F0070222493B6813430B60204B3D
:102AC0001B6803F007033A689A4201D0012332E001
:102AD0007B681B6803F00403002B08D0194B5B686C
:102AE00023F4E0627B68DB68164913434B607B6824
:102AF0001B6803F00803002B09D0124B5B6823F41A
:102B000060527B681B69DB000E4913434B6000F089
:102B100021F801460B4B5B681B0903F00F030A4ABF
:102B2000D35C21FA03F3094A1360094B1B6818466A
:102B3000FEF726FD002318461037BD4680BD00BFB6
:102B40000020024000100240FC5900080000002054
:102B50000400002090B48AB000AF2A4B3C1D0FCB7C
:102B600084E80F00284B1B883B800023FB61002377
:102B7000BB6100237B6200237B6100233B62234B0C
:102B80005B68FB61FB6903F00C03042B02D0082B8C
:102B900003D02DE01E4B3B622DE0FB699B0C03F044
:102BA0000F0307F12802134413F8243C7B61FB69EF
:102BB00003F48033002B13D0144B5B685B0C03F0E1
:102BC000010307F12802134413F8283CBB617B6919
:102BD0000F4A02FB03F2BB69B2FBF3F37B6204E032
:102BE0007B690C4A02FB03F37B627B6A3B6202E077
:102BF000074B3B6200BF3B6A18462837BD4690BC76
:102C0000704700BF305900084059000800100240CA
:102C100000127A0000093D0080B400AF024B1B682F
:102C20001846BD4680BC70470000002080B500AF4C
:102C3000FFF7F2FF0146054B5B681B0A03F0070331
:102C4000034AD35C21FA03F3184680BD001002400A
:102C50000C5A000880B500AFFFF7DEFF0146054BB8
:102C60005B68DB0A03F00703034AD35C21FA03F332
:102C7000184680BD001002400C5A000880B485B090
:102C800000AF78600A4B1B680A4AA2FB03235B0A69
:102C90007A6802FB03F3FB6000BFFB685A1EFA6010
:102CA000002BF9D100BF1437BD4680BC704700BF70
:102CB00000000020D34D621080B586B000AF786070
:102CC00000233B610023FB607B681B6803F001036A
:102CD000002B7DD00023FB754F4BDB6903F0805345
:102CE000002B0DD14C4BDB694B4A43F08053D36131
:102CF000494BDB6903F08053BB60BB680123FB7564
:102D0000464B1B6803F48073002B18D1434B1B68A0
:102D1000424A43F480731360FEF774FC386108E0A4
:102D2000FEF770FC02463B69D31A642B01D90323DA
:102D30006DE03A4B1B6803F48073002BF0D0364BE8
:102D40001B6A03F44073FB60FB68002B2ED07B688A
:102D50005B6803F44073FA689A4227D02E4B1B6AD3
:102D600023F44073FB602E4B01221A602C4B00228F
:102D70001A60294AFB681362FB6803F00103002B09
:102D800014D0FEF73FFC38610AE0FEF73BFC024638
:102D90003B69D31A41F28832934201D9032336E0CA
:102DA0001D4B1B6A03F00203002BEED01A4B1B6A6B
:102DB00023F440727B685B68174913430B62FB7D09
:102DC000012B05D1144BDB69134A23F08053D361E7
:102DD0007B681B6803F00203002B08D00E4B5B6876
:102DE00023F440427B689B680B4913434B607B682C
:102DF0001B6803F01003002B08D0074B5B6823F41B
:102E000080027B68DB68044913434B60002318464B
:102E10001837BD4680BD00BF001002400070004062
:102E20004004424290B58DB000AF7860554B07F139
:102E30000C040FCB84E80F00534B1B883B8100230D
:102E40007B620023FB6200233B620023FB610023C3
:102E5000BB627B68022B7FD0102B02D0012B48D0A5
:102E60008BE04A4B5B68FB61484B1B6803F0807347
:102E7000002B7FD0FB699B0C03F00F0307F130029E
:102E8000134413F8243C3B62FB6903F48033002BAA
:102E900018D03E4B5B685B0C03F0010307F1300276
:102EA000134413F8283C7B62FB6903F48033002B46
:102EB0000DD0374A7B6AB2FBF3F23B6A02FB03F3A5
:102EC000FB6204E03B6A334A02FB03F3FB622F4BD5
:102ED0005B6803F48003B3F5800F02D1FB6ABB6229
:102EE00048E0FB6A5B002C4AA2FB03235B08BB6241
:102EF00040E0264B1B6AFB61FB6903F44073B3F5AA
:102F0000807F08D1FB6903F00203002B03D04FF44C
:102F10000043BB621FE0FB6903F44073B3F5007F1D
:102F200009D11A4B5B6A03F00203002B03D049F668
:102F30004043BB620FE0FB6903F44073B3F5407F8D
:102F40001AD1124B1B6803F40033002B14D04FF23C
:102F50002443BB6210E00FE0FFF77CFE02460B4B00
:102F60005B689B0B03F0030301335B00B2FBF3F3DD
:102F7000BB6202E000BF00E000BFBB6A1846343706
:102F8000BD4690BD44590008545900080010024045
:102F900000127A0000093D00ABAAAAAA80B582B04F
:102FA00000AF78607B68002B01D101233FE07B6894
:102FB00093F83930DBB2002B06D17B68002283F80E
:102FC00038207868FEF7AEF97B68242283F8392030
:102FD0007B681B68DA687B681B6822F40052DA6041
:102FE000786800F041FB7B681B681A697B681B6886
:102FF00022F490421A617B681B685A697B681B68DF
:1030000022F02A025A617B681B68DA687B681B68B9
:1030100042F40052DA607B680022DA637B68202287
:1030200083F839207B68202283F83A200023184651
:103030000837BD4680BD80B588B002AFF860B96082
:103040003B601346FB8000237B61FB6893F83930BB
:10305000DBB2202B40F08380BB68002B02D0FB88C2
:10306000002B01D101237BE0FB6893F83830012B62
:1030700001D1022374E0FB68012283F83820FB6849
:103080000022DA63FB68212283F83920FEF7BAFABE
:103090007861FB68FA889A84FB68FA88DA8442E0EF
:1030A000FB68DB8C9BB2013B9AB2FB68DA84FB685D
:1030B0009B68B3F5805F22D13B6800937B69002257
:1030C0008021F86800F067F90346002B01D0032344
:1030D00046E0BB683B613B691B881A46FB681B687E
:1030E000C2F308025A60FB681B69002B03D1BB685E
:1030F0000233BB6017E0BB680133BB6013E03B6881
:1031000000937B6900228021F86800F044F90346AF
:10311000002B01D0032323E0BB685A1CBA601A7845
:10312000FB681B685A60FB68DB8C9BB2002BB7D135
:103130003B6800937B6900224021F86800F02BF97E
:103140000346002B01D003230AE0FB68202283F80A
:103150003920FB68002283F83820002300E0022396
:1031600018461837BD4680BD80B588B000AF78607E
:103170007B681B681B68FB617B681B68DB68BB6145
:103180007B681B685B697B6100233B610023FB60FC
:10319000FB6903F00F033B613B69002B0DD1FB6919
:1031A00003F02003002B08D0BB6903F02003002BA1
:1031B00003D0786800F0D7F9CCE03B69002B00F031
:1031C000AB807B6903F00103002B05D1BB6903F4DD
:1031D0009073002B00F0A080FB6903F00103002B2B
:1031E0000AD0BB6903F48073002B05D07B68DB6BCE
:1031F00043F001027B68DA63FB6903F00403002BF0
:103200000AD07B6903F00103002B05D07B68DB6BE0
:1032100043F002027B68DA63FB6903F00203002BD0
:103220000AD07B6903F00103002B05D07B68DB6BC0
:1032300043F004027B68DA63FB6903F00803002BA8
:103240000AD07B6903F00103002B05D07B68DB6BA0
:1032500043F008027B68DA637B68DB6B002B78D075
:10326000FB6903F02003002B07D0BB6903F02003A8
:10327000002B02D0786800F076F97B681B685B69E8
:1032800003F04003002B14BF01230023DBB2FB60DB
:103290007B68DB6B03F00803002B02D1FB68002B7B
:1032A00031D0786800F0C1F87B681B685B6903F077
:1032B0004003002B23D07B681B685A697B681B681E
:1032C00022F040025A617B685B6B002B13D07B6855
:1032D0005B6B224A5A637B685B6B1846FEF708FFFC
:1032E0000346002B16D07B685B6B5B6B7A68526B76
:1032F000104698470EE0786800F044F80AE07868D5
:1033000000F040F806E0786800F03CF87B680022A6
:10331000DA631EE000BF1CE0FB6903F08003002BB2
:1033200008D0BB6903F08003002B03D0786800F05D
:10333000ADF80FE0FB6903F04003002B0AD0BB6936
:1033400003F04003002B05D0786800F0F4F800BFCC
:1033500000E000BF2037BD4680BD00BF65340008D7
:1033600080B483B000AF786000BF0C37BD4680BC2E
:10337000704780B483B000AF786000BF0C37BD46A3
:1033800080BC704780B483B000AF786000BF0C375A
:10339000BD4680BC704780B584B000AFF860B960AE
:1033A0003B601346FB712CE0BB69B3F1FF3F28D0B3
:1033B000BB69002B07D0FEF725F902463B68D31AFC
:1033C000BA699A421DD2FB681B68DA68FB681B6801
:1033D00022F4D072DA60FB681B685A69FB681B68CC
:1033E00022F001025A61FB68202283F83920FB6831
:1033F000202283F83A20FB68002283F83820032338
:103400000FE0FB681B681A68BB681340BA689A42F1
:103410000CBF01230023DBB21A46FB799A42C3D0CA
:10342000002318461037BD4680BD80B483B000AF7E
:1034300078607B681B68DA687B681B6822F490728E
:10344000DA607B681B685A697B681B6822F001029E
:103450005A617B68202283F83A2000BF0C37BD46B2
:1034600080BC704780B584B000AF78607B685B6AD1
:10347000FB60FB680022DA85FB680022DA84F868CA
:10348000FFF780FF00BF1037BD4680BD80B485B018
:1034900000AF78607B6893F83930DBB2212B44D1E0
:1034A0007B689B68B3F5805F1AD17B681B6AFB6001
:1034B000FB681B881A467B681B68C2F308025A60C7
:1034C0007B681B69002B05D17B681B6A9A1C7B6893
:1034D0001A620EE07B681B6A5A1C7B681A6208E05D
:1034E0007B681B6A591C7A6811621A787B681B68B2
:1034F0005A607B68DB8C9BB2013B9BB27A681946B1
:10350000D184002B0FD17B681B68DA687B681B684D
:1035100022F08002DA607B681B68DA687B681B68CF
:1035200042F04002DA60002300E00223184614371C
:10353000BD4680BC704780B582B000AF78607B68C4
:103540001B68DA687B681B6822F04002DA607B68DF
:10355000202283F839207868FFF702FF00231846FD
:103560000837BD4680BD80B584B000AF78607B6809
:1035700093F83A30DBB2222B71D17B689B68B3F5AC
:10358000805F23D17B689B6AFB607B681B69002B93
:103590000ED17B681B685B689BB2C3F308039AB2C9
:1035A000FB681A807B689B6A9A1C7B689A6229E098
:1035B0007B681B685B689BB2DBB29AB2FB681A80BF
:1035C0007B689B6A5A1C7B689A621BE07B681B695C
:1035D000002B0AD17B681B6858687B689B6A591C62
:1035E0007A689162C2B21A700CE07B681B685B68F3
:1035F000DAB27B689B6A581C7968886202F07F02A5
:10360000D2B21A707B68DB8D9BB2013B9BB27A68A9
:103610001946D185002B20D17B681B68DA687B684E
:103620001B6822F02002DA607B681B68DA687B681E
:103630001B6822F48072DA607B681B685A697B68B9
:103640001B6822F001025A617B68202283F83A202D
:103650007868FFF78EFE002302E0002300E00223DB
:1036600018461037BD4680BD80B584B000AF786085
:103670007B681B681B6923F440517B68DA687B68B0
:103680001B680A431A617B689A687B681B691A4346
:103690007B685B691343FB607B681B68DB6823F412
:1036A000B05323F00C037A681268F9680B43D360B7
:1036B0007B681B685B6923F440717B689A697B684F
:1036C0001B680A435A617B681B68524A93424ED179
:1036D000FFF7C0FAB860BA6813469B0013449A001B
:1036E0001A447B685B689B00B2FBF3F34A4AA2FB77
:1036F00003235B091901BA6813469B0013449A001F
:103700001A447B685B689B00B2FBF3F2424BA3FB5D
:1037100002035B09642000FB03F3D31A1B0132335D
:103720003D4AA2FB03235B0903F0F0031944BA6886
:1037300013469B0013449A001A447B685B689B0005
:10374000B2FBF3F2344BA3FB02035B09642000FBE2
:1037500003F3D31A1B0132332F4AA2FB03235B0965
:1037600003F00F027B681B680A449A604DE0FFF784
:103770005DFAB860BA6813469B0013449A001A4475
:103780007B685B689B00B2FBF3F3234AA2FB032335
:103790005B091901BA6813469B0013449A001A4446
:1037A0007B685B689B00B2FBF3F21B4BA3FB02033D
:1037B0005B09642000FB03F3D31A1B013233164A62
:1037C000A2FB03235B0903F0F0031944BA68134614
:1037D0009B0013449A001A447B685B689B00B2FB11
:1037E000F3F20D4BA3FB02035B09642000FB03F320
:1037F000D31A1B013233084AA2FB03235B0903F0EF
:103800000F027B681B680A449A6000BF1037BD46F0
:1038100080BD00BF003801401F85EB51014B186887
:10382000704700BF0C00002070B500250C4E0D4CF9
:10383000A41BA410A54209D102F060F800250A4E8D
:103840000A4CA41BA410A54205D170BD56F8253022
:1038500098470135EEE756F8253098470135F2E7ED
:10386000705C0008705C0008705C0008745C000804
:1038700003460244934200D1704703F8011BF9E765
:10388000002B2DE9F0471E46BBBF03F100431E4647
:1038900000232D2388B0149FDDE9121A27F020079A
:1038A000462F1446109D0B7004D0452F00D10135D2
:1038B000022300E0032307AA049206AACDE902A28C
:1038C000CDE900352246334600F0DAFC472F80462A
:1038D00002D1119BDB0726D5462F08EB050911D134
:1038E00098F80030302B0AD10022002320463146C0
:1038F000FDF75AF818B9C5F10105CAF80050DAF811
:10390000003099440022002320463146FDF74CF850
:1039100038B93022079B4B4505D2591C07911A70C4
:10392000F8E7CDF81C904046079B159AA3EB0803D7
:10393000136008B0BDE8F087F7B50029B4BF2D23A8
:103940002B230446B8BF4942092904F8022B4370CF
:1039500021DD0DF107031F460A2691FBF6F506FB54
:103960001511092D01F1300103F8011C03F1FF329B
:10397000294609DC3031023B02F8011CBB422246D9
:1039800004D3101A03B0F0BD1346E6E713F8012B79
:1039900004F8012BF2E7302319448370021DC17033
:1039A000EFE700002DE9F04F91B00C461A9F9346C7
:1039B0001E46054601F018FA036818460993FCF7FD
:1039C000C7FB00230E933B680A90073323F00703DD
:1039D00003F1080294F81880D4F800A03A60D3E903
:1039E0000023C4E91223D4E9127929F000430B9390
:1039F0004FF0FF32A64B38460B99FDF707F868BB2E
:103A00004FF0FF32A24B38460B99FCF7E1FF28BB81
:103A10000022002338464946FCF7D0FF10B12D2381
:103A200084F843309B4F9C4BB8F1470F98BF1F461B
:103A300003234FF0000923612AF00403236000965A
:103A40005B460FAA2146284600F0E2F9013040F01B
:103A500090804FF0FF3011B0BDE8F08F3A464B46F2
:103A600038464946FCF7D2FF10B18C4F8C4BDBE750
:103A700063684AF48062591C0DA80EA940D1062340
:103A800063604FF0000C0DF13303CDE9012363684F
:103A90002260CDE9030800933A464B46CDE9051C68
:103AA0002846FFF7EDFE08F0DF03472B074609D154
:103AB0000D9BD81C02DB6268934247DDA8F1020827
:103AC0005FFA88F8B8F1650F0D9924D8013942469C
:103AD00004F150000D91FFF72FFF0E9A8146131845
:103AE000012A236102DC2268D10701D50133236159
:103AF0009DF83330002BA2D02D2384F843309EE76D
:103B0000B8F1670F00F06E81B8F1470FB9D1002B03
:103B1000B7D10123B4E7B8F1660F19D10029636862
:103B20000CDD216113B92268D20702D501330B44A1
:103B300023610D9B4FF00009A365D9E713B92268F3
:103B4000D00701D50233F3E70123F1E74FF067080F
:103B5000DDE90D32934205DB22682361D107E8D508
:103B60000133E5E7002BCCBF0123C3F1020313446B
:103B7000DEE723685A0507D423693A4659462846A2
:103B8000B047013029D164E7B8F1650F40F2D78022
:103B9000D4E9120100220023FCF706FF88B30123B9
:103BA000404A59462846B04701303FF452AFDDE95C
:103BB0000D239A4202DB2368D8070ED5DDE90923DD
:103BC00059462846B04701303FF443AF002704F17F
:103BD0001A080E9B013BBB4209DC23689F0700F1DA
:103BE000FD80E0680F9B9842B8BF184633E7012379
:103BF000424659462846B04701303FF42AAF0137C4
:103C0000E7E70D9B002B2BDC0123264A594628466B
:103C1000B04701303FF41DAF0D9B23B90E9B13B984
:103C20002368D907D9D5DDE9092359462846B04785
:103C300001303FF40EAF4FF0000804F11A090D9B5C
:103C40005B42434501DC0E9B97E701234A465946F8
:103C50002846B04701303FF4FCAE08F10108EEE71A
:103C60000E9AA36D9A42A8BF1A46002A904607DD15
:103C7000134659463A462846B04701303FF4E9AE6C
:103C800004F11A034FF0000A28EAE8780B9315E0D4
:103C9000FFFFEF7F185A0008145A0008205A000846
:103CA0001C5A0008245A000801230B9A594628463A
:103CB000B04701303FF4CDAE0AF1010AD4F8589074
:103CC000A9EB08035345EFDCDDE90D239A424F448D
:103CD00014DB2368DA0711D40E9B0D99A3EB0902BC
:103CE000A3EB01099145A8BF9146B9F1000F0DDC86
:103CF000002729EAE97904F11A0818E0DDE9092327
:103D000059462846B0470130E6D1A2E64B463A462E
:103D100059462846B0470130EAD19AE60123424687
:103D200059462846B04701303FF493AE0137DDE9EC
:103D30000D239B1AA3EB0903BB42EFDC4DE70E9A60
:103D4000012A01DCDB0738D501233A4659462846CB
:103D5000B04701303FF47DAEDDE9092359462846DE
:103D6000B047013007F101073FF473AED4E9120107
:103D70000E9B002203F1FF380023FCF715FEC0B9AB
:103D800043463A4659462846B04701300DD160E6D1
:103D90000123424659462846B04701303FF459AE08
:103DA00001370E9B013BBB42F2DC4B4604F1500253
:103DB000E4E6002704F11A08F3E70123E1E7012311
:103DC000424659462846B04701303FF442AE0137DB
:103DD000E3680F9A9B1ABB42F1DC02E7002704F16B
:103DE0001908F5E7002B3FF494AE4FF0000CCDE935
:103DF000051C0DF133012260CDE90308CDE9012155
:103E000000933A464B462846FFF73AFD07464FE6F1
:103E10002DE9F04791461F468A680B690646934292
:103E2000B8BF1346C9F8003091F843200C46DDF8BE
:103E3000208012B10133C9F800302368990642BFCF
:103E4000D9F800300233C9F80030256815F00605AE
:103E500007D104F1190AE368D9F800209B1AAB4294
:103E600029DC94F843302268003318BF01239206FE
:103E70002ED404F1430239463046C047013021D0E8
:103E80002368E56803F00603042B18BF0025D9F862
:103E900000204FF0000908BFAD1AA368226908BFCF
:103EA00025EAE5759342C4BF9B1AED181A344D45B7
:103EB0001AD1002008E00123524639463046C04757
:103EC000013003D14FF0FF30BDE8F0870135C2E784
:103ED0003020E11881F843005A1C94F84510224420
:103EE000023382F84310C4E70123224639463046A4
:103EF000C0470130E6D009F10109D8E72DE9F043C8
:103F000001F1430C0C46097E85B06E291746064622
:103F100098460C9A00F0B38022D8632936D00AD88C
:103F2000002900F0B980582900F0838004F142058F
:103F300084F8421032E0642901D06929F6D1206862
:103F40001368050603F104012AD51B681160002BD4
:103F500003DA2D225B4284F843206F480A2239E0BD
:103F6000732900F09D8008D86F2920D07029DDD1F9
:103F7000236843F02003236003E0752917D07829D4
:103F8000D4D17823654884F8453055E0136804F1AE
:103F90004205191D1B68116084F8423001238CE032
:103FA0001B6810F0400F116018BF1BB2CFE71368F9
:103FB0002568181D1060280601D51B6802E06806F8
:103FC000FBD51B886F2914BF0A2208225248002102
:103FD00084F843106568002DA560C0F295802168C3
:103FE00021F004012160002B3DD1002D40F08E8096
:103FF0006546082A0BD12368DB0708D52369626868
:104000009A42DEBF302305F8013C05F1FF35ACEBE9
:1040100005032361CDF800803B4603AA21463046C4
:10402000FFF7F6FE01304DD14FF0FF3005B0BDE88F
:10403000F083394884F84510136821681D1D1B68FA
:1040400015600A060BD5CA0744BF41F02001216064
:104050001BB9226822F0200222601022B7E74D0629
:1040600048BF9BB2EFE76546B3FBF2F102FB1133A9
:10407000C35C05F8013D0B460029F5D1B9E713688B
:104080002568181D6169106028061B6801D5196034
:1040900002E06A06FBD51980002365462361B9E773
:1040A0001368191D11601D6862680021284600F020
:1040B000B1FE08B1401B606063682361002384F88F
:1040C0004330A7E723692A4639463046C0470130C6
:1040D000AAD023689B0713D4E068039B9842B8BF1B
:1040E0001846A3E701234A4639463046C047013007
:1040F0009AD00135E368039A9B1AAB42F2DCEBE7F6
:10410000002504F11909F5E7002BACD1037804F17F
:10411000420584F842306CE7265A0008375A0008F6
:104120000EB46FF0004100B59CB01DAB029006903C
:10413000079104910848094953F8042B0591006838
:1041400002A9019301F06AFA0022029B1A701CB0C6
:104150005DF804EB03B070470C0000200802FFFF7D
:104160002DE9F74F03690C698046A342C0F28480B1
:10417000013C01F1140700F1140657F8245056F8D9
:1041800024000135B0FBF5F54FEA840C06EB0C0377
:1041900007EB0C0901939DB34FF0000A3846B64671
:1041A000D34650F8042B93B205FB03A3120C4FEA3D
:1041B000134A05FB02A29BB2ABEB0303DEF800B08F
:1041C0004FEA124A1FFA8BFB5B441FFA82FBDEF8B0
:1041D00000208145CBEB124202EB23429BB243EA23
:1041E00002434FEA224B4EF8043BDAD256F80C3029
:1041F00033B9019B043B9E421A4631D3C8F81040A4
:10420000404601F035F8002826DB30464FF0000C20
:10421000013557F8041BD0F800E08BB2ACEB030378
:104220001FFA8EF213440A0CC2EB1E4202EB234229
:104230009BB243EA0243B9454FEA224C40F8043BA3
:10424000E7D256F8242006EB84032AB9043B9E42A9
:104250001A460BD3C8F81040284603B0BDE8F08FCB
:104260001268043B002AC9D1013CC4E71268043B30
:10427000002AEFD1013CEAE70020EEE70000000051
:104280002DE9F04F16461F46456A95B00446DDF805
:104290008480CDE902673DB9102000F0B3FD606273
:1042A000C0E901550560C560636A196851B15A6873
:1042B000012393404A608B60204600F0F8FD002205
:1042C000636A1A603B1EAFBF0023012223F0004344
:1042D0000393ACBFC8F80030C8F80020AE4BDDF83F
:1042E0000C8033EA08031BD142F20F73209A13604B
:1042F000029B23B9C8F31300002800F04585229BD8
:1043000053B9A64B21E0A64B06930833229A1360BB
:10431000069815B0BDE8F08FA04B06930333F5E780
:10432000DDE902670022002330463946FCF73CFBFA
:10433000824660B10123209A1360229B002B00F07B
:104340002085984B229A1360013B0693E0E712AB5D
:10435000019313AB009332463B46204601F000F830
:10436000C8F30A558346002D7DD0B046C7F313032A
:1043700043F07F5949F44019A5F2FF35CDF840A02C
:104380000022894B40464946FBF7EEFE7CA3D3E969
:104390000023FCF7A1F87CA3D3E90023FBF7E6FE9A
:1043A000064628460F46FCF72DF879A3D3E90023EB
:1043B000FCF792F802460B4630463946FBF7D6FE2C
:1043C00006460F46FCF738FB0022824600233046A3
:1043D0003946FCF7F3FA48B15046FCF713F8324679
:1043E0003B46FCF7E1FA08B90AF1FF3ABAF1160FB9
:1043F0005AD8DDE902236D4901EBCA01D1E9000178
:10440000FCF7FAFA002851D000230AF1FF3A0D9385
:10441000129B5D1B6B1E079343BF0023C5F101096F
:1044200007934FF00009BAF1000F41DB079BCDF86D
:1044300030A053440793002308931E9B092B00F2DE
:104440008F80052BC4BF043B1E931E9BC8BF002555
:10445000A3F10203D8BF0125032B00F28D80DFE812
:1044600003F07B7D2F6FDDE912531D4405F23240CE
:10447000202813DDC0F14000029B08FA00F805F285
:10448000124023FA00F048EA0000FBF7ABFF0123DB
:104490008046A1F1F879013D109371E7029BC0F1CC
:1044A000200003FA00F0F0E70123B0E70D90AFE73A
:1044B000CAF1000308930023A9EB0A090C93BCE797
:1044C000012309931F9B002B74DD9846049300225F
:1044D000666A7260042202F11400984271686ED913
:1044E000204600F0B0FC636A30601B68B8F10E0F24
:1044F000069300F2ED80002D00F0EA80DDE9022352
:10450000BAF1000FCDE90E2377DD284A0AF00F0338
:104510004FEA2A1602EBC303F006D3E90023CDE9E4
:104520000A2368D5DDE90E01214B0325D3E90823D1
:10453000FCF7FCF8CDE9020106F00F061C4F4FE036
:10454000012309931F9B534403F10108049343463D
:10455000012BB8BF0123BAE70023B2E70023F0E73D
:104560000125002309951E934FF0FF330022049389
:10457000984612231F92AAE701230993F4E700BF8C
:1045800061436F63A787D23FB3C8608B288AC63F59
:10459000FB799F501344D33F0000F07F515A00082D
:1045A000485A0008255A00080000F83F805A0008C1
:1045B000585A00080123049398461A46DAE7013155
:1045C0007160520087E7F10708D5DDE90A01D7E9F4
:1045D0000023FBF781FFCDE90A010135761008378A
:1045E000002EF0D1DDE90A23DDE90201FCF79EF897
:1045F000CDE902011BE00225A0E700F0A480DDE97F
:104600000E01CAF10006A04B06F00F0203EBC20335
:10461000D3E90023FBF760FF02250023CDE9020167
:104620009A4F3611002E40F08380002BE0D10D9B75
:10463000002B00F08A80DDE90223CDE90A23DDE9C1
:104640000A010022924BFCF7B9F900287DD0B8F19D
:10465000000F7AD0049B002B36DDDDE90A01002231
:104660008C4BFBF739FFCDE90201049E0AF1FF37BD
:1046700001352846FBF7C6FEDDE90223FBF72CFFD8
:104680000022854BFBF772FDA1F15075CDE90A01BF
:104690000B95002E5CD1DDE9020100227F4BFBF778
:1046A00063FD0A9A2B46CDE90201FCF7A5F9002823
:1046B00040F08182DDE902010A9A05F10043FCF72E
:1046C0007DF9002840F07582DDE90E23CDE9022353
:1046D000139B002BC0F24B81BAF10E0F00F3478100
:1046E000694B03EBCA03D3E90023CDE904231F9BE5
:1046F000002B80F2D780B8F1000F00F3D38040F098
:104700005782DDE904010022644BFBF7E5FEDDE999
:104710000223FCF767F946464746002840F02D8201
:10472000069B069A5D1C31230AF1010A137028E2E8
:10473000F20705D5D7E90023FBF7CEFE01230135AB
:10474000761008376EE7022571E75746464690E730
:104750004D4B03EBC60353E90201099B002B48D0E4
:1047600002460B4600204E49FBF7E0FFDDE90A2335
:10477000FBF7FAFCCDE90A01069DDDE90201FCF731
:104780005BF91190FBF73EFE02460B46DDE90201A4
:10479000FBF7EAFC119BCDE90201303305F8013B40
:1047A000DDE90A23FCF70AF9002863D1DDE90223D9
:1047B00000203749FBF7D8FCDDE90A23FCF7FEF8B7
:1047C000002840F0B580069BEB1A9E427FF77CAF35
:1047D000DDE90A0100222F4BFBF77EFE0022CDE926
:1047E0000A01DDE902012B4BFBF776FECDE9020160
:1047F000C3E7DDE90A23FBF76FFE069BCDE90A015B
:104800009D191E46DDE90201FCF716F91190FBF730
:10481000F9FD02460B46DDE90201FBF7A5FC119B01
:10482000CDE90201303306F8013BAE424FF0000201
:1048300024D1DDE90A011A4BFBF798FC02460B462E
:10484000DDE90201FCF7D8F8002871D1DDE90A237F
:1048500000201349FBF788FC02460B46DDE9020104
:10486000FCF7ACF800283FF42FAF15F8013C6A1EA6
:10487000302B01D0BA464AE01546F6E7054BFBF768
:104880002BFECDE90201BDE7805A0008585A000806
:104890000000F03F0000244000001C4000001440D5
:1048A0000000E03F069DDDE90267DDE904233046B4
:1048B0003946FBF73BFFFCF7BFF88146FBF7A2FD4B
:1048C000DDE90423FBF708FE02460B463046394675
:1048D000FBF74AFC09F1300605F8016B069E02461B
:1048E000AE1BB0450B4635D1FBF740FCDDE9042398
:1048F00006460F46FCF780F8C8B9DDE904233046C8
:104900003946FCF751F810B119F0010F0FD1594693
:10491000204600F0CCFA0023209A2B700AF1010304
:104920001360229B002B3FF4F3AC1D60F0E457466C
:1049300015F8012C6B1E392A06D1069A9A4207D126
:1049400030231370134601371A7801321A7091E739
:104950001D46EDE70022994BFBF7BEFD0022002328
:1049600006460F46FCF720F800289ED0CFE7099AAC
:10497000002A00F088801E9A012A6DDC109A002A15
:1049800066D003F233434D46089E079A01211A442C
:1049900020469944079200F02AFB0746002D0BDDC4
:1049A000079B002B08DDAB42A8BF2B46079AA9EB5B
:1049B0000309ED1AD31A0793089BEBB1099B002B4F
:1049C00065D08EB139463246204600F0AFFB5A46DC
:1049D00001460746204600F013FB59460A90204640
:1049E00000F065FA0A9B9B46089B9A1B04D0594627
:1049F000204600F09BFB83460121204600F0F7FA99
:104A00000C9B0646002B00F0C6811A460146204644
:104A100000F08CFB1E9B0646012B3EDC029B002B0C
:104A200037D1039BC3F31303002B34D1039B23F033
:104A300000431B0D1B052BB1079B09F10109013335
:104A40000793012308930C9B002B28D101202EE013
:104A5000129BC3F1360396E7089B08F1FF36B34279
:104A6000B7BF089B9E1BF21A0C9BBFBF08969B18F2
:104A70000C930026B8F1000FB9BFA9EB080500237D
:104A80004D46434681E7089E4D46099F86E7089AB2
:104A9000ADE70023D6E7029BD4E7002308933369F0
:104AA00006EB8303186900F054FAC0F12000079B5D
:104AB000184410F01F0047D0C0F12003042B3BDD49
:104AC000079BC0F11C008144054403440793B9F1DE
:104AD000000F05DD59464A46204600F075FB834627
:104AE000079B002B05DD31461A46204600F06CFB83
:104AF00006460D9B53B33146584600F0B9FB0028DB
:104B000024DA002359460A22204600F0E7F9099BDF
:104B10000AF1FF3A8346002B00F044810023394616
:104B20000A22204600F0DAF9049B0746002B4DDCF0
:104B30001E9B022B4ADD11E0C9D0079A1C331A4490
:104B400099441D441346C1E70346F6E7B8F1000F48
:104B500036DC1E9B022B33DDCDF81080049B63B93D
:104B600031460522204600F0B9F90146064658466E
:104B700000F07EFB00283FF7D3AD1F9B069D6FEA38
:104B8000030A4FF000093146204600F090F9002F4B
:104B90003FF4BDAEB9F1000F05D0B94503D0494689
:104BA000204600F084F93946204600F080F9AEE650
:104BB00000263746E1E7BA463746B1E50000244013
:104BC000099BCDF81080002B00F0F380002D05DD4F
:104BD00039462A46204600F0F7FA0746089B002B84
:104BE0004CD07968204600F02EF905463A6907F165
:104BF0000C01023292000C3000F01AF90122294611
:104C0000204600F0E1FAB9460746069B0793029B4F
:104C100003F00103089331465846FFF7A1FA4946CD
:104C2000054600F13008584600F022FB3A46029053
:104C30003146204600F036FBC368024603BB0146FE
:104C40000990584600F014FB0346099A1146204685
:104C5000099300F02CF9099BA3B91E9A92B9089AFE
:104C600082B9B8F1390F29D0029B002B01DD05F183
:104C70003108079B5D1C83F8008084E73846C2E753
:104C80000123E3E7029A002A04DB23D11E9A0ABB20
:104C9000089AFAB9002BECDD59460122204600F0B3
:104CA00093FA3146834600F0E3FA002803DCE0D1B2
:104CB00018F0010FDDD0B8F1390FD8D1079B079A52
:104CC0005D1C3923137015F8013C6A1E392B4DD039
:104CD000013352E0079A002B02F1010506DDB8F11D
:104CE000390FEBD008F10108079BC4E7069B049A33
:104CF000EB1A934205F8018C21D0594600230A2271
:104D0000204600F0EBF8B94583464FF000034FF022
:104D10000A024946204605D100F0E0F881460746E0
:104D2000079578E700F0DAF83946814600230A2231
:104D3000204600F0D3F80746F2E74FF00009594645
:104D40000122204600F040FA3146834600F090FAF6
:104D50000028B8DC02D118F0010FB4D115F8013CDD
:104D60006A1E302B7FF40FAF1546F7E7069B934280
:104D700005D13123069A0AF1010A137003E715469B
:104D8000A1E7174BFFF7E1BA229B002B7FF4BBAAE8
:104D9000144BFFF7DABA1E9B012B7FF73FAE0C9B3B
:104DA000089353E6049B002B03DC1E9B022B3FF76A
:104DB000D5AE069D31465846FFF7D2F9069B00F165
:104DC000300805F8018B049AEB1A9A42B5DD594672
:104DD00000230A22204600F081F88346EAE700BF5C
:104DE000245A0008485A0008044B1B68186A044BF0
:104DF000002808BF1846F030704700BF0C000020A4
:104E000070000020024B0146186800F053BB00BF41
:104E10000C00002010B5C9B202449042034601D1F3
:104E2000002303E01C7801308C42F6D1184610BDF7
:104E300010B5431E0A44914200D110BD11F8014B38
:104E400003F8014FF7E770B5456A04460E463DB9D1
:104E50001020FFF7D7FF6062C0E901550560C5600B
:104E6000656AEB6883B1636ADB6853F82600B8B9FA
:104E7000012101FA06F56A1D9200204600F0BFFAF2
:104E800060B1C0E901650EE021220421204600F056
:104E9000B6FA636AE860DB68002BE4D1002070BDDD
:104EA000026843F826200023C0E90333F7E770B512
:104EB000446A06460D463CB91020FFF7A3FF706216
:104EC000C0E901440460C4603DB1736A6A68DB688C
:104ED00053F82210296043F8225070BD2DE9F041AB
:104EE0001F4606460C4600230D6901F1140CDCF840
:104EF0000000013381B202FB0171000C0F0C02FBB8
:104F0000007089B201EB00419D424FEA10474CF816
:104F1000041BECDCD7B1A368AB4212DC61683046FD
:104F20000131FFF790FF8046226904F10C01023243
:104F300092000C30FFF77CFF21463046FFF7B7FFA9
:104F4000444604EB850301355F6125612046BDE8D9
:104F5000F081020C12040346B2B90304102013F0CE
:104F60007F4F04BF1B02083013F0704F04BF1B01BA
:104F7000043013F0404F04BF9B000230002B06DBCF
:104F80005B0003D5013070470020E8E72020704720
:104F90000368014613F007020BD0DA0723D4980701
:104FA00049BF5B089B0801200B605CBF0B600220BF
:104FB000704798B2A8B910201B0C13F0FF0F04BF64
:104FC0001B0A08301A0704BF1B0904309A0704BFE4
:104FD0009B080230DA0702D45B0806D001300B6070
:104FE00070471046E9E7002070472020704710B551
:104FF0000C460121FFF727FF01224461026110BD29
:105000002DE9F74F14460A69236988469A42BEBFC4
:105010000B46A0461C46D8F81070D4F81090D8F86B
:105020000830D8F8041007EB0906B342B8BF0131C5
:10503000FFF709FF00F114052B46002205EB860E51
:10504000734516D304F1140208F1140102EB89032D
:1050500001EB87070093009B019293420CD8002E2E
:1050600003DD5EF8043D002B5DD0066103B0BDE8B2
:10507000F08F43F8042BE3E7B2F800B0BBF1000F68
:1050800023D08946AC464FF0000859F8044BDCF8B1
:1050900000A0A3B21FFA8AFA0BFB03A34FEA144A3B
:1050A000DCF8004043444FEA14480BFB0A84E24614
:1050B00004EB13449BB243EA04434F454FEA1448C0
:1050C0004AF8043B2BD8CCF80480019B0432B3F897
:1050D00002A0BAF1000F20D08946A8464FF0000B7D
:1050E0002B68B9F800C0B8F802409BB20AFB0C4428
:1050F000C4465C4443EA04434CF8043B59F8043B7F
:10510000B8F804B01B0C0AFB03B34F4503EB144380
:105110004FEA134B05D8C8F8043004359BE7D44652
:10512000B3E7E046DDE7013E99E700002DE9F843EB
:10513000154612F0030206460F4607D0214C013AED
:10514000002354F82220FFF7C9FE0746AD1035D0E2
:10515000746A3CB91020FFF755FE7062C0E9014443
:105160000460C460D6F82480D8F808404CB940F2F6
:1051700071213046FFF73BFF00230446C8F80800C2
:1051800003604FF00008EB070AD539462246304647
:10519000FFF736FF814639463046FFF788FE4F4617
:1051A0006D100BD0206838B9224621463046FFF7F3
:1051B00027FF2060C0F800800446E4E73846BDE8D9
:1051C000F88300BF485B00082DE9F0470C4607460E
:1051D000164623694FEA621A0AEB03094968A36875
:1051E00009F10105AB4232DB3846FFF72CFE002304
:1051F00080461A4600F1140153452BDB20692AEA48
:10520000EA7A04F1140316F01F0201EB8A0103EBA2
:10521000800C25D00020C2F1200E8A461E689640E0
:1052200030434AF8040B53F8040B9C4520FA0EF067
:1052300014D8486008B109F10205013D3846C8F8A4
:1052400010502146FFF733FE4046BDE8F08701319C
:105250005B00C7E741F823200133CDE75146DCE787
:10526000043953F8042B9C4541F8042FF9D8E4E79E
:1052700003690A6930B59B1A0CD1920014301431BD
:105280008418114454F8045D51F8042D954203D05C
:1052900005D30123184630BDA042F3D3FAE74FF0FF
:1052A000FF33F7E72DE9F0470D460746114628463C
:1052B0001446FFF7DDFF061E08D131463846FFF7DA
:1052C000C2FD0123C0E90436BDE8F087A4BF234630
:1052D0002C4638466168A6BF1D4600260126FFF70A
:1052E000B2FD4FF0000EC6602B69266904F114026E
:1052F00005F1140902EB860709EB830800F114019C
:1053000052F804AB59F8045B1FFA8AF37344ACB249
:105310001B1B2C0CC4EB1A4404EB23449BB24FEA36
:10532000244EC84543EA0444944641F8044BE7D868
:10533000BC4504D351F8043D83B10661C4E75CF871
:10534000044BA2B27244131403EB144392B242EA28
:1053500003424FEA234E41F8042BE9E7013EE9E717
:105360002DE9F3411C46DDE9086501219046FFF770
:105370006AFDC4F31302C4F30A54074634BB019216
:10538000B8F1000227D002A840F8082DFFF700FE70
:105390000099F0B1019AC0F1200302FA03F30B4324
:1053A000C2407B610192019B002B14BF02210121AD
:1053B000BB613961C4B1A4F2334404443460C0F128
:1053C00035002860384602B0BDE8F08142F4801212
:1053D000D5E77961E7E701A8FFF7DAFD0121019B35
:1053E00039617B612030E5E7A0F2324007EB8103B1
:1053F00030601869FFF7ADFDC0EB4110E1E738B54B
:1054000002FB01F4214600F055F8054618B122468A
:105410000021FEF72DFA284638BD000038B50546B4
:10542000002943D051F8043C0C1F002BB8BFE418EE
:1054300000F027FA1E4A1368104633B963601460FF
:105440002846BDE8384000F01DBAA3420BD92168B8
:105450006218934201BF1A685B6852182260636049
:105460000460EDE713465A680AB1A242FAD91968F6
:105470005818A0420BD12068014458188242196084
:10548000DED110685268014419605A60D8E702D929
:105490000C232B60D4E7206821188A4201BF1168D1
:1054A00052680918216062605C60C9E738BD00BFBE
:1054B000FC01002070B5CD1C25F0030508350C2D2E
:1054C00038BF0C25002D064601DBA94203D90C2369
:1054D0003360002070BD00F0D4F9214A14682146E1
:1054E00091B9204C23681BB9304600F08FF9206039
:1054F0002946304600F08AF9431C24D10C2330465B
:10550000336000F0BFF9E4E70B685B1B18D40B2B8A
:105510000FD90B60CC18CD50304600F0B3F904F130
:105520000B00231D20F00700C31AD3D05A42E250CB
:10553000D0E74B688C4216BF636013600C46EBE704
:105540000C464968CCE7C41C24F00304A04205D0F3
:10555000211A304600F05AF90130CFD02560DBE740
:10556000FC010020000200202DE9F0478E688246F1
:105570009E420C469046994637D88A8912F4906F1D
:1055800031D00223256809696F1A656905EB450565
:1055900095FBF3F509F101033B449D4238BF1D46DD
:1055A000530530D52946FFF785FF064650B90C2331
:1055B0004FF0FF30CAF80030A38943F04003A381C5
:1055C000BDE8F0873A462169FFF732FCA38923F44E
:1055D000906343F08003A38126613E4426604E46DB
:1055E0006561ED1BA5604E4500D94E4632464146E9
:1055F000206800F02DF9A36800209B1BA36023689E
:105600001E442660DCE72A4600F03DF906460028E5
:10561000E2D121695046FFF701FFC8E72DE9F04FBD
:105620001D468B899DB01F0680460C4616460FD539
:105630000B696BB94021FFF73DFF2060206128B95D
:105640000C23C8F800304FF0FF30C8E040236361FE
:105650000023099320238DF8293030234FF0010BCC
:105660008DF82A30039537463D4615F8013B0BB1BE
:10567000252B3ED1B7EB060A0BD0534632462146C6
:105680004046FFF771FF013000F0A480099B5344AE
:1056900009933B78002B00F09D8000234FF0FF32F0
:1056A000CDE90523049307938DF853301A932F46C1
:1056B000052217F8011B5048FFF7ACFB049BD0B93B
:1056C000D90644BF20228DF853201A0744BF2B224D
:1056D0008DF853202A782A2A15D02F4600200A2533
:1056E000079A394611F8013B303B092B4DD9B8B127
:1056F0000FE02F46B8E7404A3D46801A0BFA00F00B
:1057000018430490D3E7039A111D12680391002AED
:1057100001DB079204E0524243F002030792049334
:105720003B782E2B0CD17B782A2B33D1039B02376D
:105730001A1D1B680392002BB8BF4FF0FF3305936F
:105740002E4D032239782846FFF764FB38B14023F9
:10575000401B03FA00F0049B01370343049339789C
:10576000062227487E1C8DF82810FFF753FB0028DF
:1057700038D0244B13BB039B073323F007030833B4
:105780000393099B4B4409936DE705FB023201200B
:105790000F46A6E700230A25194601370593384628
:1057A00010F8012B303A092A03D9002BC8D00591F3
:1057B000C6E705FB012101230746F0E703AB009391
:1057C0002246114B04A94046FEF7ECF8B0F1FF3F2A
:1057D0008146D6D1A3895B063FF535AF09981DB048
:1057E000BDE8F08F03AB00932246074B04A9404667
:1057F000FEF784FBEAE700BF545B00085A5B000831
:105800005E5B0008A53900086955000838B500231B
:10581000054C054608462360FBF70CFE431C02D1ED
:10582000236803B12B6038BD7802002082B001B933
:1058300001A942B14BB113780B601278101C18BF4C
:10584000012002B070471046FBE76FF00100F8E757
:10585000884210B501EB020307D8421E99420AD0D4
:1058600011F8014B02F8014FF8E78342F5D981188E
:10587000D21AD34200D110BD13F8014D01F8014DE9
:10588000F7E770477047F8B5074614460E4621B94A
:10589000BDE8F8401146FFF70DBE22B9FFF7BEFD87
:1058A00025462846F8BD00F021F8A0420FD2214637
:1058B0003846FFF7FFFD05460028F2D03146224664
:1058C000FFF7B6FA31463846FFF7A8FDE9E7354657
:1058D000E7E749B1FF2A8BBF8A230A7003600120E2
:1058E00088BF4FF0FF3070470846704751F8043CBE
:1058F000181F002BBCBF0B58C0187047F8B500BF6D
:10590000F8BC08BC9E467047F8B500BFF8BC08BCA0
:045910009E467047F8
:105918002566000074656D70657261747572653A0C
:10592800000000000A0D000002030405060708092C
:105938000A0B0C0D0E0F10100102000002030405E3
:10594800060708090A0B0C0D0E0F101001020000C3
:105958006A0C0000430C00001B0C0000F30B000055
:10596800C90B00009F0B0000740B0000480B0000DF
:105978001C0B0000EF0A0000C20A0000940A000095
:10598800660A0000370A0000090A0000D909000069
:10599800AA0900007B0900004B0900001B09000050
:1059A800EC080000BC0800008D0800005D0800003D
:1059B8002E08000000080000D1070000A30700001F
:1059C80075070000480700001B070000EF060000ED
:1059D800C3060000980600006D060000430600009C
:1059E8001A060000F2050000CA050000A205000022
:1059F8007C05000000000000000000000102030414
:105A0800060708090000000001020304494E460089
:105A1800696E66004E414E006E616E003000303196
:105A280032333435363738394142434445460030FD
:105A3800313233343536373839616263646566002C
:105A4800496E66696E697479004E614E0000000007
:105A58000080E03779C34143176E05B5B5B8934662
:105A6800F5F93FE9034F384D321D30F94877825A2E
:105A78003CBF737FDD4F1575000000000000F03F4C
:105A88000000000000002440000000000000594011
:105A98000000000000408F40000000000088C34064
:105AA80000000000006AF8400000000080842E41D9
:105AB80000000000D01263410000000084D7974125
:105AC8000000000065CDCD41000000205FA002422B
