:100000000C9461000C9473000C9473000C947300B6
:100010000C9473000C9473000C9473000C94730094
:100020000C9473000C9473000C9473000C94730084
:100030000C9473000C9473000C9473000C94730074
:100040000C942F010C9473000C9473000C947300A7
:100050000C9473000C9473000C9473000C94730054
:100060000C9473000C94730000000000240027001F
:100070002A0000000000250028002B0000000000DE
:1000800023002600290004040404040404040202DA
:100090000202020203030303030301020408102007
:1000A0004080010204081020010204081020000012
:1000B0000008000201000003040700000000000027
:1000C000000011241FBECFEFD8E0DEBFCDBF21E07E
:1000D000A0E0B1E001C01D92A930B207E1F70E9493
:1000E00079010C9446020C940000833081F028F4CE
:1000F000813099F08230A1F008958730A9F08830DE
:10010000B9F08430D1F4809180008F7D03C080915C
:1001100080008F7780938000089584B58F7702C028
:1001200084B58F7D84BD08958091B0008F7703C022
:100130008091B0008F7D8093B00008951F93CF937E
:10014000DF93282F30E0F901E255FF4F8491F90148
:10015000E656FF4FD491F901EA57FF4FC491CC23E3
:10016000C9F0162F81110E947500EC2FF0E0EE0F00
:10017000FF1FEE58FF4FA591B4918FB7F89411115E
:1001800005C09C91ED2FE095E92302C0EC91ED2B89
:10019000EC938FBFDF91CF911F910895CF93DF93A1
:1001A00090E0FC01E656FF4F2491FC01EA57FF4F17
:1001B0008491882361F190E0880F991FFC01E85930
:1001C000FF4FC591D491FC01EE58FF4FA591B4911A
:1001D000611109C09FB7F894888120958223888394
:1001E000EC912E230BC0623061F49FB7F8943881F4
:1001F000822F809583238883EC912E2B2C939FBF95
:1002000006C08FB7F894E8812E2B28838FBFDF912B
:10021000CF9108953FB7F894809105019091060120
:10022000A0910701B091080126B5A89B05C02F3FFA
:1002300019F00196A11DB11D3FBFBA2FA92F982F0C
:100240008827820F911DA11DB11DBC01CD0142E087
:10025000660F771F881F991F4A95D1F708951F923F
:100260000F920FB60F9211242F933F938F939F936A
:10027000AF93BF938091010190910201A09103017E
:10028000B09104013091000123E0230F2D3720F4B9
:100290000196A11DB11D05C026E8230F0296A11DE0
:1002A000B11D209300018093010190930201A0935E
:1002B0000301B09304018091050190910601A09182
:1002C0000701B09108010196A11DB11D80930501A0
:1002D00090930601A0930701B0930801BF91AF91DD
:1002E0009F918F913F912F910F900FBE0F901F9074
:1002F0001895789484B5826084BD84B5816084BD8E
:1003000085B5826085BD85B5816085BD80916E00B3
:10031000816080936E0010928100809181008260E4
:100320008093810080918100816080938100809121
:1003300080008160809380008091B1008460809310
:10034000B1008091B00081608093B00080917A000C
:10035000846080937A0080917A00826080937A0032
:1003600080917A00816080937A0080917A00806821
:1003700080937A001092C10062E088E00E94CE0073
:1003800061E089E00E94CE0061E08AE00E94CE0038
:100390008FEF8AB91BB8C6EBD0E002EA10E05EE846
:1003A000E52E50E0F52E40E0C42E40E0D42E60E073
:1003B0008AE00E949E0061E08AE00E949E0037E091
:1003C000A32EB12C912CFE018491F8017490F701B9
:1003D00084908820A9F081110E947500882D90E0FA
:1003E000880F991F84589F4FFC01A591B4918C915F
:1003F000782231E020E009F430E0832F922F02C010
:1004000080E090E00A2C02C0880F991F0A94E2F75E
:100410003C016928962C60E089E00E949E0061E022
:1004200089E00E949E00F1E0AF1AB10808F0CBCF3E
:100430006BB80E940A012B013C0184E1882E912CAB
:10044000A12CB12C0E940A01DC01CB018419950971
:10045000A609B709883E9340A105B10558F081E08F
:10046000881A9108A108B108E8EE4E0EE3E05E1E7E
:10047000611C711C81149104A104B10419F7C11409
:10048000D10409F494CF0E9400008DCFF894FFCFDF
:00000001FF
