:1002E5000B2D3F065B4F666D7D077F6F0004240075
:1002F5000000000128000429000000000438000067
:080305000000041000000000DC
:0F030E007D9B7C03ED1D70011C144C70F7DFF11B
:01031D0022BD
:10000300E4FEE4F58004A806088002C333D8FCF4B8
:10001300F5A074242EF8E6242DF8E6F580EE7002A0
:0B002300D2877F0412030E0EBE04D72C
:01002E0022AF
:1002BB00E4F593F5947591FFF592F595F59653A2A8
:1002CB00CFF5D8F5E9F5F9F5EBF5FB75D90175DB4C
:0A02DB0021D2DED2AF12000380FB37
:03003B0002003E82
:0D003E00C0E0C0F0C083C082C0D075D00803
:10004B008528C085F9E885FBF830DF04C2DF052879
:10005B0020D903020145C2D9AF3BAE3AAD39AC381A
:10006B008F2C8E2B8D2A8C29AFFBEF7D00FCAF28BC
:10007B007E00EF7810C333CE33CED8F92DFFEE3C94
:10008B00FEADEB7C00EF2DFFEC3EFEE48F3B8E3A9A
:10009B00F539F538C3E53B952CF517E53A952BF576
:1000AB0016E539952AF515E5389529F514AB17AAF8
:1000BB0016A915A8147F407E427D0F12018C8F402C
:1000CB008E3F8D3E8C3DE4FFFEFDFCAB40AA3FA96D
:1000DB003EA83DC312021E6061AF40AE3FAD3EACC9
:1000EB003DAB13AA12A911A810C312021E604B85B7
:1000FB004013853F12853E11853D10753C03E53C51
:10010B00F46037E47B0AFAF9F8AF40AE3FAD3EAC92
:10011B003D12018CAF0B7424253CF8A60FAF40AEFB
:10012B003FAD3EAC3DE47B0AFAF9F812018C8F40EF
:0A013B008E3F8D3E8C3D153C80C4C4
:0B014500D0D0D082D083D0F0D0E032C8
:0300000002022FCA
:0C022F00787FE4F6D8FD7581400202766D
:1001500075F008758200EF2FFFEE33FECD33CDCC66
:1001600033CCC58233C5829BED9AEC99E5829840E9
:100170000CF582EE9BFEED9AFDEC99FC0FD5F0D6C6
:10018000E4CEFBE4CDFAE4CCF9A88222B800C1B9F0
:100190000059BA002DEC8BF084CFCECDFCE5F0CB2E
:1001A000F97818EF2FFFEE33FEED33FDEC33FCEB67
:1001B00033FB10D703994004EB99FB0FD8E5E4F922
:1001C000FA227818EF2FFFEE33FEED33FDEC33FC0F
:1001D000C933C910D7059BE99A4007EC9BFCE99A03
:1001E000F90FD8E0E4C9FAE4CCFB2275F010EF2F48
:1001F000FFEE33FEED33FDCC33CCC833C810D70748
:100200009BEC9AE899400AED9BFDEC9AFCE899F882
:0E0210000FD5F0DAE4CDFBE4CCFAE4C8F92215
:10021E00EB9FF5F0EA9E42F0E99D42F0E89C45F036
:01022E0022AD
:10023B000202BBE493A3F8E493A34003F68001F21C
:10024B0008DFF48029E493A3F85407240CC8C333C4
:10025B00C4540F4420C8834004F456800146F6DF93
:10026B00E4800B01020408102040809002E5E47E3C
:10027B00019360BCA3FF543F30E509541FFEE49388
:10028B00A360010ECF54C025E060A840B8E493A34F
:10029B00FAE493A3F8E493A3C8C582C8CAC583CA7A
:1002AB00F0A3C8C582C8CAC583CADFE9DEE780BE32
:01030D0000EF
:00000001FF
