:020000040800F2
:1000000000280020FD150008411500084D150008C6
:1000100053150008591500085F150008000000007E
:10002000000000000000000000000000651500084E
:1000300071150008000000007D15000889150008F2
:100040004516000845160008451600084516000824
:100050004516000845160008451600084516000814
:100060004516000845160008451600084516000804
:1000700045160008451600084516000845160008F4
:1000800045160008451600084516000845160008E4
:1000900045160008451600084516000845160008D4
:1000A00045160008451600084516000845160008C4
:1000B0004516000845160008000000004516000817
:1000C000451600080000000000000000451600086A
:1000D000000000004516000845160008000000005A
:1000E00045160008451600084516000800000000E7
:1000F0000000000000000000000000000000000000
:0C01000000000000000000005FF808F1A3
:10010C0010B5054C237833B9044B13B10448AFF345
:10011C0000800123237010BD0C00002000000000A3
:10012C00A016000808B5034B1BB103490348AFF3F5
:10013C00008008BD0000000010000020A016000880
:10014C0080B500AF084B1B68074A43F010031360DF
:10015C00032000F029F9002000F008F801F0B8F9AC
:10016C000023184680BD00BF0020024080B582B03D
:10017C0000AF7860124B1A68124B1B7819464FF47B
:10018C007A73B3FBF1F3B2FBF3F3184600F033F9D7
:10019C000346002B01D001230EE07B680F2B0AD8FD
:1001AC00002279684FF0FF3000F009F9064A7B68AD
:1001BC001360002300E0012318460837BD4680BDBC
:1001CC0008000020040000200000002080B400AFD4
:1001DC00054B1B781A46054B1B681344034A1360E6
:1001EC0000BFBD4680BC70470400002028000020E2
:1001FC0080B400AF024B1B681846BD4680BC7047EC
:10020C002800002080B584B000AF7860FFF7F0FFC5
:10021C00B8607B68FB60FB68B3F1FF3F05D0094B0E
:10022C001B781A46FB681344FB6000BFFFF7E0FF26
:10023C000246BB68D31AFA689A42F7D800BF103747
:10024C00BD4680BD0400002080B485B000AF78604E
:10025C007B6803F00703FB600C4BDB68BB60BA6880
:10026C004FF6FF031340BB60FB681A02BB681343D5
:10027C0043F0BF6343F40033BB60044ABB68D360F4
:10028C0000BF1437BD4680BC704700BF00ED00E0D6
:10029C0080B400AF044BDB681B0A03F0070318465D
:1002AC00BD4680BC704700BF00ED00E080B483B059
:1002BC0000AF03463960FB7197F90730002B0BDA5E
:1002CC003B68DAB20C49FB7903F00F03043B1201D3
:1002DC00D2B20B441A7609E03B68DAB2074997F9B7
:1002EC0007301201D2B20B4483F8002300BF0C3745
:1002FC00BD4680BC704700BF00ED00E000E100E0AF
:10030C0080B489B000AFF860B9607A60FB6803F024
:10031C000703FB61FB69C3F10703042B28BF04230C
:10032C00BB61FB690433062B02D9FB69033B00E07C
:10033C0000237B614FF0FF32BB6902FA03F3DA430F
:10034C00BB681A407B699A404FF0FF317B6901FA18
:10035C0003F3D9437B680B40134318462437BD463F
:10036C0080BC704780B582B000AF78607B68013B81
:10037C00B3F1807F01D301230FE00A4A7B68013B74
:10038C0053600F214FF0FF30FFF790FF054B002219
:10039C009A60044B07221A60002318460837BD46A2
:1003AC0080BD00BF10E000E080B582B000AF786087
:1003BC007868FFF749FF00BF0837BD4680BD80B5A0
:1003CC0086B000AF0346B9607A60FB7300237B6193
:1003DC00FFF75EFF78617A68B9687869FFF790FF7C
:1003EC00024697F90F3011461846FFF75FFF00BF22
:1003FC001837BD4680BD80B582B000AF7860786894
:10040C00FFF7B0FF034618460837BD4680BD000015
:10041C0080B48BB000AF786039600023FB6100239F
:10042C00BB6100237B6100233B6200233B61002303
:10043C007B6221E101227B6A02FA03F3FB613B68D8
:10044C001B68FA691340BB61BA69FB699A4240F0B8
:10045C0010813B685B68122B34D0122B0DD8022B09
:10046C002BD0022B04D8002B31D0012B1CD048E010
:10047C00032B43D0112B1BD043E0844A934226D04C
:10048C00824A934206D8824A934220D0814A9342B0
:10049C001DD036E0804A934219D0804A934216D040
:1004AC007F4A934213D02CE03B68DB683B6228E028
:1004BC003B68DB6804333B6223E03B68DB68083352
:1004CC003B621EE03B68DB680C333B6219E03B6827
:1004DC009B68002B02D104233B6212E03B689B68B3
:1004EC00012B05D108233B627B68FA691A6108E08D
:1004FC0008233B627B68FA695A6102E000233B6285
:10050C0000BFBB69FF2B01D87B6801E07B6804331B
:10051C00FB60BB69FF2B02D87B6A9B0002E07B6A05
:10052C00083B9B003B61FB681A680F213B6901FA91
:10053C0003F3DB431A40396A3B6901FA03F31A43AC
:10054C00FB681A603B685B6803F08053002B00F07B
:10055C009080544B9B69534A43F001039361514B78
:10056C009B6903F00103BB60BB684F4A7B6A9B0825
:10057C00023352F823307B617B6A03F003039B0048
:10058C000F2202FA03F3DB437A6913407B617B6829
:10059C00464A93420DD07B68454A934207D07B680C
:1005AC00444A934201D1022304E0032302E00123D5
:1005BC0000E000237A6A02F00302920093407A6909
:1005CC0013437B6138497B6A9B0802337A6941F893
:1005DC0023203B685B6803F48033002B06D0364B3A
:1005EC001A683549BB6913430B6006E0324B1A6835
:1005FC00BB69DB43304913400B603B685B6803F419
:10060C000033002B06D02C4B5A682B49BB69134383
:10061C004B6006E0284B5A68BB69DB432649134004
:10062C004B603B685B6803F48013002B06D0224BB5
:10063C009A682149BB6913438B6006E01E4B9A688C
:10064C00BB69DB431C4913408B603B685B6803F45C
:10065C000013002B06D0184BDA681749BB691343FB
:10066C00CB6006E0144BDA68BB69DB4312491340DC
:10067C00CB607B6A01337B627B6A0F2B7FF6DAAE31
:10068C0000BF2C37BD4680BC704700BF0000211056
:10069C000000111000001210000031100000321088
:1006AC000000221000100240000001400008014030
:1006BC00000C0140001001400004014080B485B0E2
:1006CC0000AF78600B467B807B689A687B88134010
:1006DC00002B02D00123FB7301E00023FB73FB7B97
:1006EC0018461437BD4680BC704780B483B000AF49
:1006FC0078600B467B8013467B707B78002B03D095
:10070C007A887B681A6103E07B881A047B681A611B
:10071C0000BF0C37BD4680BC7047000080B586B06A
:10072C0000AF786000233B617B681B6803F001031A
:10073C00002B00F08780924B5B6803F00C03042BBA
:10074C000CD08F4B5B6803F00C03082B12D18C4B35
:10075C005B6803F48033B3F5803F0BD1884B1B6887
:10076C0003F40033002B6CD07B685B68002B68D1E2
:10077C0001232DE27B685B68B3F5803F06D1804B8B
:10078C001B687F4A43F4803313602EE07B685B6800
:10079C00002B0CD17A4B1B68794A23F480331360FD
:1007AC00774B1B68764A23F4802313601DE07B682B
:1007BC005B68B3F5A02F0CD1714B1B68704A43F4E6
:1007CC00802313606E4B1B686D4A43F480331360B7
:1007DC000BE06B4B1B686A4A23F480331360684B45
:1007EC001B68674A23F4802313607B685B68002BCB
:1007FC0013D0FFF7FDFC386108E0FFF7F9FC024667
:10080C003B69D31A642B01D90323E1E15C4B1B68D0
:10081C0003F40033002BF0D014E0FFF7E9FC38614F
:10082C0008E0FFF7E5FC02463B69D31A642B01D9BB
:10083C000323CDE1524B1B6803F40033002BF0D1A2
:10084C0000E000BF7B681B6803F00203002B63D041
:10085C004B4B5B6803F00C03002B0BD0484B5B68D5
:10086C0003F00C03082B1CD1454B5B6803F480335D
:10087C00002B16D1424B1B6803F00203002B05D052
:10088C007B681B69012B01D00123A1E13C4B1B6848
:10089C0023F0F8027B685B69DB00394913430B607A
:1008AC003AE07B681B69002B20D0364B01221A6082
:1008BC00FFF79EFC386108E0FFF79AFC02463B69A3
:1008CC00D31A022B01D9032382E12D4B1B6803F0B1
:1008DC000203002BF0D02A4B1B6823F0F8027B6834
:1008EC005B69DB00264913430B6015E0254B0022A6
:1008FC001A60FFF77DFC386108E0FFF779FC0246CF
:10090C003B69D31A022B01D9032361E11C4B1B68F1
:10091C0003F00203002BF0D17B681B6803F0080383
:10092C00002B39D07B689B69002B19D0164B012208
:10093C001A60FFF75DFC386108E0FFF759FC0246CE
:10094C003B69D31A022B01D9032341E10C4B5B6A9F
:10095C0003F00203002BF0D0012000F0B1FA1BE0F1
:10096C00094B00221A60FFF743FC38610EE0FFF7D9
:10097C003FFC02463B69D31A022B07D9032327E11C
:10098C00001002400000424280044242924B5B6ADB
:10099C0003F00203002BEAD17B681B6803F004030D
:1009AC00002B00F0A6800023FB758B4BDB6903F05A
:1009BC008053002B0DD1884BDB69874A43F0805361
:1009CC00D361854BDB6903F08053FB60FB6801232B
:1009DC00FB75824B1B6803F48073002B18D17F4B83
:1009EC001B687E4A43F480731360FFF701FC386187
:1009FC0008E0FFF7FDFB02463B69D31A642B01D9D3
:100A0C000323E5E0754B1B6803F48073002BF0D0D7
:100A1C007B68DB68012B06D16F4B1B6A6E4A43F077
:100A2C00010313622DE07B68DB68002B0CD16A4B51
:100A3C001B6A694A23F001031362674B1B6A664AFF
:100A4C0023F0040313621CE07B68DB68052B0CD1DC
:100A5C00614B1B6A604A43F0040313625E4B1B6AD2
:100A6C005D4A43F0010313620BE05B4B1B6A5A4A6D
:100A7C0023F001031362584B1B6A574A23F00403FB
:100A8C0013627B68DB68002B15D0FFF7B1FB386174
:100A9C000AE0FFF7ADFB02463B69D31A41F28832FC
:100AAC00934201D9032393E04B4B1B6A03F00203DF
:100ABC00002BEED014E0FFF79BFB38610AE0FFF748
:100ACC0097FB02463B69D31A41F28832934201D913
:100ADC0003237DE0404B1B6A03F00203002BEED195
:100AEC00FB7D012B05D13C4BDB693B4A23F080534A
:100AFC00D3617B68DB69002B69D0374B5B6803F0F3
:100B0C000C03082B61D07B68DB69022B46D1344B7C
:100B1C0000221A60FFF76CFB386108E0FFF768FBF6
:100B2C0002463B69D31A022B01D9032350E02A4B0E
:100B3C001B6803F00073002BF0D17B681B6AB3F5C4
:100B4C00803F08D1244B5B6823F400327B689B68A0
:100B5C00214913434B60204B5B6823F474127B6870
:100B6C00196A7B685B6A0B431B4913434B601C4B34
:100B7C0001221A60FFF73CFB386108E0FFF738FBF5
:100B8C0002463B69D31A022B01D9032320E0124BF6
:100B9C001B6803F00073002BF0D018E0104B002200
:100BAC001A60FFF725FB386108E0FFF721FB0246CE
:100BBC003B69D31A022B01D9032309E0064B1B68AE
:100BCC0003F00073002BF0D101E0012300E00023BF
:100BDC0018461837BD4680BD00100240007000401A
:100BEC006000424280B584B000AF78603960002369
:100BFC00FB607E4B1B6803F007033A689A4210D9DE
:100C0C007A4B1B6823F0070278493B6813430B604F
:100C1C00764B1B6803F007033A689A4201D0012314
:100C2C00E0E07B681B6803F00203002B20D07B689C
:100C3C001B6803F00403002B05D06D4B5B686C4AFA
:100C4C0043F4E06353607B681B6803F00803002BDC
:100C5C0005D0674B5B68664A43F460535360644B42
:100C6C005B6823F0F0027B689B68614913434B601F
:100C7C007B681B6803F00103002B6AD07B685B6800
:100C8C00012B07D15A4B1B6803F40033002B15D1F1
:100C9C000123A7E07B685B68022B07D1544B1B68D0
:100CAC0003F00073002B09D101239BE0504B1B6810
:100CBC0003F00203002B01D1012393E04C4B5B6842
:100CCC0023F003027B685B68494913434B60FFF7D1
:100CDC008FFAF8607B685B68012B12D10AE0FFF792
:100CEC0087FA0246FB68D31A41F28832934201D943
:100CFC00032377E03E4B5B6803F00C03042BEED12F
:100D0C0027E07B685B68022B1DD10AE0FFF770FAC5
:100D1C000246FB68D31A41F28832934201D903236D
:100D2C0060E0334B5B6803F00C03082BEED110E052
:100D3C00FFF75EFA0246FB68D31A41F288329342FF
:100D4C0001D903234EE02A4B5B6803F00C03002B04
:100D5C00EED1264B1B6803F007033A689A4210D277
:100D6C00224B1B6823F0070220493B6813430B609E
:100D7C001E4B1B6803F007033A689A4201D001230B
:100D8C0030E07B681B6803F00403002B08D0184B81
:100D9C005B6823F4E0627B68DB68154913434B60A6
:100DAC007B681B6803F00803002B09D0104B5B68B1
:100DBC0023F460527B681B69DB000D4913434B60C5
:100DCC0000F01CF801460A4B5B681B0903F00F038B
:100DDC00084AD35C21FA03F3074A13600020FFF79B
:100DEC00C5F9002318461037BD4680BD00200240CF
:100DFC0000100240DC1600080800002090B48AB0F5
:100E0C0000AF2A4B3C1D0FCB84E80F00284B1B88EE
:100E1C003B800023FB610023BB6100237B6200232A
:100E2C007B6100233B62234B5B68FB61FB6903F036
:100E3C000C03042B02D0082B03D02DE01E4B3B627D
:100E4C002DE0FB699B0C03F00F0307F12802134400
:100E5C0013F8243C7B61FB6903F48033002B13D023
:100E6C00144B5B685B0C03F0010307F1280213447D
:100E7C0013F8283CBB617B690F4A02FB03F2BB6988
:100E8C00B2FBF3F37B6204E07B690C4A02FB03F3D5
:100E9C007B627B6A3B6202E0074B3B6200BF3B6AB2
:100EAC0018462837BD4690BC704700BFB8160008DE
:100EBC00C81600080010024000127A0000093D001C
:100ECC0080B485B000AF78600A4B1B680A4AA2FB5D
:100EDC0003235B0A7A6802FB03F3FB6000BFFB6829
:100EEC005A1EFA60002BF9D100BF1437BD4680BCE6
:100EFC00704700BF08000020D34D621080B582B04F
:100F0C0000AF1023FB71FFF71BF900F0B7F900F0ED
:100F1C00F1F901220821C548FFF7E7FB0022012166
:100F2C00C248FFF7E2FB1021C048FFF7C7FB03469E
:100F3C00002B10D11420FFF765F90023FB7100BFC3
:100F4C001021BA48FFF7BAFB0346002BF8D0142047
:100F5C00FFF758F946E02021B448FFF7AFFB0346F2
:100F6C00002B10D11420FFF74DF90123FB7100BFAA
:100F7C002021AE48FFF7A2FB0346002BF8D014202B
:100F8C00FFF740F92EE04021A848FFF797FB0346F6
:100F9C00002B10D11420FFF735F90223FB7100BF91
:100FAC004021A248FFF78AFB0346002BF8D01420FF
:100FBC00FFF728F916E080219C48FFF77FFB0346DA
:100FCC00002B0FD11420FFF71DF90323FB7100BF79
:100FDC0080219648FFF772FB0346002BF8D01420B3
:100FEC00FFF710F9012201219048FFF77EFB002248
:100FFC0002218E48FFF779FB10218C48FFF75EFB2E
:10100C000346002B10D11420FFF7FCF80423FB71CE
:10101C0000BF10218548FFF751FB0346002BF8D089
:10102C001420FFF7EFF846E020218048FFF746FB3D
:10103C000346002B10D11420FFF7E4F80523FB71B5
:10104C0000BF20217948FFF739FB0346002BF8D06D
:10105C001420FFF7D7F82EE040217448FFF72EFB41
:10106C000346002B10D11420FFF7CCF80623FB719C
:10107C0000BF40216D48FFF721FB0346002BF8D041
:10108C001420FFF7BFF816E080216848FFF716FB25
:10109C000346002B0FD11420FFF7B4F80723FB7184
:1010AC0000BF80216148FFF709FB0346002BF8D0F5
:1010BC001420FFF7A7F8012202215C48FFF715FB6B
:1010CC00002204215948FFF710FB10215748FFF765
:1010DC00F5FA0346002B10D11420FFF793F80823E0
:1010EC00FB7100BF10215148FFF7E8FA0346002BB3
:1010FC00F8D01420FFF786F846E020214B48FFF784
:10110C00DDFA0346002B10D11420FFF77BF80923DE
:10111C00FB7100BF20214548FFF7D0FA0346002B96
:10112C00F8D01420FFF76EF82EE040213F48FFF76F
:10113C00C5FA0346002B10D11420FFF763F80A23DD
:10114C00FB7100BF40213948FFF7B8FA0346002B6A
:10115C00F8D01420FFF756F816E080213348FFF73B
:10116C00ADFA0346002B0FD11420FFF74BF80B23DD
:10117C00FB7100BF80212D48FFF7A0FA0346002B1E
:10118C00F8D01420FFF73EF8012204212748FFF77E
:10119C00ACFA002208212548FFF7A7FA10212348B2
:1011AC00FFF78CFA0346002B10D11420FFF72AF816
:1011BC000C23FB7100BF10211C48FFF77FFA03467C
:1011CC00002BF8D01420FFF71DF848E02021174819
:1011DC00FFF774FA0346002B10D11420FFF712F816
:1011EC000D23FB7100BF20211048FFF767FA03465F
:1011FC00002BF8D01420FFF705F830E040210B4805
:10120C00FFF75CFA0346002B12D11420FEF7FAFF0D
:10121C000E23FB7100BF40210448FFF74FFA034631
:10122C00002BF8D01420FEF7EDFF18E0000C014065
:10123C0080211048FFF742FA0346002B0FD11420EF
:10124C00FEF7E0FF0F23FB7100BF80210948FFF779
:10125C0035FA0346002BF8D01420FEF7D3FFFB79A8
:10126C000F2B3FF656AEFB79034AD35C184600F0C1
:10127C009FF84EE6000C0140CC16000880B590B0EB
:10128C0000AF07F1180328220021184600F0FAF9E4
:10129C003B1D00221A605A609A60DA601A610223C0
:1012AC00BB610123BB621023FB6200237B6307F14C
:1012BC0018031846FFF732FA0346002B01D000F052
:1012CC0001F90F237B600023BB600023FB6000232C
:1012DC003B6100237B613B1D00211846FFF782FC1C
:1012EC000346002B01D000F0EDF800BF4037BD469F
:1012FC0080BD000080B586B000AF07F10803002266
:10130C001A605A609A60DA60264B9B69254A43F052
:10131C0010039361234B9B6903F010037B607B6884
:10132C00204B9B691F4A43F0080393611D4B9B693B
:10133C0003F008033B603B680122FF211A48FFF7CA
:10134C00D4F901220F211948FFF7CFF9FF23BB6015
:10135C000123FB6000233B6102237B6107F108033F
:10136C0019461148FFF754F80F23BB600123FB60AB
:10137C0000233B6102237B6107F1080319460B48EC
:10138C00FFF746F8F023BB600023FB6000233B61B2
:10139C0007F1080319460548FFF73AF800BF18375C
:1013AC00BD4680BD0010024000100140000C014001
:1013BC0080B582B000AF0346FB71FB7903F00103EB
:1013CC00002B05D0012201213D48FFF78EF904E0E6
:1013DC00002201213A48FFF788F9FB7903F0020358
:1013EC00002B05D0012202213548FFF77EF904E0DD
:1013FC00002202213248FFF778F9FB7903F004034D
:10140C00002B05D0012204212D48FFF76EF904E0D2
:10141C00002204212A48FFF768F9FB7903F008033E
:10142C00002B05D0012208212548FFF75EF904E0C6
:10143C00002208212248FFF758F9FB7903F010032A
:10144C00002B05D0012210211D48FFF74EF904E0B6
:10145C00002210211A48FFF748F9FB7903F020030A
:10146C00002B05D0012220211548FFF73EF904E09E
:10147C00002220211248FFF738F9FB7903F04003D2
:10148C00002B05D0012240210D48FFF72EF904E076
:10149C00002240210A48FFF728F997F90730002B62
:1014AC0005DA012280210648FFF71FF904E000222B
:1014BC0080210348FFF719F900BF0837BD4680BDEE
:1014CC000010014080B400AF00BFBD4680BC704727
:1014DC0080B485B000AF154B9B69144A43F00103EF
:1014EC009361124B9B6903F00103BB60BB680F4B0C
:1014FC00DB690E4A43F08053D3610C4BDB6903F07C
:10150C0080537B607B680A4B5B68FB60FB6823F055
:10151C00E063FB60FB6843F08063FB60044AFB689C
:10152C00536000BF1437BD4680BC704700100240AA
:10153C000000014080B400AF00BFBD4680BC7047C6
:10154C0080B400AFFEE780B400AFFEE780B400AF1C
:10155C00FEE780B400AFFEE780B400AF00BFBD462D
:10156C0080BC704780B400AF00BFBD4680BC7047E4
:10157C0080B400AF00BFBD4680BC704780B500AFE3
:10158C00FEF724FE00BF80BD80B400AF154B1B6876
:10159C00144A43F001031360124B5A681149124B61
:1015AC0013404B600F4B1B680E4A23F0847323F4DB
:1015BC00803313600B4B1B680A4A23F4802313609F
:1015CC00084B5B68074A23F4FE035360054B4FF44A
:1015DC001F029A60054B4FF000629A6000BFBD4637
:1015EC0080BC7047001002400000FFF800ED00E0E6
:1015FC00002103E00B4B5B58435004310A480B4B62
:10160C0042189A42F6D30A4A02E0002342F8043BFD
:10161C00084B9A42F9D3FFF7B7FF00F00FF8FFF72A
:10162C006DFC7047F4160008000000200C00002030
:10163C000C0000202C000020FEE7000070B50025F7
:10164C000C4E0D4CA41BA410A54209D100F022F89D
:10165C0000250A4E0A4CA41BA410A54205D170BD4E
:10166C0056F8253098470135EEE756F8253098475F
:10167C000135F2E7EC160008EC160008EC16000831
:10168C00F016000803460244934200D1704703F859
:10169C00011BF9E7F8B500BFF8BC08BC9E467047C3
:0C16AC00F8B500BFF8BC08BC9E467047B3
:1016B80002030405060708090A0B0C0D0E0F10108B
:1016C80001020000C0F9A4B0999282F88090888342
:1016D800C6A1868E0000000000000000010203047D
:0416E80006070809E0
:0416EC0031010008C0
:0416F0000D010008E0
:0C16F400100000000100000000A24A04E9
:04000005080015FDDD
:00000001FF
