:0A061A00C0F9A4B0999282F8809014
:050624000311000000BD
:0F05F2007D9B7C03ED1D70011C144C70F7DFF135
:0106010022D6
:0E060200439D80E4F5BD75BC807F020205F2C9
:10059F00EF4488F5BC00000000E5BC30E4FB53BC21
:1005AF00EFAFBDEF75F004A4FFAEF0ADBEEF4DFFA2
:0105BF002219
:1005DF00E4FEA2A7B392A77F011205F20EBEC8F2E6
:0205EF00C2A7A1
:0105F10022E7
:1005C000E4FEEF30E704D2B58002C2B5EF25E0FFCC
:0E05D000C2B60000D2B600000EBE08E6C2B6EB
:0105DE0022FA
:0A061000C2B700D2B700C2B7002243
:10047300E4F510F50FF50EF50DF50CAB10AA0FA969
:100483000EA80DC000C001C002C0037F0712059F64
:10049300AC06AD07E412031FD003D002D001D00095
:1004A30012000A8F108E0F8D0E8C0D050CE50CC3F8
:1004B300940A40C7E4FBFA79207841AF10AE0FAD40
:1004C3000EAC0D1202047B007A8079B078C312005F
:1004D3000AA804A905AA06AB077F007EA07D697C54
:0D04E30045120204E4FBFAF978C012000A89
:0104F00022E9
:10056B00E4F511F512F513C3EF9464EE9400400C0F
:10057B00749C2FFF74FF3EFE051380EBC3EF940AB0
:10058B00EE9400400C74F62FFF74FF3EFE051280B4
:04059B00EB8F1122AF
:1004F100E4F591F591F595F595F5B1F5B1C2A71230
:1005010006027E04AF061EEF60077FC81205F28067
:10051100F31204738F0B8E0A8D098C08E4FFFE7DA4
:10052100F07C41AB0BAA0AA909A8081202A1500349
:100531001205DFE4FFFE7D207C41AB0BAA0AA9096D
:10054100A8081200FB12035812056BE51190061A58
:1005510093FF1205C0E51293547FFF1205C0E51306
:0A05610093FF1205C012061080A7D8
:100003000203C4E86480F8E933E83360110460F064
:10001300ED33EC337009E8FCE9FDEAFEEBFF220463
:1000230060DED3EB9FEA9EE99DE8C2E78CF0C2F75E
:1000330095F0400CE8CCF8E9CDF9EACEFAEBCFFB2A
:1000430012038F85D0F05804700320D5B3E80470F1
:10005300075002B2D50203CE92D5EC0460F7E4CC8C
:10006300C0E0C398F8603B94186008400DD0E0FBF3
:100073000203A6E4FBFAC9FC8028E830E406E4C9DD
:10008300FBE4CAFCE830E305E4C9CACBFCE8540747
:100093006010F8C3E913F9EA13FAEB13FBEC13FC52
:1000A300D8F130F52FC3E49CFCEF9BFFEE9AFEEDF5
:1000B30099FDD0E0FBEF4E4D4C701222DB0302039F
:1000C300CBEC2CFCEF33FFEE33FEED33FDED30E7ED
:1000D300EB0203A6EF2BFFEE3AFEED39FDD0E0FB7A
:1000E30050130BBB00030203CEED13FDEE13FEEF23
:0800F30013FFEC13FC0203A64D
:1000FB00EC4D6011E8497017ED33EC3304600DE4FF
:10010B00FCFFFEFD22E933E8330470F80203C4124E
:10011B00038F58046009E4CC24815006285009024F
:10012B0003CE2840030203CBC0E0EB4A7044B980F6
:10013B0006D0E0FB0203BAEF4E701CBD8008EBFF4C
:10014B00EAFEE9FD80EBE98DF0A4FEE5F00201E4A7
:10015B00E9CDF9EAFEEBFFEF89F0A4FCE5F0CE89DF
:10016B00F0A42EFFE435F0CD89F0A42DFEE435F09C
:10017B008067EF4E7005BD80D780C3EF8BF0A4ACCA
:10018B00F0EE8BF0A42CFCE435F0F8EF8AF0A42C05
:10019B00E5F038FCE433CB8DF0A42CFCE5F03BF818
:1001AB00EE8AF0A42CFCE5F038F8E433CF89F0A408
:1001BB002CFCE5F038CF3400CE89F0A42FFFE5F00E
:1001CB003EFEE433C98DF0A42EFEE5F039CD8AF066
:1001DB00A42FFFE5F03EFEE43DFD33D0E0FB5007DE
:1001EB000BBB000F0203CEEC2CFCEF33FFEE33FE08
:0601FB00ED33FD0203A636
:100201000203CEEC5D046005E8590470030203C4E7
:1002110012038F580460F6EC4860F2EC7004FDFEA6
:10022100FF22C860DB2481C85009C39860025006D0
:100231000203CB9850CAF582E9294B4A7005AB827B
:100241000203BA75F0007C1A7880C3EF9BEE9AED39
:1002510099400DC3EF9BFFEE9AFEED99FDE842F048
:10026100DC23ACF0D0E0FFD0E0FED0E0FDAB82209B
:10027100E7101BEB60BAEC2CFCEF33FFEE33FEED25
:1002810033FD0203A6E803F830E705C0F075F0007E
:10029100EF2FFFEE33FEED33FD40B830E7C280AA09
:1002A10074F8CC6480CCC86480C8F58204604FC304
:1002B100EB9FF5F0EA9E42F0E99D42F0E89C45F0A3
:1002C100603C501DE5825FFFE582D313CB5BCBF42D
:1002D1002B5582FB50280ABA002409B90020088056
:1002E1001DE5825BFBE582D313CF5FCFF4C3132FF0
:1002F1005582FF50090EBE00050DBD00010CC3EB78
:100301009FF5F0EA9E42F0E99D42F0E89C45F060DD
:0903110007CC4820E701B3EC22FF
:10031A0075F020800E75F010800575F0087D007E5E
:10032A00007F003392D530D5031203D9EC33401045
:10033A00EF33FFEE33FEED33FDEC33FCD5F0ED2267
:0E034A00E5F0247EA2D513CC92E7CDCEFF22A3
:10035800EDD2E7CD33EC3392D524814006E4FFFE9D
:10036800FDFC22FCE4CFCECDCC24E0501174FF80FC
:10037800EDC3CC13CCCD13CDCE13CECF13CF047099
:07038800F030D5DE0203D9BD
:10038F00E9D2E7C933E833F892D5EDD2E7CD33ECB4
:07039F0033FC5002B2D5222D
:1003A600EC30E7100FBF000C0EBE00080DBD0004B8
:1003B6000BEB6014A2D5EB13FCED92E7FD2274FF64
:1003C600FCFDFEFF22E480F8A2D574FF13FC7D80BD
:0303D600E480EFD1
:030000000203E711
:0C03E700787FE4F6D8FD75811302042E27
:0E03D900C3E49FFFE49EFEE49DFDE49CFC2235
:1003F3000204F1E493A3F8E493A34003F68001F22B
:1004030008DFF48029E493A3F85407240CC8C3330A
:10041300C4540F4420C8834004F456800146F6DFD9
:10042300E4800B0102040810204080900624E47E3F
:10043300019360BCA3FF543F30E509541FFEE493CE
:10044300A360010ECF54C025E060A840B8E493A395
:10045300FAE493A3F8E493A3C8C582C8CAC583CAC0
:10046300F0A3C8C582C8CAC583CADFE9DEE780BE78
:0106290000D0
:00000001FF
