:100000000C94B2000C94DA000C94DA000C94DA0030
:100010000C94DA000C94DA000C94DA000C94DA00F8
:100020000C94DA000C94DA000C94DA000C94DA00E8
:100030000C94DA000C94DA000C94DA000C94DA00D8
:100040000C942D040C94DA000C94FB030C94D5034F
:100050000C94DA000C94DA000C94DA000C94DA00B8
:100060000C9477040C94DA0000407A10F35A00A044
:10007000724E18090010A5D4E80000E87648170071
:1000800000E40B54020000CA9A3B000000E1F505B1
:10009000000080969800000040420F000000A086FB
:1000A00001000000102700000000E803000000002D
:1000B0006400000000000A000000000001000000D1
:1000C00000002C76D888DC674F0823DFC1DFAE59EB
:1000D000E1B1B796E5E3E453C63AE651997696E87E
:1000E000E6C28426EB898C9B62ED407C6FFCEFBC02
:1000F0009C9F40F2BAA56FA5F490055A2AF75C932D
:100100006B6CF9676DC11BFCE0E40D47FEF520E662
:10011000B500D0ED902E0300943577050080841E45
:10012000080000204E0A000000C80C333333330FA0
:10013000986E12831141EF8D2114893BE65516CF3D
:10014000FEE6DB18D1844B381BF77C1D901DA4BB49
:10015000E424203284725E228100C9F124ECA1E5FE
:100160003D27A50511241FBECFEFD8E0DEBFCDBFD0
:1001700011E0A0E0B1E0EAEFF8E102C005900D92D5
:10018000A035B107D9F722E0A0E5B1E001C01D928A
:10019000A13DB207E1F710E0C2EBD0E004C0219727
:1001A000FE010E94700CC13BD107C9F70E94DE0519
:1001B0000C947B0C0C940000209127029091260255
:1001C000213208F04AC0809103028111FCCF32E055
:1001D0003093030231E0309302023FEF309301028B
:1001E000109200022093FF01A6E0B2E04FED51E033
:1001F000FA013E2F341B321718F43D913193F9CF99
:100200001092DE012091DE01990F922B9093DE0176
:100210009091DD01913061F41092DD019091DE0149
:100220009093BB009091BC0093FDF8CF95EC01C07A
:1002300095EE9093BC00909103029230E1F390917F
:1002400001029F3F79F080910102803241F080915C
:100250000102803331F084E005C081E003C082E018
:1002600001C083E01092050210922702109204024E
:100270000895CF92DF92EF92FF920F931F93CF9347
:10028000DF936C017A018B01C0E0D0E0CE15DF0571
:1002900089F0D8016D918D01D601ED91FC9101900D
:1002A000F081E02DC6010995892B11F47E0102C071
:1002B0002196ECCFC701DF91CF911F910F91FF9055
:1002C000EF90DF90CF9008958091A00190E0209171
:1002D000A101821B91090895FC01538D448D252FA6
:1002E00030E0842F90E0821B930B541710F0CF96D0
:1002F000089501970895FC01918D828D981761F002
:10030000828DDF01A80FB11D5D968C91928D9F5F4C
:100310009F73928F90E008958FEF9FEF0895FC01F7
:10032000918D828D981731F0828DE80FF11D858DAA
:1003300090E008958FEF9FEF0895FC01918D228D3D
:10034000892F90E0805C9F4F821B91098F739927C2
:10035000089588E292E00E949D0121E0892B09F432
:1003600020E0822F0895FC01848DDF01A80FB11DCC
:10037000A35ABF4F2C91848D90E001968F739927DB
:10038000848FA689B7892C93A089B1898C918064C8
:100390008C93938D848D981306C00288F389E02D89
:1003A00080818F7D80830895EF92FF920F931F933A
:1003B000CF93DF93EC0181E0888F9B8D8C8D981318
:1003C00005C0E889F989808185FD24C0F62E0B8D52
:1003D00010E00F5F1F4F0F731127E02E8C8DE81276
:1003E0000CC00FB607FCFACFE889F989808185FF38
:1003F000F5CFCE010E94B301F1CF8B8DFE01E80F46
:10040000F11DE35AFF4FF0820B8FEA89FB8980814F
:10041000806207C0EE89FF896083E889F98980815D
:100420008064808381E090E0DF91CF911F910F91F4
:10043000FF90EF900895CF93DF93EC01888D882390
:10044000C9F0EA89FB89808185FD05C0A889B98941
:100450008C9186FD0FC00FB607FCF5CF808185FF1C
:10046000F2CFA889B9898C9185FFEDCFCE010E948A
:10047000B301E7CFDF91CF91089580E090E0892B21
:1004800029F00E94A90181110C94000008953FB742
:10049000F89480919C0190919D01A0919E01B09152
:1004A0009F0126B5A89B05C02F3F19F00196A11DFD
:1004B000B11D3FBFBA2FA92F982F8827820F911DFA
:1004C000A11DB11DBC01CD0142E0660F771F881F41
:1004D000991F4A95D1F708958F929F92AF92BF923C
:1004E000CF92DF92EF92FF926B017C010E94470254
:1004F0004B015C01C114D104E104F104F1F00E944C
:100500004702DC01CB0188199909AA09BB09883E79
:100510009340A105B10570F321E0C21AD108E108AA
:10052000F10888EE880E83E0981EA11CB11CC1144E
:10053000D104E104F10419F7DDCFFF90EF90DF90D3
:10054000CF90BF90AF909F908F90089585ED80934E
:10055000BC008091BC0084FDFCCF10920302089582
:1005600040917201262F30E0240F311D21323105D8
:10057000DCF4209103022430C9F4FC0180E090E017
:10058000861758F4309172012191DC01A05BBE4FB7
:10059000A30FB11D2C930196F3CF80917201680FC8
:1005A0006093720180E0089581E0089582E00895EB
:1005B0000895E091A1018091A001E81730F4F0E0E6
:1005C000EE55FE4F808190E008958FEF9FEF0895E4
:1005D0009091A1018091A001981750F4E92FF0E0CB
:1005E000EE55FE4F208130E09F5F9093A10102C045
:1005F0002FEF3FEFC9010895CF92DF92EF92FF9264
:100600000F931F93CF93DF937C01262F972F8A019F
:1006100080910402882391F0C62FD72F6E01C40E5B
:10062000D51ECC15DD0571F06991D701ED91FC91D6
:100630000190F081E02DC7010995F3CF642F822F3F
:100640000E94B002C801DF91CF911F910F91FF90DE
:10065000EF90DF90CF900895CF93DF931F92CDB7A7
:10066000DEB76983209104022223D1F02091270272
:10067000203240F021E030E0FC013383228380E02F
:1006800090E015C080910502E82FF0E0EA5FFD4F91
:10069000998190838F5F809305028093270205C024
:1006A00061E0CE0101960E94B00281E090E00F90DF
:1006B000DF91CF9108950F931F93CF93DF93162F60
:1006C00021E02093040228E42093260210920502E0
:1006D00010922702082FEC018C2F801B811730F419
:1006E000699185EC92E00E942C03F6CFDF91CF91C7
:1006F0001F910F910C94DC00089580E090E0089524
:10070000009769F0FC0101900020E9F73197AF01F3
:10071000481B590BBC0188E292E00C94390180E03F
:1007200090E008958F929F92AF92BF920F931F9384
:10073000CF93DF93CDB7DEB7A1970FB6F894DEBFA6
:100740000FBECDBF19A2423008F44AE08E010F5D02
:100750001F4F842E912CA12CB12CA50194010E9435
:100760004E0CE62FB901CA0101501109EA3014F408
:10077000E05D01C0E95CD801EC93232B242B252BF1
:1007800061F7C8010E948003A1960FB6F894DEBFFE
:100790000FBECDBFDF91CF911F910F91BF90AF9052
:1007A0009F908F9008950E94760C1F920F920FB623
:1007B0000F9211242F933F934F935F936F937F93E7
:1007C0008F939F93AF93BF93EF93FF9388E292E051
:1007D0000E94B301FF91EF91BF91AF919F918F91D3
:1007E0007F916F915F914F913F912F910F900FBE2D
:1007F0000F901F9018951F920F920FB60F92112411
:100800002F938F939F93EF93FF93E0913802F09192
:1008100039028081E0913E02F0913F0282FD12C0D8
:100820009081809141028F5F8F73209142028217E5
:1008300051F0E0914102F0E0E85DFD4F958F80932B
:10084000410201C08081FF91EF919F918F912F9183
:100850000F900FBE0F901F9018951F920F920FB61A
:100860000F9211242F933F938F939F93AF93BF9336
:100870008091980190919901A0919A01B0919B016A
:100880003091970123E0230F2D3720F40196A11D0D
:10089000B11D05C026E8230F0296A11DB11D2093AE
:1008A00097018093980190939901A0939A01B09336
:1008B0009B0180919C0190919D01A0919E01B0911E
:1008C0009F010196A11DB11D80939C0190939D01F4
:1008D000A0939E01B0939F01BF91AF919F918F9183
:1008E0003F912F910F900FBE0F901F9018951F9260
:1008F0000F920FB60F9211242F933F934F935F9354
:100900006F937F938F939F93AF93BF93EF93FF93D7
:100910008091B900887F803609F49CC068F58832E0
:1009200009F45BC090F4803109F454C038F4882392
:1009300009F4F6C0883009F44DC0F6C0883109F4D6
:100940004CC0803209F45DC0EFC0803409F468C047
:1009500048F4803309F455C0883309F0E5C080932A
:100960000102D8C0803509F44FC0883509F45DC054
:10097000883409F0D9C0D6C0883909F4C7C0A8F4B2
:10098000883709F467C038F4883609F463C08037C3
:1009900009F460C0C9C0883809F4B8C0803909F4C6
:1009A0005FC0803809F0C0C05BC0803B09F486C0DE
:1009B00038F4803A09F466C0883A09F47FC0B4C0BC
:1009C000803C09F4A7C0883C09F4A4C0883B09F422
:1009D0008AC0AAC08091DE0110C09091000280916F
:1009E000FF01981770F5E091000281E08E0F80936F
:1009F0000002F0E0E152FE4F80818093BB0085EC65
:100A000086C0809301028EC0E091000281E08E0FCB
:100A1000809300028091BB00F0E0E152FE4F8083A2
:100A2000909100028091FF016EC0E091000281E090
:100A30008E0F809300028091BB00F0E0E152FE4FE8
:100A400080838091020281116DC081E08093DD017D
:100A500084EA61C083E08093030210929601CFCFB5
:100A600080919601803208F051C0E091960181E0BA
:100A70008E0F809396018091BB00F0E0EA58FE4F04
:100A80008083BDCF85EC8093BC00109203028091DF
:100A90009601803230F4E0919601F0E0EA58FE4F82
:100AA00010826091960170E0E0917401F0917501FF
:100AB00086E791E009951092960136C084E0809314
:100AC00003021092730110927201E0917001F09193
:100AD0007101099580917201811105C081E08093B7
:100AE000720110925001E091730181E08E0F8093AA
:100AF0007301F0E0E05BFE4F80818093BB0090913A
:100B0000730180917201981708F479CF85E880937A
:100B1000BC000AC085EC8093BC001092030204C0A4
:100B2000109201020E94A602FF91EF91BF91AF9136
:100B30009F918F917F916F915F914F913F912F91F5
:100B40000F900FBE0F901F901895E8E2F2E013820D
:100B5000128288EE93E0A0E0B0E084839583A683C0
:100B6000B7832DE031E03183208325EC30E03587F9
:100B7000248724EC30E03787268720EC30E0318B67
:100B8000208B21EC30E0338B228B22EC30E0358B54
:100B9000248B26EC30E0378B268B118E128E138E31
:100BA000148EE5ECF2E01382128284839583A6838F
:100BB000B7838FE191E0918380830895789484B521
:100BC000826084BD84B5816084BD85B5826085BD49
:100BD00085B5816085BD80916E00816080936E00D7
:100BE00010928100809181008260809381008091C9
:100BF000810081608093810080918000816080937A
:100C000080008091B10084608093B1008091B00039
:100C100081608093B00080917A00846080937A0034
:100C200080917A00826080937A0080917A0081605E
:100C300080937A0080917A00806880937A00109285
:100C4000C10014B88FEF85B9E0913802F0913902F4
:100C500082E08083E0913402F09135021082E091CD
:100C60003602F09137028FEC808310924002E091BF
:100C70003C02F0913D0286E08083E0913A02F091DF
:100C80003B02808180618083E0913A02F0913B02D7
:100C9000808188608083E0913A02F0913B028081FC
:100CA00080688083E0913A02F0913B0280818F7DE1
:100CB000808388E48093B80088E28093070163E032
:100CC00086E091E00E945B036AE070E080E090E0E3
:100CD0000E946C0284E18093040163E083E091E070
:100CE0000E945B036AE070E080E090E00E946C028A
:100CF00062E081E091E00E945B036AE070E080E0E6
:100D000090E00E946C0261E080E091E00E945B0351
:100D10006AE070E080E090E00E946C026EEE72E0AB
:100D200080E090E00E946C028DE291E00E948003DE
:100D30008EE391E00E948003FF24F39428E4E22EE6
:100D4000DD24DA9435EEC32E45EC342EC2EAD1E030
:100D5000F0920402E09226021092050210922702FD
:100D60006AEA85EC92E00E942C030E94DC008091EC
:100D700003028111FCCFF0920302F0920202D092A2
:100D8000010210920002F092FF01F092DE018091C8
:100D9000DE0180698093DE018091DD01813069F49C
:100DA0001092DD018091DE018093BB008091BC0038
:100DB00083FDF8CF3092BC0002C0C092BC0080918D
:100DC00003028130E1F380910002823018F4109127
:100DD000000201C012E0AFEDB1E0E2EAF1E08E2FD7
:100DE0008C1B811718F48D918193F9CF1092A1017A
:100DF0001093A001112331F085EC92E00E94E802EB
:100E00008093DC018091A101181731F085EC92E00C
:100E10000E94E8028093DB016091DC0170E0762F94
:100E200066278091DB01682B660F672F661F770BA3
:100E3000072E000C880B990B0E94270B20E030E056
:100E400040E05FE30E94DC0B6093D7017093D80110
:100E50008093D9019093DA0103EC11E021E045E0A1
:100E60000E94FE074090D7015090D8016090D901B0
:100E70007090DA01A3019201C301B2010E94490CF2
:100E8000882319F081E491E01AC053014201E894EB
:100E9000B7F82FEF3FEF4FE75FE7C501B4010E94BE
:100EA000490C81110FC02FEF3FEF4FE75FE7C501FE
:100EB000B4010E94F10A18162CF485E491E00E9416
:100EC000800382C02FEF3FEF4FE75FE4C301B20121
:100ED0000E94D70B18161CF489E491E0F0CF2FEF95
:100EE0003FEF4FE75FECC301B2010E94F10A87FDBB
:100EF000F3CF20E030E0A901C301B2010E94F10A62
:100F000087FF0FC0E0912802F09129020190F08143
:100F1000E02D6DE288E292E0099577FA709477F817
:100F200070942AE037ED43EA5BE3C301B2010E940B
:100F3000850A4B015C010E94F60A2B013C010E94CC
:100F4000250B9B01AC01C501B4010E94840A4B0131
:100F50005C014AE0C301B2010E949203E0912802C1
:100F6000F09129020190F081E02D6EE288E292E09A
:100F7000099520E030E040E251E4C501B4010E944F
:100F8000DC0B4B015C010E94F60A2B01612C712CD9
:100F90004AE0C301B2010E949203C301B2010E9460
:100FA000250B9B01AC01C501B4010E94840A20E01D
:100FB00030E040E251E40E94DC0B0E94F60A80E03F
:100FC00090E04AE00E9492038DE491E00E94800349
:100FD0008091C2018F5F8093C201853031F48EE32E
:100FE00091E00E9480031092C20168EC70E080E002
:100FF00090E00E946C020E943D02AACEEF920F93F5
:101000001F93CF93DF93E80147FD02C034E001C096
:1010100034E1E42F440FFF0BF7FF03C0F195E19596
:10102000F109E32E022F2E2FAE010E941E08CE01E1
:10103000DF91CF911F910F91EF9008954F925F92A2
:101040006F927F929F92AF92BF92CF92DF92EF9278
:10105000FF920F931F93CF93DF93CDB7DEB72997FE
:101060000FB6F894DEBF0FBECDBF6A01122FB02EAF
:101070002BE3201720F0FF24F394F00E02C0BCE312
:10108000FB2E0F2D27E0AE014F5F5F4F0E94AC0992
:10109000AC018981982F9970913031F0E1FC06C044
:1010A000E0FE06C090E205C09DE203C09BE201C0E5
:1010B00090E0EE2DE07183FF3CC0911102C083E00F
:1010C00001C084E0811718F4212F281B01C020E003
:1010D000E1110BC0F601822F30E2882319F0319321
:1010E0008150FBCFC20ED11C20E0992329F0D601FC
:1010F0009C93F60131966F01C6010396E2FE0AC089
:101100003EE4D6013C9341E411964C93119712961C
:101110003C9306C03EE6F601308341E641833283CC
:10112000FC01322F40E2332309F442C04193315095
:10113000FACF82FF44C0911102C083E001C084E075
:10114000811718F4212F281B01C020E0E1110BC0EA
:10115000F601822F30E2882319F031938150FBCFC2
:10116000C20ED11C20E0992329F0D6019C93F601F0
:1011700031966F01C6010396E2FE0BC039E4D60139
:101180003C933EE411963C93119736E412963C93BF
:1011900007C039E6F60130833EE6318336E6328316
:1011A000FC01322F40E2332319F041933150FBCF41
:1011B000FC01E20FF11D10828EEF9FEFB7C0F1E04E
:1011C000911101C0F0E06F2F70E01416150624F4A1
:1011D0009A012F5F3F4F02C021E030E0260F371FFA
:1011E000BB2029F06B2D70E06F5F7F4F02C060E085
:1011F00070E0260F371F612F70E0261737071CF4A9
:10120000121B212F01C020E03E2D387159F4D60168
:10121000322F60E2332319F06D933150FBCFC20EB1
:10122000D11C20E0FF2331F0D6019C93B6016F5F03
:101230007F4F6B01E1110BC0F601922F30E3992330
:1012400019F031939150FBCFC20ED11C20E09F2D9D
:10125000940F3A81782F7071A72E84FF03C0313329
:1012600009F49150191624F4993018F098E001C04F
:1012700091E0E42F852F57FF02C0E0E080E06E2F61
:10128000782FE0E0F0E0AEE29A2E3A01691A710898
:101290002A01461A570A0B2D10E0119501951109E4
:1012A0006F3F8FEF780729F4D6019C92C601019613
:1012B0006C014617570784F0661677066CF47F01B9
:1012C000E40CF51CA1E0B0E0AC0FBD1FEA0EFB1E64
:1012D000D7011196BC9002C090E3B92E61507109FC
:1012E0003196C60101967C016017710724F0D60182
:1012F000BC926C01D5CF6417750741F4363320F4E6
:10130000353321F4A11002C081E3B82EF601B0827A
:10131000F701822F90E2882319F091938150FBCF3F
:10132000F701E20FF11D108280E090E029960FB6E0
:10133000F894DEBF0FBECDBFDF91CF911F910F910B
:10134000FF90EF90DF90CF90BF90AF909F907F90F5
:101350006F905F904F900895283008F027E0332772
:10136000DA01990F311D87FD9160009661057105C5
:1013700039F432602E5F3D9330E32A95E1F708950A
:101380009F3F30F080387105610509F03C5F3C5F9C
:101390003D93913008F08068911DDF93CF931F93A8
:1013A0000F93FF92EF92192F987F9695E92F9695BC
:1013B0009695E90FFF27EE53FF4F99273327EE2429
:1013C000FF24A701E70105900894079428F4360F3D
:1013D000E71EF81E491F511D660F771F881F991FB2
:1013E0000694A1F70590079428F4E70EF81E491F0C
:1013F000561FC11D770F881F991F661F0694A1F7FE
:101400000590079428F4F80E491F561FC71FD11DD9
:10141000880F991F661F771F0694A1F70590079400
:1014200020F4490F561FC71FD81F990F661F771F3B
:10143000881F0694A9F784911095177041F0D695EE
:10144000C79557954795F794E7941A95C1F7E8E63D
:10145000F0E06894159015913591659195910590FE
:101460007FE27395E118F10A430B560BC90BD009C3
:10147000C0F7E10CF11E431F561FC91FD01D7EF49B
:10148000703311F48A95E6CFE894015030F0080FDC
:101490000AF40027021708F4202F2395022F7A332D
:1014A00028F079E37D932A95E9F710C07D932A957A
:1014B00089F6069497956795379517951794E118CF
:1014C000F10A430B560BC90BD00998F023957E9176
:1014D00073957A3308F070E37C932013B8F77E910C
:1014E00070617D9330F0839571E37D9370E32A956D
:1014F000E1F71124EF90FF900F911F91CF91DF91B1
:10150000992787FD909508955058BB27AA270E94D8
:101510009C0A0C949D0B0E948F0B38F00E94960B36
:1015200020F039F49F3F19F426F40C948C0B0EF440
:10153000E095E7FB0C94860BE92F0E94AE0B58F365
:10154000BA17620773078407950720F079F4A6F5A8
:101550000C94D00B0EF4E0950B2EBA2FA02D0B019E
:10156000B90190010C01CA01A0011124FF27591BE8
:1015700099F0593F50F4503E68F11A16F040A22FEE
:10158000232F342F4427585FF3CF4695379527955F
:10159000A795F0405395C9F77EF41F16BA0B620B5E
:1015A000730B840BBAF09150A1F0FF0FBB1F661FA5
:1015B000771F881FC2F70EC0BA0F621F731F841FE8
:1015C00048F4879577956795B795F7959E3F08F00E
:1015D000B0CF9395880F08F09927EE0F97958795D0
:1015E00008950E94620B08F481E008950E94B60BF2
:1015F00088F09F5798F0B92F9927B751B0F0E1F0D4
:10160000660F771F881F991F1AF0BA95C9F714C083
:10161000B13091F00E94D00BB1E008950C94D00B42
:10162000672F782F8827B85F39F0B93FCCF38695BC
:1016300077956795B395D9F73EF490958095709519
:1016400061957F4F8F4F9F4F0895E89409C097FB96
:101650003EF490958095709561957F4F8F4F9F4F89
:101660009923A9F0F92F96E9BB279395F6958795CD
:1016700077956795B795F111F8CFFAF4BB0F11F490
:1016800060FF1BC06F5F7F4F8F4F9F4F16C0882337
:1016900011F096E911C0772321F09EE8872F762F6D
:1016A00005C0662371F096E8862F70E060E02AF0AE
:1016B0009A95660F771F881FDAF7880F969587959A
:1016C00097F90895990F0008550FAA0BE0E8FEEF6F
:1016D00016161706E807F907C0F012161306E407F6
:1016E000F50798F0621B730B840B950B39F40A26EF
:1016F00061F0232B242B252B21F408950A2609F4CD
:10170000A140A6958FEF811D811D089597F99F67D0
:1017100080E870E060E008959FEF80EC0895002479
:101720000A941616170618060906089500240A9446
:1017300012161306140605060895092E0394000CCC
:1017400011F4882352F0BB0F40F4BF2B11F460FF5B
:1017500004C06F5F7F4F8F4F9F4F089557FD905884
:10176000440F551F59F05F3F71F04795880F97FB65
:10177000991F61F09F3F79F087950895121613061F
:101780001406551FF2CF4695F1DF08C0161617064E
:101790001806991FF1CF8695710561050894089583
:1017A000E894BB2766277727CB0197F908950E9415
:1017B000620B08F48FEF08950E94EF0B0C949D0BC1
:1017C0000E948F0B38F00E94960B20F0952311F0A9
:1017D0000C94860B0C948C0B11240C94D10B0E944E
:1017E000AE0B70F3959FC1F3950F50E0551F629FAC
:1017F000F001729FBB27F00DB11D639FAA27F00D6A
:10180000B11DAA1F649F6627B00DA11D661F829F90
:101810002227B00DA11D621F739FB00DA11D621F75
:10182000839FA00D611D221F749F3327A00D611D92
:10183000231F849F600D211D822F762F6A2F112474
:101840009F5750409AF0F1F088234AF0EE0FFF1FA7
:10185000BB1F661F771F881F91505040A9F79E3FFE
:10186000510580F00C94860B0C94D10B5F3FE4F390
:10187000983ED4F3869577956795B795F795E79554
:101880009F5FC1F7FE2B880F911D9695879597F95D
:1018900008950E94620B880B990B0895A1E21A2EFD
:1018A000AA1BBB1BFD010DC0AA1FBB1FEE1FFF1F04
:1018B000A217B307E407F50720F0A21BB30BE40B54
:1018C000F50B661F771F881F991F1A9469F760959B
:1018D0007095809590959B01AC01BD01CF01089555
:1018E000EE0FFF1F0590F491E02D099481E090E048
:0A18F000F8940C947B0CF894FFCFE1
:1018FA00EEAC02A20000A1000000000000D40139F1
:10190A00016C011B029D017B018F01000000002C6C
:10191A0003FC027D03D8026401E802D90249494363
:10192A005F5374617274696E672E2E2E0D000D0A54
:10193A00006E616E00696E66006F766600200000B8
:00000001FF
