:100000000C9452000C946F000C946F000C946F00D1
:100010000C946F000C946F000C946F000C946F00A4
:100020000C946F000C946F000C946F000C946F0094
:100030000C946F000C946F000C946F000C946F0084
:100040000C9496000C946F000C946F000C946F004D
:100050000C946F000C946F000C946F000C946F0064
:100060000C946F000C946F00000000002500280025
:100070002B0000000000240027002A0004040404D0
:100080000404040402020202020203030303030342
:10009000010204081020408001020408102001021F
:1000A0000408102011241FBECFEFD8E0DEBFCDBF63
:1000B00011E0A0E0B1E0E2EAF8E002C005900D92A4
:1000C000A431B107D9F721E0A4E1B1E001C01D924C
:1000D000A332B207E1F70E94E0000C944F040C94A5
:1000E00000003FB7F8948091190190911A01A091F6
:1000F0001B01B0911C0126B5A89B05C02F3F19F02C
:100100000196A11DB11D3FBFBA2FA92F982F882797
:10011000820F911DA11DB11DBC01CD0142E0660FF2
:10012000771F881F991F4A95D1F708951F920F9244
:100130000FB60F9211242F933F938F939F93AF93FA
:10014000BF938091150190911601A0911701B09174
:1001500018013091140123E0230F2D3720F401966C
:10016000A11DB11D05C026E8230F0296A11DB11DDA
:10017000209314018093150190931601A093170109
:10018000B09318018091190190911A01A0911B015F
:10019000B0911C010196A11DB11D8093190190938E
:1001A0001A01A0931B01B0931C01BF91AF919F91C5
:1001B0008F913F912F910F900FBE0F901F90189528
:1001C000789484B5826084BD84B5816084BD85B532
:1001D000826085BD85B5816085BD80916E0081603E
:1001E00080936E00109281008091810082608093E4
:1001F00081008091810081608093810080918000E6
:100200008160809380008091B10084608093B10010
:100210008091B00081608093B00080917A0084600A
:1002200080937A0080917A00826080937A00809136
:100230007A00816080937A0080917A008068809350
:100240007A001092C1008FEF84B915B88AB91BB833
:10025000EEE9F0E02491EAE8F0E084918823C1F02F
:1002600090E0880F991FFC01EE58FF4FC591D49183
:10027000FC01E859FF4FA591B4919FB7F8943881DC
:10028000822F809583238883EC91E22BEC939FBF90
:100290000FEFC0E0D0E020E4F22E1DE0F0927C00F1
:1002A00080917A00806480937A0080917A0086FD44
:1002B000FCCF609178008091790070E0782B072E58
:1002C000000C880B990B0E94560320E030E040EAB6
:1002D00050E40E94E20320E030EC4FE754E40E9437
:1002E000AC029B01AC0160931F01709320018093CD
:1002F00021019093220160E070E080E090E40E9490
:100300003F0220E53DE847E15DE30E94400220E036
:1003100030E04AE754E40E94E2030E941E0377FDA6
:1003200006C070931E0160931D0130E008C07195F6
:100330006195710970931E0160931D0131E0109267
:1003400003011092020110920101109200018091AC
:100350001D0190911E01883E23E0920744F0885EC3
:100360009340209100012F5F20930001F4CF9093E0
:100370001E0180931D018436910544F08456910935
:10038000209101012F5F20930101F5CF90931E0171
:1003900080931D018A3091053CF00A97209102015B
:1003A0002F5F20930201F6CF90931E0180931D01D1
:1003B000809303018091000181110AC01093000114
:1003C00080910101811106C010930101E2E003C098
:1003D000E0E001C0E1E0332329F0F0E0E150FF4F1D
:1003E0008AE08083C12CD12C0BB9C5B882E0C81635
:1003F000D10441F4E0910201F0E0EA5FFE4F808118
:100400008F7708C0F601E050FF4FE081F0E0EA5F2F
:10041000FE4F80818BB90E9471004B015C0192E01C
:10042000492E512C612C712C0E947100DC01CB01F2
:1004300088199909AA09BB09883E9340A105B1050D
:1004400098F328EE820E23E0921EA11CB11C4A9460
:1004500045284628472829F0412C512C3201439445
:10046000E3CF8FEFC81AD80A28E0C216D10409F0EA
:10047000BBCF209709F412CF0E9400000CCF505838
:10048000BB27AA270E9457020C94A8030E949A0334
:1004900038F00E94A10320F039F49F3F19F426F4AC
:1004A0000C9497030EF4E095E7FB0C949103E92F6D
:1004B0000E94B90358F3BA176207730784079507B8
:1004C00020F079F4A6F50C94DB030EF4E0950B2EE6
:1004D000BA2FA02D0B01B90190010C01CA01A00196
:1004E0001124FF27591B99F0593F50F4503E68F1F1
:1004F0001A16F040A22F232F342F4427585FF3CF32
:10050000469537952795A795F0405395C9F77EF402
:100510001F16BA0B620B730B840BBAF09150A1F04B
:10052000FF0FBB1F661F771F881FC2F70EC0BA0FD1
:10053000621F731F841F48F4879577956795B79559
:10054000F7959E3F08F0B0CF9395880F08F0992754
:10055000EE0F9795879508950E94C0020C94A8030A
:100560000E94A10358F00E949A0340F029F45F3FD3
:1005700029F00C94910351110C94DC030C94970313
:100580000E94B90368F39923B1F3552391F3951BA6
:10059000550BBB27AA2762177307840738F09F5FA4
:1005A0005F4F220F331F441FAA1FA9F335D00E2E11
:1005B0003AF0E0E832D091505040E695001CCAF77E
:1005C0002BD0FE2F29D0660F771F881FBB1F261741
:1005D00037074807AB07B0E809F0BB0B802DBF0118
:1005E000FF2793585F4F3AF09E3F510578F00C94E7
:1005F00091030C94DC035F3FE4F3983ED4F38695BB
:1006000077956795B795F7959F5FC9F7880F911D07
:100610009695879597F90895E1E0660F771F881FF3
:10062000BB1F621773078407BA0720F0621B730BA6
:10063000840BBA0BEE1F88F7E09508950E942503FE
:100640006894B1110C94DC0308950E94C10388F0F2
:100650009F5798F0B92F9927B751B0F0E1F0660F86
:10066000771F881F991F1AF0BA95C9F714C0B130C7
:1006700091F00E94DB03B1E008950C94DB03672F37
:10068000782F8827B85F39F0B93FCCF386957795F6
:100690006795B395D9F73EF49095809570956195DF
:1006A0007F4F8F4F9F4F0895E89409C097FB3EF40A
:1006B00090958095709561957F4F8F4F9F4F9923AF
:1006C000A9F0F92F96E9BB279395F695879577952D
:1006D0006795B795F111F8CFFAF4BB0F11F460FFED
:1006E0001BC06F5F7F4F8F4F9F4F16C0882311F045
:1006F00096E911C0772321F09EE8872F762F05C059
:10070000662371F096E8862F70E060E02AF09A95F3
:10071000660F771F881FDAF7880F9695879597F9E8
:10072000089597F99F6780E870E060E008959FEF73
:1007300080EC089500240A94161617061806090678
:10074000089500240A941216130614060506089547
:10075000092E0394000C11F4882352F0BB0F40F4CF
:10076000BF2B11F460FF04C06F5F7F4F8F4F9F4F0F
:10077000089557FD9058440F551F59F05F3F71F091
:100780004795880F97FB991F61F09F3F79F08795F8
:100790000895121613061406551FF2CF4695F1DF81
:1007A00008C0161617061806991FF1CF8695710511
:1007B000610508940895E894BB2766277727CB0145
:1007C00097F908950E94F5030C94A8030E949A03D8
:1007D00038F00E94A10320F0952311F00C949103AE
:1007E0000C94970311240C94DC030E94B90370F35A
:1007F000959FC1F3950F50E0551F629FF001729FC6
:10080000BB27F00DB11D639FAA27F00DB11DAA1FD4
:10081000649F6627B00DA11D661F829F2227B00D21
:10082000A11D621F739FB00DA11D621F839FA00DAC
:10083000611D221F749F3327A00D611D231F849FFC
:10084000600D211D822F762F6A2F11249F57504053
:100850009AF0F1F088234AF0EE0FFF1FBB1F661FCE
:10086000771F881F91505040A9F79E3F510580F097
:100870000C9491030C94DC035F3FE4F3983ED4F3B3
:10088000869577956795B795F795E7959F5FC1F73B
:10089000FE2B880F911D9695879597F90895F894EA
:0208A000FFCF88
:1008A200000000000B0CC0F9A4B0999282F880906D
:0408B200BF9CC6FF22
:00000001FF
