:100000000C945D000C9485000C9485000C94850084
:100010000C9485000C9485000C9485000C9485004C
:100020000C9485000C9485000C9485000C9485003C
:100030000C9485000C9485000C9485000C9485002C
:100040000C9472030C9485000C9485000C9485002C
:100050000C9485000C9485000C9485000C9485000C
:100060000C94BC030C948500000000080002010001
:100070000003040700000000000000000000000072
:10008000250028002B0000000000240027002A0083
:10009000040404040404040402020202020203032E
:1000A0000303030301020408102040800102040836
:1000B0001020010204081020EA0411241FBECFEF13
:1000C000D8E0DEBFCDBF11E0A0E0B1E0EEE7F3E1A4
:1000D00002C005900D92A237B107D9F722E0A2E73E
:1000E000B1E001C01D92A936B207E1F710E0CDE5FD
:1000F000D0E004C02197FE010E94DA06CC35D1077A
:10010000C9F70E9419050C94BD090C94000090E0F9
:10011000FC01EC55FF4F2491FC01E057FF4F849107
:10012000882399F090E0880F991FFC01EA57FF4F50
:10013000A591B491FC01E458FF4F859194918FB73C
:10014000F894EC91E22BEC938FBF0895CF92DF925D
:10015000EF92FF920F931F93CF93DF936C017A017D
:100160008B01C0E0D0E0CE15DF0589F0D8016D919C
:100170008D01D601ED91FC910190F081E02DC60139
:100180000995892B11F47E0102C02196ECCFC7019D
:10019000DF91CF911F910F91FF90EF90DF90CF9063
:1001A00008958091C20190E02091C301821B9109C2
:1001B000089590E0FC01E859FF4F3491FC01EC55A3
:1001C000FF4F2491FC01E057FF4FE491EE2309F427
:1001D0003BC0332339F1333091F038F43130A9F09A
:1001E000323001F584B58F7D12C0373091F0383050
:1001F000A1F03430B9F4809180008F7D03C08091EC
:1002000080008F77809380000DC084B58F7784BD88
:1002100009C08091B0008F7703C08091B0008F7DBE
:100220008093B000F0E0EE0FFF1FE458FF4FA59160
:10023000B4918FB7F894EC91611103C020952E23EF
:1002400001C02E2B2C938FBF08953FB7F894809157
:10025000BE019091BF01A091C001B091C10126B52E
:10026000A89B05C02F3F19F00196A11DB11D3FBFEE
:10027000BA2FA92F982F8827820F911DA11DB11D7C
:10028000BC01CD0142E0660F771F881F991F4A9578
:10029000D1F70895CF93DF93EC0160E08E810E9447
:1002A000D90061E08E810E94D90060E08E810E94B9
:1002B000D9008BE891E00197F1F7DF91CF91089594
:1002C000CF92DF92EF92FF920F931F93CF93DF9322
:1002D0007C016C0187E0C80ED11CC0E0D0E0062F85
:1002E00010E0B8010C2E02C0759567950A94E2F7EC
:1002F0006170F60181916F010E94D9002196C4308E
:10030000D10579F7C701DF91CF911F910F91FF9030
:10031000EF90DF90CF900C944A01CF92DF92EF9252
:10032000FF920F931F93CF93DF93EC01F62E642F70
:100330008C810E94D9008D818F3F19F060E00E946E
:10034000D9008F850F2D10E084FF25C06E0187E056
:10035000C80ED11CE12CF12CB8010E2C02C07595F1
:1003600067950A94E2F76170F60181916F010E942E
:10037000D900FFEFEF1AFF0A88E0E816F10461F7F1
:10038000CE01DF91CF911F910F91FF90EF90DF9001
:10039000CF900C944A01B80184E0759567958A95D1
:1003A000E1F7CE010E9460016F2DCE01DF91CF9168
:1003B0001F910F91FF90EF90DF90CF900C94600110
:1003C00041E00E948D0181E090E0089540E00C94AE
:1003D0008D01EF92FF920F931F93CF93DF93EC0168
:1003E000623018F08F8588608F876B8B1C8A80E461
:1003F0008D8B80E18E8B80E58F8B8C810E948700B6
:100400008D818F3F11F00E9487008E810E948700AE
:100410007E0187E0E80EF11C00E010E08F8584FD8E
:1004200003C084E090E002C088E090E0081719075C
:1004300044F4F70181917F010E9487000F5F1F4FF5
:10044000EDCF8BE39DE00197F1F760E08C810E9496
:10045000D90060E08E810E94D9008D818F3F19F014
:1004600060E00E94D9006F8564FD1DC063E0CE018D
:100470000E9460010BE416E4C8010197F1F763E004
:10048000CE010E946001C8010197F1F763E0CE013F
:100490000E94600183E592E00197F1F762E0CE01EE
:1004A0000E94600116C06062CE010E94E6018BE4EA
:1004B00096E40197F1F76F856062CE010E94E60134
:1004C00083E592E00197F1F76F856062CE010E94AB
:1004D000E6016F856062CE010E94E60184E0888BB0
:1004E0006CE0CE010E94E60161E0CE010E94E601CF
:1004F0008BE39FE10197F1F782E0898B66E0CE0103
:10050000DF91CF911F910F91FF90EF900C94E60136
:10051000843008F083E090916402891710F08FEF27
:10052000890FE82FF0E0EF5AFD4F6489606881E59C
:1005300092E00C94E60185ED8093BC008091BC00B4
:1005400084FDFCCF10920A02089540919401262F59
:1005500030E0240F311D21323105DCF420910A02F4
:100560002430C9F4FC0180E090E0861758F4309103
:1005700094012191DC01AE58BE4FA30FB11D2C9305
:100580000196F3CF80919401680F6093940180E00D
:10059000089581E0089582E008950895E091C301EF
:1005A0008091C201E81730F4F0E0EC53FE4F8081F7
:1005B00090E008958FEF9FEF08959091C30180918F
:1005C000C201981750F4E92FF0E0EC53FE4F208160
:1005D00030E09F5F9093C30102C02FEF3FEFC9014E
:1005E0000895CF92DF92EF92FF920F931F93CF93D4
:1005F000DF937C01262F972F8A0180912E0288237A
:1006000091F0C62FD72F6E01C40ED51ECC15DD0577
:1006100071F06991D701ED91FC910190F081E02D8D
:10062000C7010995F3CF642F822F0E94A502C8014C
:10063000DF91CF911F910F91FF90EF90DF90CF90BE
:100640000895CF93DF931F92CDB7DEB769832091D2
:100650002E022223D1F020912B02203240F021E003
:1006600030E0FC013383228380E090E015C080916C
:100670002C02E82FF0E0E55FFD4F998190838F5FBA
:1006800080932C0280932B0205C061E0CE0101967D
:100690000E94A50281E090E00F90DF91CF91089534
:1006A000089580E090E00895982F92959F70905D56
:1006B000FB0190838F70805D81830895009769F0BE
:1006C000FC0101900020E9F73197AF01481B590B5D
:1006D000BC0181E592E00C94A60080E090E00895D2
:1006E0000E94E0061F920F920FB60F9211242F93D3
:1006F0003F938F939F93AF93BF938091BA01909153
:10070000BB01A091BC01B091BD013091B90123E0C2
:10071000230F2D3720F40196A11DB11D05C026E839
:10072000230F0296A11DB11D2093B9018093BA0138
:100730009093BB01A093BC01B093BD018091BE0119
:100740009091BF01A091C001B091C1010196A11D7E
:10075000B11D8093BE019093BF01A093C001B093DF
:10076000C101BF91AF919F918F913F912F910F90B8
:100770000FBE0F901F9018951F920F920FB60F92F9
:1007800011242F933F934F935F936F937F938F9396
:100790009F93AF93BF93EF93FF938091B900887FAE
:1007A000803609F49CC068F5883209F45BC090F487
:1007B000803109F454C038F4882309F4F6C0883035
:1007C00009F44DC0F6C0883109F44CC0803209F4F8
:1007D0005DC0EFC0803409F468C048F4803309F488
:1007E00055C0883309F0E5C080930802D8C0803531
:1007F00009F44FC0883509F45DC0883409F0D9C0C8
:10080000D6C0883909F4C7C0A8F4883709F467C08E
:1008100038F4883609F463C0803709F460C0C9C071
:10082000883809F4B8C0803909F45FC0803809F00D
:10083000C0C05BC0803B09F486C038F4803A09F43C
:1008400066C0883A09F47FC0B4C0803C09F4A7C0F0
:10085000883C09F4A4C0883B09F48AC0AAC08091EE
:10086000E50110C09091070280910602981770F57B
:10087000E091070281E08E0F80930702F0E0EA51D9
:10088000FE4F80818093BB0085EC86C08093080278
:100890008EC0E091070281E08E0F80930702809165
:1008A000BB00F0E0EA51FE4F8083909107028091F7
:1008B00006026EC0E091070281E08E0F809307026E
:1008C0008091BB00F0E0EA51FE4F808380910902E5
:1008D00081116DC081E08093E40184EA61C083E00E
:1008E00080930A021092B801CFCF8091B801803274
:1008F00008F051C0E091B80181E08E0F8093B801FB
:100900008091BB00F0E0E856FE4F8083BDCF85ECC0
:100910008093BC0010920A028091B801803230F4BA
:10092000E091B801F0E0E856FE4F10826091B80106
:1009300070E0E0919601F091970188E991E00995C6
:100940001092B80136C084E080930A02109295019B
:1009500010929401E0919201F09193010995809198
:100960009401811105C081E080939401109272017D
:10097000E091950181E08E0F80939501F0E0EE58B3
:10098000FE4F80818093BB009091950180919401EE
:10099000981708F479CF85E88093BC000AC085ECED
:1009A0008093BC0010920A0204C0109208020E94B8
:1009B0009B02FF91EF91BF91AF919F918F917F919A
:1009C0006F915F914F913F912F910F900FBE0F90BC
:1009D0001F901895E5E4F2E01382128288EE93E00E
:1009E000A0E0B0E084839583A683B7838CE391E095
:1009F00091838083E1E5F2E0138212828EE491E03C
:100A00009183808388E0848389E085838AE086837C
:100A100084E0878385E0808786E0818787E082871E
:100A20001386148615861686178661E0CF010C940E
:100A3000E901CF93DF931F92CDB7DEB7789484B5E9
:100A4000826084BD84B5816084BD85B5826085BDCA
:100A500085B5816085BD80916E00816080936E0058
:100A6000109281008091810082608093810080914A
:100A700081008160809381008091800081608093FB
:100A800080008091B10084608093B1008091B000BB
:100A900081608093B00080917A00846080937A00B6
:100AA00080917A00826080937A0080917A008160E0
:100AB00080937A0080917A00806880937A00109207
:100AC000C10064E081E592E00E94E90180E00E94BB
:100AD000880286E591E00E945E038FE292E025E0C5
:100AE000280F2983F7E6AF2EF1E0BF2E04E312E0D2
:100AF000A0E08A2EA0E09A2E22242A94E5EE3E2E33
:100B000031E030932E0280E580932D0210922C026A
:100B100010922B0262E085E492E00E942103809112
:100B20002B02813208F046C090910A029111FCCF4D
:100B300092E090930A0291E09093090220920802B9
:100B40001092070280930602ABE0B2E0E6EEF1E01D
:100B50009E2F26EE31E0921B981718F49D919193E9
:100B6000F7CF1092E5018091E501806A8093E5015D
:100B70008091E401813071F41092E4018091E501EB
:100B80008093BB008091BC0083FDF8CF35EC30939F
:100B9000BC0002C03092BC0080910A028230E1F3B6
:100BA000809108028F3F31F080910802803211F06D
:100BB0008091080210922C0210922B0210922E02A9
:100BC00080910A028111FCCF81E080930A02809318
:100BD0000902209208021092070284E08093060224
:100BE00091E09093E5018091E501806A8093E501B1
:100BF0008091E401813071F41092E4018091E5016B
:100C00008093BB008091BC0083FDF8CFE5ECE093BE
:100C1000BC0002C03092BC0080910A028130E1F336
:100C200080910702853018F45090070202C075E0E9
:100C3000572EA6EEB1E0E4ECF1E08E2F24EC31E08B
:100C4000821B851518F48D918193F7CF1092C30103
:100C50005092C2016FE2662E62E0762E8091C3014F
:100C6000581659F02981261541F085E492E00E943A
:100C7000DD02F30181933F01F1CF80912F02809338
:100C80003E028091300280933F02809131028F7347
:100C90008093400240913202F42FFF737F2EF09335
:100CA000410220913302822F8F718093420250E0E3
:100CB00096E0559547959A95E1F74093430230E0C9
:100CC00045E0359527954A95E1F72093440262E384
:100CD00071E00E94540365E371E0872D0E94540384
:100CE00081E00E9488028CE291E00E945E0362E251
:100CF00071E0809140020E94540365E271E08091AE
:100D00003F020E94540368E271E080913E020E941B
:100D1000540382E00E9488028CE191E00E945E030D
:100D20008091440224E0829FC001112484509F4F8F
:100D30009F938F93BF92AF921F930F930E94E506EC
:100D400083E00E94880284E392E00E945E030E9496
:100D500025016B017C010F900F900F900F900F9069
:100D60000F9052E3452E512C612C712C0E942501CD
:100D7000DC01CB018C199D09AE09BF09883E934067
:100D8000A105B10558F031E0431A51086108710816
:100D900088EEC80E83E0D81EE11CF11C41145104FA
:100DA0006104710419F78114910409F4A9CE0E9419
:100DB0000000A2CEEE0FFF1F0590F491E02D0994E4
:100DC00081E090E0F8940C94BD09AEE0B0E0EBEE69
:100DD000F6E00C9494090D891E8986E08C831A83B1
:100DE00009838FEF9FE79E838D83AE01475E5F4F40
:100DF0006F89788DCE0101960E9408072F81388572
:100E0000F801E20FF31F10822E96E4E00C94B00973
:100E1000ACE0B0E0EEE0F7E00C9486097C016B01F9
:100E20008A01FC0117821682838181FFBDC1CE0138
:100E300001964C01F7019381F60193FD859193FF93
:100E400081916F01882309F4ABC1853239F493FD98
:100E5000859193FF81916F01853229F4B70190E06C
:100E60000E94F008E7CF512C312C20E02032A0F472
:100E70008B3269F030F4803259F0833269F42061AA
:100E80002CC08D3239F0803339F4216026C02260C5
:100E9000246023C0286021C027FD27C030ED380F13
:100EA0003A3078F426FF06C0FAE05F9E300D112438
:100EB000532E13C08AE0389E300D1124332E206249
:100EC0000CC08E3221F426FD6BC1206406C08C3626
:100ED00011F4206802C0883641F4F60193FD859133
:100EE00093FF81916F018111C1CF982F9F7D955400
:100EF000933028F40C5F1F4FFFE3F9830DC0833656
:100F000031F0833771F0833509F05BC022C0F801FE
:100F1000808189830E5F1F4F44244394512C5401D8
:100F200015C03801F2E06F0E711CF801A080B1808D
:100F300026FF03C0652D70E002C06FEF7FEFC50193
:100F40002C870E94E5082C0183012C852F77222E07
:100F500017C03801F2E06F0E711CF801A080B1805B
:100F600026FF03C0652D70E002C06FEF7FEFC50163
:100F70002C870E94DA082C012C852068222E830100
:100F800023FC1BC0832D90E048165906B0F4B7012E
:100F900080E290E00E94F0083A94F4CFF50127FC3B
:100FA000859127FE81915F01B70190E00E94F008D2
:100FB00031103A94F1E04F1A51084114510471F77D
:100FC000E5C0843611F0893639F5F80127FF07C0EE
:100FD00060817181828193810C5F1F4F08C06081A5
:100FE0007181072E000C880B990B0E5F1F4F2F7617
:100FF000722E97FF09C090958095709561957F4FEF
:101000008F4F9F4F2068722E2AE030E0A4010E948B
:101010002809A82EA81844C0853729F42F7EB22E9F
:101020002AE030E025C0F22FF97FBF2E8F36C1F0C5
:1010300018F4883579F0B4C0803719F0883721F07A
:10104000AFC02F2F2061B22EB4FE0DC08B2D846057
:10105000B82E09C024FF0AC09F2F9660B92E06C083
:1010600028E030E005C020E130E002C020E132E0BD
:10107000F801B7FE07C060817181828193810C5FA6
:101080001F4F06C06081718180E090E00E5F1F4FAE
:10109000A4010E942809A82EA818FB2DFF777F2EF7
:1010A00076FE0BC0372D3E7FA51450F474FE0AC0A7
:1010B00072FC08C0372D3E7E05C0BA2C372D03C008
:1010C000BA2C01C0B52C34FF0DC0FE01EA0DF11D94
:1010D0008081803311F4397E09C032FF06C0B39499
:1010E000B39404C0832F867809F0B39433FD13C002
:1010F00030FF06C05A2CB31418F4530C5B18B32CF1
:10110000B31468F4B70180E290E03C870E94F008D5
:10111000B3943C85F5CFB31410F43B1801C0312CC7
:1011200034FF12C0B70180E390E03C870E94F008D2
:101130003C8532FF17C031FD03C088E790E002C054
:1011400088E590E0B7010CC0832F867859F031FF15
:1011500002C08BE201C080E237FD8DE2B70190E072
:101160000E94F008A51438F4B70180E390E00E94D3
:10117000F0085A94F7CFAA94F401EA0DF11D80818A
:10118000B70190E00E94F008A110F5CF332009F4D8
:1011900051CEB70180E290E00E94F0083A94F6CF79
:1011A000F7018681978102C08FEF9FEF2C96E2E1D5
:1011B0000C94A209FC010590615070400110D8F711
:1011C000809590958E0F9F1F0895FC01615070408F
:1011D00001900110D8F7809590958E0F9F1F08956C
:1011E0000F931F93CF93DF93FB01238121FD03C056
:1011F0008FEF9FEF28C022FF16C0468157812481C0
:1012000035814217530744F4A081B1819D012F5FBE
:101210003F4F318320838C93268137812F5F3F4F4F
:101220003783268310C0EB01092F182F0084F18526
:10123000E02D0995892BE1F68E819F8101969F8390
:101240008E83812F902FDF91CF911F910F91089561
:10125000FA01AA27283051F1203181F1E8946F93E7
:101260006E7F6E5F7F4F8F4F9F4FAF4FB1E03ED08D
:10127000B4E03CD0670F781F891F9A1FA11D680F2B
:10128000791F8A1F911DA11D6A0F711D811D911D5E
:10129000A11D20D009F468943F912AE0269F1124D3
:1012A0003019305D3193DEF6CF010895462F477037
:1012B000405D4193B3E00FD0C9F7F6CF462F4F7092
:1012C000405D4A3318F0495D31FD4052419302D0F0
:1012D000A9F7EACFB4E0A695979587957795679596
:1012E000BA95C9F700976105710508959B01AC0196
:1012F0000A2E06945795479537952795BA95C9F7BD
:10130000620F731F841F951FA01D08952F923F9297
:101310004F925F926F927F928F929F92AF92BF9205
:10132000CF92DF92EF92FF920F931F93CF93DF93B1
:10133000CDB7DEB7CA1BDB0B0FB6F894DEBF0FBE0E
:10134000CDBF09942A88398848885F846E847D845B
:101350008C849B84AA84B984C884DF80EE80FD805D
:101360000C811B81AA81B981CE0FD11D0FB6F894D3
:0E137000DEBF0FBECDBFED010895F894FFCF94
:10137E0053554E004D4F4E005455530057454E0099
:10138E0054485500465249005341540054494D4566
:10139E003A2030302D30302D30300000444154454D
:1013AE003A2030302F303000000000002103F102CF
:1013BE005103CD02D100DD02CE0200000000E0019B
:1013CE00A600510350032A50434638353833204384
:1013DE006C6F636B2A2A005745454B3A20253373B1
:0213EE000000FD
:00000001FF
