:100000000C945C000C9479000C9479000C947900A9
:100010000C9479000C9479000C9479000C9479007C
:100020000C9479000C9479000C9479000C9479006C
:100030000C9479000C9479000C9479000C9479005C
:100040000C940B010C9479000C9479000C947900B9
:100050000C9479000C9479000C9479000C9479003C
:100060000C9479000C947900000000080002010053
:100070000003040700000000000000000000000072
:10008000250028002B0000000000240027002A0083
:10009000040404040404040402020202020203032E
:1000A0000303030301020408102040800102040836
:1000B000102001020408102011241FBECFEFD8E049
:1000C000DEBFCDBF11E0A0E0B1E0E8E4F4E002C0A3
:1000D00005900D92A232B107D9F721E0A2E2B1E07A
:1000E00001C01D92AC32B207E1F70E9455010C9499
:1000F00022020C94000090E0FC01EC55FF4F24918B
:10010000FC01E057FF4F8491882399F090E0880F1D
:10011000991FFC01EA57FF4FA591B491FC01E458E7
:10012000FF4F859194918FB7F894EC91E22BEC936B
:100130008FBF089590E0FC01E859FF4F3491FC0116
:10014000EC55FF4F2491FC01E057FF4FE491EE2363
:1001500009F43BC0332339F1333091F038F43130B6
:10016000A9F0323001F584B58F7D12C0373091F09F
:100170003830A1F03430B9F4809180008F7D03C015
:10018000809180008F77809380000DC084B58F7739
:1001900084BD09C08091B0008F7703C08091B0000A
:1001A0008F7D8093B000F0E0EE0FFF1FE458FF4F0B
:1001B000A591B4918FB7F894EC91611103C020958B
:1001C0002E2301C02E2B2C938FBF08953FB7F89498
:1001D0008091270190912801A0912901B0912A01D5
:1001E00026B5A89B05C02F3F19F00196A11DB11D92
:1001F0003FBFBA2FA92F982F8827820F911DA11DCD
:10020000B11DBC01CD0142E0660F771F881F991F09
:100210004A95D1F708951F920F920FB60F921124AD
:100220002F933F938F939F93AF93BF93809123011D
:1002300090912401A0912501B091260130912201D5
:1002400023E0230F2D3720F40196A11DB11D05C019
:1002500026E8230F0296A11DB11D20932201809351
:10026000230190932401A0932501B093260180914E
:10027000270190912801A0912901B0912A010196AE
:10028000A11DB11D8093270190932801A0932901FE
:10029000B0932A01BF91AF919F918F913F912F9180
:1002A0000F900FBE0F901F901895789484B58260C0
:1002B00084BD84B5816084BD85B5826085BD85B50A
:1002C000816085BD80916E00816080936E00109288
:1002D0008100809181008260809381008091810003
:1002E0008160809381008091800081608093800094
:1002F0008091B10084608093B1008091B0008160F2
:100300008093B00080917A00846080937A0080911D
:100310007A00826080937A0080917A008160809375
:100320007A0080917A00806880937A001092C100F0
:1003300010922B01C0912B01C73058F4EC2FF0E044
:10034000E85FFE4F80810E947B00CF5FC0932B014E
:10035000F1CF10922B01C0912B01C83058F4EC2F33
:10036000F0E0E050FF4F80810E947B00CF5FC093A0
:100370002B01F1CF20E0E22E20E0F22E10922B0193
:10038000C0912B01C83008F056C080E0C82E81E033
:10039000D82ED0E00C2F10E000501F4FCD1719F0D1
:1003A00060E0F60102C061E0F80180810E949A00DD
:1003B000DF5FFFEFCF1ADF0AD83081F7EC2FF0E0D4
:1003C000E65EFE4FE081F0E0E05FFE4FA08098E047
:1003D000C92E91E0D92E00E010E0B12CC501002E0D
:1003E00002C0959587950A94E2F780FF02C061E00C
:1003F00001C060E0F60180810E949A000F5F1F4FEC
:10040000FFEFCF1ADF0A0830110541F70E94E6001E
:100410004B015C010E94E600DC01CB0188199909BF
:10042000AA09BB09883E9340A105B10598F3CF5FA7
:10043000C0932B01A5CFE114F10409F49FCF0E94D2
:0804400000009CCFF894FFCFEF
:100448000C0D0E0F101112130203040506070809FC
:10045800C0F9A4B0999282F88090020001080102C4
:0204680001058C
:00000001FF
