:040000000C9431002B
:040010000C94DB0071
:140054003F065B4F666D7D077F6F01020304CFE5D4E0CDBF66
:14006800DEBFC451D0400AEA08830024EEE6F0E010E0EF3666
:14007C00F10711F00192FBCF0083E4E5F0E0A0E6B0E010E0F8
:14009000E236F10721F0C89531960D92F9CF0E94BB00FFCF85
:1400A4000E94EC0006C04AEF01C04A954423E9F70A95002312
:1400B800C1F70E94EF0008950E940701580141E0662716C0C7
:1400CC0048BBE62FFF27EA0DFB1DE081FF2780E690E0E80F7F
:1400E000F91F208033248FEF90E0821993098BBB01E0D8DFFA
:1400F400440F6395643040F30E94E90008958FEF8ABB8BBBB5
:1401080087BB88BB84BB85BB0895C8010396FC0180818F5FF4
:14011C008083F80183818A3049F42224F8012382C801029693
:14013000FC0180818F5F8083F8018281863049F42224F8019E
:140144002282C8010196FC0180818F5F8083F80181818A30FF
:1401580039F42224F8012182F80180818F5F8083F80180819F
:14016C00863011F4222420820895C5DF8FEF8BBB222428BAAF
:140180000AE090DF8FEF88BB88E082BD87E085BD80E489BF55
:1401940078940DC00AE610E091DF80916E00803231F4222492
:1401A80020926E000AE610E0B0DFF2CF08958A939A938FB7C6
:1401BC008A9380916E008F5F80936E0089918FBF9991899178
:1401D0001895E4E00C94F0005A934A930895E1E0499159912E
:1401E400E0FD089569917991E1FD0895A990B990E2FD089510
:1401F800C990D990E3FD0895E990F99008957A936A930C946B
:0A020C00EC00BA92AA920C940301D0
:00000001FF
