:100FF0005765696768743A20202E2020204B6720AF
:101000000050726963653A2000546F74616C3A2035
:10101000202020202020202020004552524F522105
:0E10200021214F5554204F462052414E474546
:100F1B00013DFF0C3100000000000000000000004C
:100F2B0000012000013000010D00013E00012300F3
:100F3B00010E000110000424000000000428000032
:100F4B000000042C00000000040800000000013F1A
:0A0F5B0000010C00014100014000FC
:100F66007FF47E01121121E4F52112106A7D017FC2
:100F76000112110A7A0F7BF0E4FDFF1210361210EF
:100F86002EE4FF120D2E8F211211D5120C69120FAD
:100F9600AF120E478F227F057E00121121E520B485
:090FA60001DFAF22120B3080D8EC
:10112100E4FDFCC3ED9FEC9E5015E4FBFA0BBB0004
:0F113100010AEB643C4A70F50DBD00010C80E42F
:01114000228C
:0B10FF007F057E00121121E4FD7F3808
:10110A008F5FED6003121180855F80C2A0C2A1D2F9
:07111A00A2000000C2A222A6
:09119E007F017E001211217F2067
:1011A7008F5F121180855F80D2A0C2A1D2A20000FA
:0411B70000C2A222AE
:101180007580FFD2A2C2A0D2A1000000E58030E7A6
:0E1190000AC2A20000D2A2000080F1C2A22278
:10106A00E4F5807F0FFE1211031210FF1210FF7FAA
:10107A00057E001211217D017F3812110A7D017F40
:10108A000812110A7D017F0112110A7D017F0612E1
:09109A00110A7D017F0C02110A0C
:051141002430FBE4FD79
:101146008B5E53050153070FED60034307404307CA
:0B115600807D0112110AAF5E0211A79C
:08102E007A107B017D01E4FF53
:081036008F598D5A8A5B8B5C17
:10103E00E4F55D535A0153590FE559C39410501BF3
:10104E00E55C255DF582E4355BF583E493FBAD5AF3
:0B105E00AF59121146055D055980DEF8
:011069002264
:1010A300784F7C007D007BFF7A10791A7E007F08E1
:1010B300120A95E4F557744F2557F8E6FB7D02AF06
:0D10C300571211460557E557D3940740E931
:0110D00022FD
:1010D10078437C007D007BFF7A1079227E007F0CB3
:1010E100120A95E4F54274432542F8E6FB7D02AF0E
:0D10F100421211460542E542D3940B40E93E
:0110FE0022CF
:0211BB00AB0780
:1011BD007F017E00EB600A7C007D0A120ABB1B805A
:0711CD00F3EE3395E0FDFC99
:0111D40022F8
:100E4700E4F558F5597590F0E590F454F0605D7F3E
:100E57000A7E00121121E590F454F0604F752001CD
:100E67007590FEE590F4540F6042E590F454F060FD
:100E770031E590F454F024E0601124E0601224C0BE
:100E8700601324707012E4F559800D7559018008BC
:100E97007559028003755903E55825E025E0255962
:100EA700FF22E59025E0F590055880B7E4F520AFDF
:010EB7002218
:010EB8002217
:100FAF007D017F0C12110A7A0F7BF0E4FDFF121006
:100FBF003612102EE53F7F08121141E50C7F0A1201
:100FCF001141E5412430FBE4FD7F0B121146E54052
:100FDF002430FBE4FD7F0C1211467FE87E030211E3
:010FEF0021E0
:100B30008F587D017F0C12110A12102EE558B41047
:100B4000004003020C68900B4DF8282873020B7DBF
:100B5000020B80020B8F020BA9020BB6020BC5021F
:100B60000BD4020BE3020BF3020C01020C0F020C7C
:100B70001D020C2D020C3B020C49020C57020EB94F
:100B80001211617431253DF8E4F67F30020C6512D4
:100B900011617F3D1211A7740A250DF50D853D10D9
:100BA000120000120000020000121161050D853DC7
:100BB0000E7F2B020C651211617431253DF8760110
:100BC0007F31020C651211617431253DF876027F88
:100BD00032020C651211617431253DF876037F33C2
:100BE000020C651211617405250DF50D853D0E7F12
:100BF0002D80721211617431253DF876047F3480A6
:100C0000641211617431253DF876057F35805612E6
:100C100011617431253DF876067F368048121161E6
:100C20007419250DF50D853D0E7F2A80381211614E
:100C30007431253DF876077F37802A1211617431AF
:100C4000253DF876087F38801C1211617431253DEE
:100C5000F876097F39800E121161747D250DF50D2E
:090C6000853D0E7F2F1211A72221
:100EB900E590F454F070F9755907E55924C0FF7DA0
:100EC9000112110A12119E0559E559D3940F40EAEE
:100ED900E4F559E55924C0FF7D0112110A12119E4A
:100EE9000559E559D3940F40EA753DFFE4F510F52E
:100EF9000EF530F50DF523F53EF52BF52AF529F517
:100F090028F527F526F525F524F52FF52EF52DF5E8
:010F19002CAB
:010F1A0022B4
:10116100753D06053DE53DB40F03753D07E53D249D
:0F117100C0FF7D0112110AE590F454F070F922CD
:100D2E00E4F9EF70027F02BF01027F03D2B7000029
:100D3E00C2B50000D2B60000C2B60000D2B6EF13A4
:100D4E0092B70000C2B60000D2B6EFC3131392B72B
:100D5E000000C2B6D2B70000E4FAFBFDA2B7E4333E
:100D6E004203D2B60000C2B60000EB25E0FBEA3328
:100D7E00FABD0706A2B7E43342030DBD08DEE4FD5B
:100D8E00E4A2B733D2B60000C2B60000C433333388
:100D9E0054804201EDC394075004E9C313F90DBD0D
:0C0DAE0008DED2B5C2B6D2B7E9FBAF0335
:010DBA002216
:100C6900E4C395217E0050047F0180027F00C3EE1A
:090C7900648094814003020D2DFA
:100C8200755C0085215DAC5CAD5DEC12090B7BE50A
:100C92007AFF799F783C1208008F5B8E5A8D598CAF
:100CA20058E4FFFE7D7A7C44AB5BAA5AA959A85846
:100CB200120800120944AB07AA067C037DE8120A57
:100CC200CD8F3F7C037DE8AF03AE02120ACD7E00DA
:100CD2007F64CFCDCFCECCCE120ACD8F0C7C037DDC
:100CE200E8AF03AE02120ACD7E007F64CFCDCFCE35
:100CF200CCCE120ACD7E007F0ACFCDCFCECCCE1283
:100D02000ACD8F41AE02AF037C037DE8120ACD7E8D
:100D1200007F64CFCDCFCECCCE120ACD7E007F0A2B
:0B0D2200CFCDCFCECCCE120ACD8D403D
:010D2D0022A3
:1011D500C3748094814004C2B08002D2B0E521D3AB
:0A11E50094005003C2B122D2B122DF
:10080000EC4D6011E8497017ED33EC3304600DE4F2
:10081000FCFFFEFD22E933E8330470F80209B01250
:10082000097B58046009E4CC248150062850090251
:1008300009BA2840030209B7C0E0EB4A7044B98006
:1008400006D0E0FB0209A6EF4E701CBD8008EBFF4E
:10085000EAFEE9FD80EBE98DF0A4FEE5F00208E98F
:10086000E9CDF9EAFEEBFFEF89F0A4FCE5F0CE89D3
:10087000F0A42EFFE435F0CD89F0A42DFEE435F090
:100880008067EF4E7005BD80D780C3EF8BF0A4ACBE
:10089000F0EE8BF0A42CFCE435F0F8EF8AF0A42CF9
:1008A000E5F038FCE433CB8DF0A42CFCE5F03BF80C
:1008B000EE8AF0A42CFCE5F038F8E433CF89F0A4FC
:1008C0002CFCE5F038CF3400CE89F0A42FFFE5F002
:1008D0003EFEE433C98DF0A42EFEE5F039CD8AF05A
:1008E000A42FFFE5F03EFEE43DFD33D0E0FB5007D2
:1008F0000BBB000F0209BAEC2CFCEF33FFEE33FE0A
:06090000ED33FD02099237
:1009060075F020800E75F010800575F0087D007E6C
:10091600007F003392D530D503120B22EC33401002
:10092600EF33FFEE33FEED33FDEC33FCD5F0ED2275
:0E093600E5F0247EA2D513CC92E7CDCEFF22B1
:10094400EDD2E7CD33EC3392D524814006E4FFFEAB
:10095400FDFC22FCE4CFCECDCC24E0501174FF800A
:10096400EDC3CC13CCCD13CDCE13CECF13CF0470A7
:07097400F030D5DE020B227A
:10097B00E9D2E7C933E833F892D5EDD2E7CD33ECC2
:07098B0033FC5002B2D5223B
:10099200EC30E7100FBF000C0EBE00080DBD0004C6
:1009A2000BEB6014A2D5EB13FCED92E7FD2274FF72
:1009B200FCFDFEFF22E480F8A2D574FF13FC7D80CB
:0309C200E480EFDF
:03000000020DBB33
:0C0DBB00787FE4F6D8FD75815F020E021F
:1009C500E709F608DFFA8046E709F208DFFA803E14
:1009D50088828C83E709F0A3DFFA8032E309F60801
:1009E500DFFA8078E309F208DFFA807088828C8369
:1009F500E309F0A3DFFA806489828A83E0A3F6081D
:100A0500DFFA805889828A83E0A3F208DFFA804CF6
:100A150080D280FA80C680D4806980F280338010CD
:100A250080A680EA809A80A880DA80E280CA803336
:100A350089828A83ECFAE493A3C8C582C8CCC583AE
:100A4500CCF0A3C8C582C8CCC583CCDFE9DEE7807E
:100A55000D89828A83E493A3F608DFF9ECFAA9F0FD
:100A6500EDFB2289828A83ECFAE0A3C8C582C8CC53
:100A7500C583CCF0A3C8C582C8CCC583CCDFEADE6C
:100A8500E880DB89828A83E493A3F208DFF980CCCE
:100A950088F0EF60010E4E60C388F0ED2402B404C7
:100AA5000050B9F582EB2402B4040050AF2323456E
:060AB5008223900A157374
:100ABB00EF8DF0A4A8F0CF8CF0A428CE8DF0A42E4F
:020ACB00FE2209
:100ACD00BC000BBE0029EF8DF084FFADF022E4CC0D
:100ADD00F875F008EF2FFFEE33FEEC33FCEE9DECD6
:100AED00984005FCEE9DFE0FD5F0E9E4CEFD22ED1C
:100AFD00F8F5F0EE8420D21CFEADF075F008EF2F66
:100B0D00FFED33FD4007985006D5F0F222C398FD56
:050B1D000FD5F0EA22F3
:0E0B2200C3E49FFFE49EFEE49DFDE49CFC22E4
:100DC700020F66E493A3F8E493A34003F68001F2CD
:100DD70008DFF48029E493A3F85407240CC8C3332D
:100DE700C4540F4420C8834004F456800146F6DFFC
:100DF700E4800B0102040810204080900F1BE47E62
:100E0700019360BCA3FF543F30E509541FFEE493F0
:100E1700A360010ECF54C025E060A840B8E493A3B7
:100E2700FAE493A3F8E493A3C8C582C8CAC583CAE2
:100E3700F0A3C8C582C8CAC583CADFE9DEE780BE9A
:010F6500008B
:00000001FF
