:0608A20003E80064000AF7
:100880000114000B15C0F9A4B0999282F88090FF72
:06089B007F1B0000DFFEE0
:0108A1002234
:03085C00F8E6FFBC
:10085F00E4FEEF30E704D2B68002C2B6EF25E0FF28
:10086F00C2B50000D2B500000EBE08E6C2B500004A
:01087F002256
:0A089100C2B700D2B700C2B70022C0
:1007D900E4FDFC12089BD28212089BC28212089B7C
:1007E900D281FB12089BC281ED25E0FFEC33FEA20A
:1007F90080E433FDEEFCEF4DFD12089BD2810BBB6B
:0608090010E1AE04AF0592
:01080F0022C6
:0A06B6008E248F258B268A278928C1
:1006C00078297C007D007BFF7A0879A27E007F0676
:1006D000120430E4FFAB26AA27A9288F8275830075
:1006E000E41204E1EF25E02429F8E6FC08E6FDC366
:1006F000E5259DE5249C401CE5259DF525E5249CEC
:10070000F524AB26AA27A9288F82758300740112CD
:10071000049C80D00FBF03BDAB26AA27A928900058
:1007200003E5251204E11204567021AB26AA27A97D
:1007300028740A1204CFAB26AA27A9289000011218
:0C074000046F7008900001740A1204E1BC
:01074C00228A
:10051100E4F513F512F511F510F524E4F514F50BD6
:10052100F50AF509F508F5251207D9AC06AD07E47A
:100531001202A6E4FBFA79A078401200FBE4FBFA70
:1005410079807847120204E4FBFAF978C012000AB4
:100551008F238E228D218C20AB0BAA0AA909A80812
:10056100C000C001C002C003A804A905AA06AB07C8
:100571001200FBD003D002D001D00012000A8F0B71
:100581008E0A8D098C080525E525C394284099E438
:10059100FBFA79207842AF0BAE0AAD09AC08120222
:1005A10004120610E4FBFA799D78431200FBE4FB88
:1005B100FAF97840120204E4FBFA7920784112003A
:1005C100FB8F0B8E0A8D098C08AF13AE12AD11ACE7
:1005D10010AB0BAA0AA909A80812000A8F138E12E0
:1005E1008D118C100524E524C39414500302051CBD
:1005F100AF13AE12AD11AC10E4FBFA79A078411241
:0A06010002048F138E128D118C106D
:01060B0022CC
:100810007415250F12085C7415250EF8E6547FFF39
:1008200012085F7415250D12085C7415250CF8E686
:07083000FF12085F020891AE
:10083700E4F593F594F5B1F5B2120511AF13AE12C5
:10084700AD11AC101202DF7B007A00790C1206B6EC
:0508570012081080E40E
:1000030002034BE86480F8E933E83360110460F0DD
:10001300ED33EC337009E8FCE9FDEAFEEBFF220463
:1000230060DED3EB9FEA9EE99DE8C2E78CF0C2F75E
:1000330095F0400CE8CCF8E9CDF9EACEFAEBCFFB2A
:1000430012031685D0F05804700320D5B3E804706A
:10005300075002B2D502035592D5EC0460F7E4CC05
:10006300C0E0C398F8603B94186008400DD0E0FBF3
:1000730002032DE4FBFAC9FC8028E830E406E4C956
:10008300FBE4CAFCE830E305E4C9CACBFCE8540747
:100093006010F8C3E913F9EA13FAEB13FBEC13FC52
:1000A300D8F130F52FC3E49CFCEF9BFFEE9AFEEDF5
:1000B30099FDD0E0FBEF4E4D4C701222DB0302039F
:1000C30052EC2CFCEF33FFEE33FEED33FDED30E766
:1000D300EB02032DEF2BFFEE3AFEED39FDD0E0FBF3
:1000E30050130BBB0003020355ED13FDEE13FEEF9C
:0800F30013FFEC13FC02032DC6
:1000FB00EC4D6011E8497017ED33EC3304600DE4FF
:10010B00FCFFFEFD22E933E8330470F802034B12C7
:10011B00031658046009E4CC2481500628500902C8
:10012B000355284003020352C0E0EB4A7044B980E8
:10013B0006D0E0FB020341EF4E701CBD8008EBFFC5
:10014B00EAFEE9FD80EBE98DF0A4FEE5F00201E4A7
:10015B00E9CDF9EAFEEBFFEF89F0A4FCE5F0CE89DF
:10016B00F0A42EFFE435F0CD89F0A42DFEE435F09C
:10017B008067EF4E7005BD80D780C3EF8BF0A4ACCA
:10018B00F0EE8BF0A42CFCE435F0F8EF8AF0A42C05
:10019B00E5F038FCE433CB8DF0A42CFCE5F03BF818
:1001AB00EE8AF0A42CFCE5F038F8E433CF89F0A408
:1001BB002CFCE5F038CF3400CE89F0A42FFFE5F00E
:1001CB003EFEE433C98DF0A42EFEE5F039CD8AF066
:1001DB00A42FFFE5F03EFEE43DFD33D0E0FB5007DE
:1001EB000BBB000F020355EC2CFCEF33FFEE33FE81
:0601FB00ED33FD02032DAF
:10020100020355EC5D046005E85904700302034BD9
:10021100120316580460F6EC4860F2EC7004FDFE1F
:10022100FF22C860DB2481C85009C39860025006D0
:100231000203529850CAF582E9294B4A7005AB82F4
:1002410002034175F0007C1A7880C3EF9BEE9AEDB2
:1002510099400DC3EF9BFFEE9AFEED99FDE842F048
:10026100DC23ACF0D0E0FFD0E0FED0E0FDAB82209B
:10027100E7101BEB60BAEC2CFCEF33FFEE33FEED25
:1002810033FD02032DE803F830E705C0F075F000F7
:10029100EF2FFFEE33FEED33FD40B830E7C280AA09
:1002A10075F020800E75F010800575F0087D007ED8
:1002B100007F003392D530D503120503EC33401093
:1002C100EF33FFEE33FEED33FDEC33FCD5F0ED22E1
:0E02D100E5F0247EA2D513CC92E7CDCEFF221D
:1002DF00EDD2E7CD33EC3392D524814006E4FFFE17
:1002EF00FDFC22FCE4CFCECDCC24E0501174FF8076
:1002FF00EDC3CC13CCCD13CDCE13CECF13CF047013
:07030F00F030D5DE0205030A
:10060C0002034B22EDA2E7D2E7F9EC3340F260F3A0
:10061C00B4FF08ED547F70E8020355F82481C2E062
:10062C00C0E0F40428FAC313FCED92E7FD8C268D90
:10063C00278E288F29EEA2E7E9BA7F02C313340074
:10064C009400FA75F091A4E5F013F494FE8AF0A4EA
:10065C0033E5F033248CD313FDE492E7FE7F007C6A
:10066C003F758302ECC0E0F8EDC0E0F9EEC0E0FAB3
:10067C00EFC0E0FBAC26AD27AE28AF29120204D0A8
:10068C00E0FBD0E0FAD0E0F9D0E0F812000AED641B
:10069C0080FD30E7011CD583CBED33CC33F8D0E0B3
:0A06AC00A2E71328C313CC13FD22AC
:10031600E9D2E7C933E833F892D5EDD2E7CD33EC2D
:0703260033FC5002B2D522A6
:10032D00EC30E7100FBF000C0EBE00080DBD000431
:10033D000BEB6014A2D5EB13FCED92E7FD2274FFDD
:10034D00FCFDFEFF22E480F8A2D574FF13FC7D8036
:03035D00E480EF4A
:0300000002074DA7
:0C074D00787FE4F6D8FD75812E02079439
:10036000E709F608DFFA8046E709F208DFFA803E7F
:1003700088828C83E709F0A3DFFA8032E309F6086C
:10038000DFFA8078E309F208DFFA807088828C83D4
:10039000E309F0A3DFFA806489828A83E0A3F60888
:1003A000DFFA805889828A83E0A3F208DFFA804C62
:1003B00080D280FA80C680D4806980F28033801039
:1003C00080A680EA809A80A880DA80E280CA8033A2
:1003D00089828A83ECFAE493A3C8C582C8CCC5831A
:1003E000CCF0A3C8C582C8CCC583CCDFE9DEE780EA
:1003F0000D89828A83E493A3F608DFF9ECFAA9F069
:10040000EDFB2289828A83ECFAE0A3C8C582C8CCBE
:10041000C583CCF0A3C8C582C8CCC583CCDFEADED7
:10042000E880DB89828A83E493A3F208DFF980CC39
:1004300088F0EF60010E4E60C388F0ED2402B40432
:100440000050B9F582EB2402B4040050AF232345D9
:0604500082239003B0734B
:10045600BB010689828A83E0225002E722BBFE02A4
:09046600E32289828A83E49322D7
:10046F00BB010CE58229F582E5833AF583E0225042
:10047F0006E92582F8E622BBFE06E92582F8E2228C
:0D048F00E58229F582E5833AF583E49322A6
:10049C00BB010FF8E58229F582E5833AF583E02864
:1004AC00F0225009C58229F8E58226F622BBFE0906
:1004BC00C58229F8E22582F222F8EA2583F583E940
:0304CC0093282250
:1004CF00BB010689828A83F0225002F722BBFE010C
:0204DF00F32206
:1004E100F8BB010DE58229F582E5833AF583E8F051
:1004F100225006E92582C8F622BBFE05E92582C8FD
:02050100F222E4
:0E050300C3E49FFFE49EFEE49DFDE49CFC2209
:10075900020837E493A3F8E493A34003F68001F277
:1007690008DFF48029E493A3F85407240CC8C333A1
:10077900C4540F4420C8834004F456800146F6DF70
:10078900E4800B0102040810204080900880E47E78
:10079900019360BCA3FF543F30E509541FFEE49365
:1007A900A360010ECF54C025E060A840B8E493A32C
:1007B900FAE493A3F8E493A3C8C582C8CAC583CA57
:1007C900F0A3C8C582C8CAC583CADFE9DEE780BE0F
:010890000067
:00000001FF
