:06012600010900010801BF
:08011D007F0C7EA9DEFEDFFC71
:0101250022B7
:10010000AD07AC06ED1D70011C144C600512011DFD
:0301100080F22258
:10008F00E50824FE602114603814604C240370606E
:10009F00D280D281C282C283D284D2857FB87E0BB6
:1000AF00120100750802227FF47E01120100B28155
:1000BF00D2820509E509640A7036E4F5097508036B
:1000CF0022C280D281D282D283D284C2857FB87E6F
:1000DF000B120100750804227FF47E01120100B299
:1000EF0084D2850509E509B40A06E4F50975080106
:0100FF0022DE
:0A011300E4F593F59412008F80FBD1
:03000000020003F8
:0C000300787FE4F6D8FD75810902004A00
:10000F00020113E493A3F8E493A34003F68001F2F3
:10001F0008DFF48029E493A3F85407240CC8C333F2
:10002F00C4540F4420C8834004F456800146F6DFC1
:10003F00E4800B0102040810204080900126E47E2A
:10004F00019360BCA3FF543F30E509541FFEE493B6
:10005F00A360010ECF54C025E060A840B8E493A37D
:10006F00FAE493A3F8E493A3C8C582C8CAC583CAA8
:10007F00F0A3C8C582C8CAC583CADFE9DEE780BE60
:01012C0000D2
:00000001FF
