:1015B400204541444F4753204C43442054657374A1
:1015C400200055433137303153495A453A3130328E
:0415D4007836340031
:1000030063220592653E00FFFFFFFFE0E0E0E0E7CB
:10001300E7E7E7E7E7E7E7E7E7E7E7E0E0E0E0FF71
:10002300FFFFFF0000007FFFFFFFFF1818181800F5
:1000330000001F1F1F1F67E7E7E70000000000180D
:10004300181818181818E7E7E7E700000000FFFF83
:10005300FFFFE0E0E0E0E7E7E7E7E7E7E7E7E7E719
:10006300E7E7E0E0E0E0FFFFFF7F0000FFFFFFFFC7
:1000730001010101F9F9F9F9F9F9F9F9F9F9F9F9CD
:1000830001010101FFFFFFFF00000007070707074A
:10009300C0C0C0C03F3F3FC0C0C0C039393939FEBE
:1000A300FEFEFEFE3F3F3FFEFEFEFE070707070084
:1000B300000000FFFFFFFF01010101F9F9F9F9F960
:1000C300F9F9F9F9F9F9F901010101FFFFFFFF005E
:1000D30000C1C1C1C1C0C0C0C0CFCFCFCFCECECE73
:1000E300CECFCFCFCFC1C1C1C1CECECECE010101C4
:1000F300FEFEFEFEFE3E3E3E3EC1C1C100000000CC
:100103008ECECECE3030303030F1F1F13E3E3E3E39
:10011300FFFFFFFF0E0E0E0ECECECECECFCFCFCF34
:10012300C0C0C0C0C0C0C0C0CECECECECFCFCFCF58
:10013300CECECECE0000E3E3E3E360606060E3E3B2
:10014300E3E363636363E3E3E3E3E0E0E0E0636388
:1001530063639C9C9C636363636303030303808007
:1001630080030303037F7F7F7F0303030303FCFCFD
:10017300FC00000000E0E0E0E01C1C1C1C1F1F1F33
:100183001F9C9C9C9C1F1F1F1F60606060030303D8
:1001930003E3E3E3E37F7F7F7F0000FFFFFFFF00D5
:1001A300000000FFFFFFFF9F9F9F9FFFFFFFFF1CBC
:1001B3001C1C1C9C9C9C9C1C1C1C1C9C9C9C9CE3B5
:1001C300E3E3E31C1C1C9C9C9C9C9F9F9F9FE0E083
:1001D300E0E0E07F7F7F7C7C7C7C1F1F1F1F1C1C5B
:1001E3001C18808080807C7C7C7C9C9C9C9C7F7F7A
:1001F3007F7F80808080FCFCFCFC9F9F9F1F000012
:10020300C7CFCFCF0E0E0E0ECECECECECECECECE0F
:100213000E0E0E0ECECECECECFCFCFCFC0C0C030BF
:1002230030303038FFFFFFFFCFCFCF0F0F0F0F0F4F
:100233000E0E0E3F3F3F3F3F01010131313131FF90
:10024300FFFFFFC0C0C0C0CECECECEC0C0C0C0FF77
:10025300FFFFFF3F3F3F3FFEFEFEFE0E0E0E0E0E64
:100263000E0E060000FFFFFFFF000000003F3F3FB0
:100273003F3F3F3F3F3F3F3F3F00000000FFFFFF47
:10028300FF0000003F3F3F3F3FFFFFFFFFCECECECB
:10029300F1F1F1F13E3E3E3ECECECECECEF1F1F1C6
:1002A300F0F0F0F0F1F1F1F13E3E3E3E3E3E3E3ED7
:1002B30031313131FEFEFEFCF0F0F0F03F3F3F3FC5
:1002C300303030300F0F0F0F0000FCFCFCFC0C0C27
:1002D3000C0C8C8C8C8C8C8C8C8C8C8C8C8C0C0C5B
:1002E3000C0CFCFCFCFC0000008080808080FCFC8B
:1002F300FCFC0000008C8C8C8C7070707000000013
:100303000000FCFCFC70707070F0F0F0F00C0C0C52
:100313000C0C0C0C0CFCFCFCFC7C7C7C7C7C7C7C4A
:060323007C8C8C8C8C0C1C
:101693007D0C7CA9EF1FAA0670011E4A6006DCFEC2
:0416A300DDFC80F0FA
:0116A7002220
:10103E00E49008B5F0F593F5941215FB1214DB7BD2
:10104E00FF7A1579B4E49008BCF0FDFF120F827B95
:10105E00FF7A1579C6E49008BCF0FD7F01120F826D
:10106E00E49008BAF07B147D65FF120DDB9008B694
:10107E007421F09008B47403F0E49008B5F0900871
:10108E00B5E0FDD3945E50219008B4E0FF9008B611
:10109E00E0FE04F0EEFB7A00E49008C2F01210E6D7
:1010AE009008B5E02408F080D59008B4E004F0E094
:1010BE00D3940740C47F647E001216931214DB7B18
:1010CE00017A057992E49008BBF0FD1213A27FC855
:0810DE007E0012169302104A75
:0B16A800E21000A7A640A5A40000006F
:10032900624C00010000000000000000FA0000001B
:1003390000E000E0000028FE28FE28002454FE54B6
:100349004800C4C8102646006C926A040A000010CE
:10035900E0C00000003844820000008244380000F8
:100369005438FE38540010107C10100000021C187C
:10037900000010101010100000000606000004080C
:10038900102040007C8A92A27C000042FE020000FC
:1003990042868A926200848292B2CC00182848FE72
:1003A9000800E4A2A2A29C003C5292920C00828412
:1003B9008890E0006C9292926C006092929478001E
:1003C9000000280000000000022C00000010284452
:1003D900820028282828280000824428100040800C
:1003E9008A9060007C82BA9A72003E4888483E0032
:1003F900FE9292926C007C8282824400FE8282820A
:100409007C00FE9292928200FE90909080007C8205
:1004190092925E00FE101010FE000082FE82000023
:10042900040282FC8000FE1028448200FE020202BF
:100439000200FE403840FE00FE201008FE007C82CB
:1004490082827C00FE90909060007C828A847A008F
:10045900FE9098946200649292924C008080FE8093
:100469008000FC020202FC00F8040204F800FC020D
:100479001C02FC00C6281028C600C0201E20C0008F
:10048900868A92A2C20000FE828282004020100861
:10049900040000828282FE00204080402000010189
:1004A9000101010000C0E0100000042A2A2A1E00F0
:1004B900FE1422221C001C22222214001C222214B7
:1004C900FE001C2A2A2A180000107E9040001825D8
:1004D90025253E00FE1020201E000022BE0200003D
:1004E90000040202BC0000FE081422000082FE0281
:1004F90000003E201E201E003E1020201E001C224F
:1005090022221C003F1824241800182424183F0014
:100519003E1020201000122A2A2A24002020FC2222
:1005290024003C0202043E003804020438003C0264
:100539000C023C00221408142200320909093E0069
:1005490022262A32220000106C8200000000EE00F0
:10055900000000826C1000004080402040000060D4
:10056900909060000000FE828282828282FE0000FA
:10057900410000004105910041024D084105900FDD
:1005890050024E40A1C8A4A6A22F27810FFA90AF0E
:03059900B010009F
:1015D800E0FBA3E475F001120CAFA9F0FA120C5766
:0115E800FF03
:1015E900E4FEEF25E0FF9280C281D2810EEEB408BD
:0115F900F100
:0115FA0022CE
:1015FB00C284D284C283C2827B017A02794E7D0D72
:10160B00121586D28390025E7466F0A37408F022E2
:1015570078197C097D017BFF7A1679A87E007F01C7
:10156700120C317B017A0979197D011215869009D0
:0F1577001974AEF07B017A0979197D010215868E
:101586009008D2EBF0A3EAF0A3E9F0A3EDF0C28352
:10159600C2829008D5E0FF14F0EF600F9008D212D7
:0E15A60015D87F027E0012169380E7D28322B2
:10132500E075F066A4FF900900E07C002FFFEC3526
:0E133500F0FE74602FF974023EFA7B017D0118
:101343009008CBEBF0A3EAF0A3E9F0C283D282EDDD
:10135300604A9008CBE0FBA3E0FAA3E0F9120C5734
:10136300FF900591E0FE900000E075F066A42EF575
:1013730082E435F0F583E5822460F582E583340267
:10138300F583EFF0900591E004F0E0D3946540031A
:0F1393007465F09008CB1215D81D80B3D2832259
:07118900E0FF900900E0FD0A
:081190009008CBEFF0A3EDF095
:10119800E49008CEF0A3F078D07C087D017BFF7A3C
:1011A8001679A9FE7F02120C319008CBE0D3940780
:1011B80040037407F09008CCE0D39465400374654D
:1011C800F09008CBE0FDF40424B79008CDF090002F
:1011D80000EDF09008CCE0900591F0540F9008CF06
:1011E800F0FD9008CCE054F09008CEF0E0C4540F25
:1011F800FFF09008D0EDF0EF2410A3F07B017A08FF
:1012080079CD7D011215867B017A0879D07D02029D
:02121800158639
:10161B00781A7C097D017BFF7A1679AB7E007F01FE
:0E162B00120C317B017A09791A7D01021586B5
:10163900781B7C097D017BFF7A1679AC7E007F01DE
:0E164900120C317B017A09791B7D0102158696
:05151D00900913EFF03E
:1015220078147C097D017BFF7A1679AD7E007F01FC
:10153200120C31900913E0FDD3941F4007A3E0443D
:101542001FF08006900914E04DF07B017A097914AE
:051552007D0102158679
:10165700781C7C097D017BFF7A1679AE7E007F01BD
:0E166700120C317B017A09791C7D0102158677
:10167500781D7C097D017BFF7A1679AF7E007F019D
:0E168500120C317B017A09791D7D0102158658
:1014DB0078B77C087D017BFF7A1679B07E007F019F
:1014EB00120C31E49008B8F09008B8E0FFC39408F0
:1014FB00501FE4FD121190E4FC7B017A0879B77D53
:10150B00011213430CECB466F09008B8E004F080C1
:01151B00D7F8
:01151C0022AC
:0710E6009008BEEFF0A90520
:1010ED00D3940740037407F0E9D394654002796502
:1010FD00C3EB9420EA94004009D3EB9481EA940069
:10110D0040047A007B2EEB24E0FFEA34FFFE7C00E6
:10111D007D06120C9D9008C9EEF0A3EFF09008BE6D
:10112D00E0FFAE01AD061211909008C2E070129072
:10113D0008C9E0FEA3E02401F974003EFA7B0180AA
:10114D0035E4FFEFFD9008CAE02DFD9008C9E034AD
:10115D0000FC74012DF58274003CF583E0F4FE74FF
:10116D00C32FF582E43408F583EEF00FEFB406D308
:0B117D007B017A0879C37D0612134342
:011188002244
:07099600A9059008D6EFF05F
:10099D00C3946640037465F0E9C394404002793F07
:1009AD00C3EB9420EA94004009D3EB9481EA9400C0
:1009BD0040047A007B2EEB24E0FFEA34FFFE7C003E
:1009CD007D06120C9DAD07AC06E9131313541F9051
:1009DD0008DCF09008DAE06003020AB8A3F0900892
:1009ED00DCE075F066A4FF9008D6E07A002FFFEAF0
:1009FD0035F0FE9008DBE0FB2FFFEA3EFE74602F22
:100A0D00F58274023EF583E0FFEB2DFBEA3CFA74B0
:100A1D00012BF58274003AF583E0FEE95407FBEEF5
:100A2D00A803088002C313D8FC4FFF9008DBE02415
:100A3D00DDF582E43408F583EFF09008DCE075F025
:100A4D0066A4FF9008D6E07A002FFFEA35F0FE90FD
:100A5D0008DBE0FB2FFFEA3EFE74C62FF582740221
:100A6D003EF583E0FFEB2DFBEA3CFA74012BF5829A
:100A7D0074003AF583E0FEE95407FBC374089BFB51
:100A8D00EEA803088002C333D8FC4FFF9008DBE0CB
:100A9D0024E3F582E43408F583EFF09008DBE004FD
:100AAD00F0E0640660030209EB8078E49008DBF067
:100ABD009008DBE0FFC394065069EF2DFFE43CFE88
:100ACD0074012FF58274003EF583E0F4FBE95407C1
:100ADD00FAEBA802088002C313D8FCFB9008DBE0F8
:100AED0024DDF582E43408F583EBF074012FF582F3
:100AFD0074003EF583E0F4FFE95407FEC374089ECD
:100B0D00FEEFA806088002C333D8FCFF9008DBE097
:100B1D0024E3F582E43408F583EFF09008DBE0047C
:100B2D00F0808D9008DCE0FF9008D6E0FD1211906A
:100B3D007B017A0879DD7D061213439008DCE00411
:100B4D00FF9008D6E0FD1211907B017A0879E37DC4
:040B5D000602134336
:100F82009008B8EDF0A3EBF0A3EAF0A3E9F0900823
:030F9200B7EFF0C6
:100F9500E49008BDF0EFD3940740069008B77407B6
:100FA500F09008B8E0D3946540037465F09008B9F3
:100FB500E0FBA3E0FAA3E0F99008BDE0F5827583B4
:100FC50000120C70FF6071640A604CEF640D605F85
:100FD5009008B7E0FFA3E0FD9008BDE0F5827583BA
:100FE50000120C70FB3395E0FA9008BCE09008C243
:100FF500F01210E69008B8E02406F0E0C3946640CD
:101005002EE4F09008B7E094075005E004F0801F47
:10101500E49008B7F080189008B7E0C3940750052E
:10102500E004F08005E49008B7F0E49008B8F0908B
:0810350008BDE004F0020FB257
:01103D002290
:1012A600900906EFF0A3EDF0A3EBF0A3EAF0A3E9B3
:0112B600F047
:1012B700E490090CF0900908E0FBA3E0FAA3E0F939
:1012C70090090CE0F582758300120C70FE604E9059
:1012D7000906E0FFA3E0FDEEFB3395E0FA90090B6A
:1012E700E09008DAF0120996900906E02406F0E08B
:1012F700C394664020E4F0A3E02408FFE433FEC370
:10130700EF9440EE648094805006E02408F0800556
:0D131700E4900907F090090CE004F08098C4
:0113240022A6
:05141A00900915EFF040
:10141F0078167C097D017BFF7A1679B17E007F01FA
:10142F00120C31E4FC900915E0D3940740037407C4
:10143F00F0900915E0FFE4FD121190E4FC7B017AB6
:10144F000979167D01121343900915E075F066A412
:10145F002CF582E435F0F583E5822460F582E5838F
:0B146F003402F583E4F00CECB466D20C
:01147A00224F
:100EC5009008FAFFE0FE9008F6E0C39EFD9008F852
:020ED500E0FB40
:050ED700900917EFF087
:100EDC00D3946540037465F0EDD3943F40027D3F9D
:100EEC00ED131313541F900918F0ED5407FF748081
:100EFC00A807088002C313D8FCFFEB9009177021D8
:100F0C00E0FEA3E075F066A42EF582E435F0F583DF
:100F1C00E5822460F582E5833402F583E04FF080AE
:100F2C0024E0FEA3E075F066A42EF582E435F0F51E
:100F3C0083E5822460F582E5833402F583E0FEEFDD
:100F4C00F4FFEE5FF0900918E0FF900917E0FD1236
:100F5C001190900918E075F066A4FF900917E07CD9
:100F6C00002FFFEC35F0FE74602FF974023EFA7B13
:060F7C00017D0102134398
:0A0DDB009008B8EDF09008B7EFF0B3
:100DE500E4FEEFD3946540037465F09008B8E0D352
:100DF500946540037465F0EBD3943F40027B3F90CC
:100E050008B8E0FF9008B7E0FDD39F4007AE05EFB7
:100E1500F0A3EEF0EB131313541F9008BBF0EB5443
:100E250007FF7480A807088002C313D8FCFE90084A
:100E3500B7E0FF9008B8E0FDEFD39D504C9008BA9D
:100E4500E0701FA3E075F066A42FF582E435F0F598
:100E550083E5822460F582E5833402F583E04EF074
:100E650080249008BBE075F066A42FF582E435F088
:100E7500F583E5822460F582E5833402F583E0FDA0
:100E8500EEF4FCED5CF00F80AA9008BBE0FF900843
:100E9500B7E0FD1211909008BBE075F066A4FF90D5
:100EA50008B7E07C002FFFEC35F0FE74602FF97475
:100EB500023EFA7B01E0FFA3E0C39F04FD0213435A
:05059D00900900EBF0E5
:1005A200E4FC900902F0EFD3943F40027F3FEDD389
:1005B200943F40027D3F900900E0D394654003746C
:1005C20065F0EFD39D4006AC07AF05AD04EF131302
:1005D20013541FFE900903F0ED131313541FFBA3D2
:1005E200F0ED5407FDC374089D900902F0E014F089
:1005F200E0FD74FFA805088002C333D8FC9009020D
:10060200F0EE6B6021EFD394004017EF5407FFE444
:100612007EFFA807088005CEC313CE13D8F9F4FCD9
:1006220080327CFF802EE4FC900903E075F008A480
:10063200FEC3EF9E900905F0E0FFE47EFFA80708E5
:100642008005CEC313CE13D8F9FF900905F09009A7
:1006520002E06FF0900901E09009007023E0FF9042
:100662000903E075F066A42FF582E435F0F583E521
:10067200822460F582E5833402F583E04CF0802623
:10068200E0FF900903E075F066A42FF582E435F0EF
:10069200F583E5822460F582E5833402F583E0FF89
:1006A200ECF4FEEF5EF09009031211899009031237
:1006B2001325900903E004900905F0900904E0FF76
:1006C200A3E0FEC39F505B900901E09009007020F7
:1006D200E0FF75F066EEA42FF582E435F0F583E5D0
:1006E200822460F582E5833402F58374FFF0801D75
:1006F200E0FF75F066EEA42FF582E435F0F583E5B0
:10070200822460F582E5833402F583E4F0900905E2
:10071200121189900905121325900905E004F002CF
:1007220006BD900901E0900900702DE0FF900904D8
:10073200E075F066A42FF582E435F0F583E58224B6
:1007420060F582E5833402F583C083C082E0FF90C6
:100752000902E0FEEF4E802CE0FF900904E075F004
:1007620066A42FF582E435F0F583E5822460F582F4
:10077200E5833402F583C083C082E0FF900902E082
:10078200F4FEEF5ED082D083F090090412118990BA
:100792000904E075F066A4FF900900E07C002FFFD9
:1007A200EC35F0FE74602FF974023EFA7B017D0194
:0307B200021343EC
:0F07B5009008E9EFF09008EBEBF09008EAEDF018
:1007C400D3943F4003743FF09008ECE0D3943F404F
:1007D40003743FF09008E9E0D3946540037465F036
:1007E4009008EBE0D3946540037465F09008EBE067
:1007F400FF9008E9E0FBB50711A3E0FF9008ECE0E7
:10080400FDA3E0900901F002059D9008ECE0FF9043
:1008140008EAE0FBB507159008E9E0FF9008EBE073
:10082400FD9008EDE09008BAF0020DDB9008EBE0D3
:10083400FF9008E9E0FED39F9008F3400574FFF0B1
:1008440080037401F09008ECE0FD9008EAE0D39D89
:100854009008F4400574FFF080037401F09008EEF2
:10086400EEF09008EAE0FE9008EFF0C3ED9EFEC3C0
:1008740094005006EEF404FE800C9008EAE0FE902A
:1008840008ECE0C39EFE9008F0EEF09008E9E0FE6C
:10089400C3EF9EFFC394005006EFF404FF800C9056
:1008A40008E9E0FF9008EBE0C39FFF9008F1EFF048
:1008B4009008F0E0FEC36480F8EF648098406BEE2B
:1008C40025E0FFA3E0FEC3EF9EA3F09008EEE0FF57
:1008D4009008EBE06F70030209959008EFE0FD903B
:1008E40008EDE0FB120ED79008F2E0C36480948018
:1008F400500C9008F0E025E0FF9008F2801C90086E
:10090400F1E0FF9008F0E0C39F25E0FF9008F2E0DB
:100914002FF09008F4E0FF9008EFE02FF09008F338
:10092400E0FF9008EEE02FF080A19008F1E025E0D0
:10093400FF9008F0E0FEC3EF9E9008F2F09008EFFD
:10094400E0FD9008ECE06D60489008EEE0FF900850
:10095400EDE0FB120ED79008F2E0C364809480505F
:100964000A9008F1E025E0FFA380169008F0E0FF6C
:10097400A3E0C39F25E0FFA3E02FF0A3E0FF9008CE
:10098400EEE02FF09008F4E0FF9008EFE02FF08005
:01099400ACB6
:01099500223F
:080CC5009008F5EFF0A3EDF03B
:100CCD00E49008FBF0EB25E0F404A3F0C374019B62
:100CDD00A3F0E49008F9F0AE03A3EEF0ED80609080
:100CED0008FAE0FF9008F9E0FEC3EF6480F8EE64C7
:100CFD0080984003020DDA9008FDE0C36480948073
:100D0D0040139008FAE014F09008FCE02402F0E0A3
:100D1D00FFA3E02FF09008F9E004F09008FBE02429
:100D2D0002F0E004FF9008FDE02FF09008F9E0FFDD
:100D3D009008F5E02FFF9008FAE0FE9008F6E02EFF
:100D4D00120ED19008F9E0FF9008F5E02F120EC5B4
:100D5D009008F9E0FF9008F5E0C39FFF9008FAE0D6
:100D6D00FE9008F6E02E120ED19008F9E0FF9008E3
:100D7D00F5E0C39F120EC59008FAE0FF9008F5E06C
:100D8D002FFF9008F9E0FE9008F6E02E120ED1909C
:100D9D0008FAE0FF9008F5E02F9008F9120EC890C0
:100DAD0008FAE0FF9008F5E0C39FFF9008F9E0FE18
:100DBD009008F6E02E120ED19008FAE0FF9008F59B
:0D0DCD00E0C39FFF9008F9120EC9020CEC64
:010DDA0022F6
:1013A2009008BAEDF09008B7EBF0A3EAF0A3E9F0E9
:1013B200120C579008BEF0900001120C7013131318
:1013C200541F9008BDF0E49008BCF09008BDE0FF07
:1013D2009008BCE0FEC39F503E9008BAE02EFFA3E7
:1013E200E0FD1211909008B7E0FBA3E0FAA3E0241D
:1013F20002F9E43AFA9008BEE0FF9008BCE08FF0F0
:10140200A429F9EA35F0FA9008BEE0FD12134390E0
:0714120008BCE004F080B407
:0114190022B0
:0B147B0090090DEFF0A3EDF0A3EBF0E3
:1014860078127C097D017BFF7A1679B27E007F0196
:10149600120C31E4900911F090090DE0FF9009114A
:1014A600E0FEC39F502E90090FE02EFFA3E0FD1231
:1014B6001190E4FC90090EE0FFECC39F500E7B01F7
:1014C6007A0979127D011213430C80E8900911E024
:0414D60004F080C4DA
:0114DA0022EF
:0300000002121ACF
:0C121A00787FE4F6D8FD758107021261B0
:100B6100E709F608DFFA8046E709F208DFFA803E76
:100B710088828C83E709F0A3DFFA8032E309F60863
:100B8100DFFA8078E309F208DFFA807088828C83CB
:100B9100E309F0A3DFFA806489828A83E0A3F6087F
:100BA100DFFA805889828A83E0A3F208DFFA804C59
:100BB10080D280FA80C680D4806980F28033801030
:100BC10080A680EA809A80A880DA80E280CA803399
:100BD10089828A83ECFAE493A3C8C582C8CCC58311
:100BE100CCF0A3C8C582C8CCC583CCDFE9DEE780E1
:100BF1000D89828A83E493A3F608DFF9ECFAA9F060
:100C0100EDFB2289828A83ECFAE0A3C8C582C8CCB5
:100C1100C583CCF0A3C8C582C8CCC583CCDFEADECE
:100C2100E880DB89828A83E493A3F208DFF980CC30
:100C310088F0EF60010E4E60C388F0ED2402B40429
:100C41000050B9F582EB2402B4040050AF232345D0
:060C51008223900BB17339
:100C5700BB010689828A83E0225002E722BBFE029B
:090C6700E32289828A83E49322CE
:100C7000BB010CE58229F582E5833AF583E0225039
:100C800006E92582F8E622BBFE06E92582F8E22283
:0D0C9000E58229F582E5833AF583E493229D
:100C9D00EF8DF0A4A8F0CF8CF0A428CE8DF0A42E6B
:020CAD00FE2225
:100CAF00A3F8E0C5F025F0F0E582158270021583F8
:060CBF00E0C838F0E82255
:1012260002103EE493A3F8E493A34003F68001F290
:1012360008DFF48029E493A3F85407240CC8C333C9
:10124600C4540F4420C8834004F456800146F6DF98
:10125600E4800B0102040810204080900003E47E25
:10126600019360BCA3FF543F30E509541FFEE4938D
:10127600A360010ECF54C025E060A840B8E493A354
:10128600FAE493A3F8E493A3C8C582C8CAC583CA7F
:10129600F0A3C8C582C8CAC583CADFE9DEE780BE37
:01059C00005E
:00000001FF
