:100000000C9463000C948B000C948B000C948B006C
:100010000C948B000C948B000C948B000C948B0034
:100020000C948B000C948B000C948B000C948B0024
:100030000C948B000C948B000C948B000C948B0014
:100040000C94EE020C948B000C948B000C948B009F
:100050000C948B000C948B000C948B000C948B00F4
:100060000C948B000C948B000000000024002700EF
:100070002A000000000023002600290000000000E4
:10008000250028002B0004040404040404040202D4
:100090000202020203030303030301020408102007
:1000A0004080010204081020010204081020000012
:1000B0000008000201000003040700000000000027
:1000C0000000C604290511241FBECFEFD8E0DEBF13
:1000D000CDBF11E0A0E0B1E0E0E7FEE002C0059096
:1000E0000D92AE31B107D9F721E0AEE1B1E001C028
:1000F0001D92A034B207E1F710E0C2E6D0E004C0E0
:100100002197FE010E94F805C136D107C9F70E9468
:1001100038030C942B070C9400008F929F92AF929F
:10012000BF92CF92DF92EF92FF92209129013091FE
:100130002A018217930708F052C04B01AA24BB245E
:10014000E82DC52ED62EE72EFF24FC2D342F20912E
:100150002E01222361F0829E40011124E92DC29ECE
:1001600060011124FD2D429FD00111243B2FF090FE
:100170003401E0903101A0912F01B0913001FE10C7
:1001800008C0AC01440F551F840F951F8A0F9B1F99
:1001900014C0880F991F880F991F8A0F9B1F472F24
:1001A000552766277727DC01AF0DB11D222321F0EB
:1001B000429FA0011124452F4C9320913101DC0175
:1001C000A20FB11DEC9320913201DC01A20FB11DF1
:1001D000FC9320913301FC01E20FF11D3083FF906D
:1001E000EF90DF90CF90BF90AF909F908F90089549
:1001F000833081F028F4813099F08230A1F00895A5
:100200008730A9F08830B9F08430D1F48091800033
:100210008F7D03C0809180008F7780938000089548
:1002200084B58F7702C084B58F7D84BD0895809199
:10023000B0008F7703C08091B0008F7D8093B000B5
:100240000895CF93DF93282F30E0F901E255FF4F57
:100250008491F901E656FF4FD491F901EA57FF4F17
:10026000C491CC2399F081110E94F800EC2FF0E0AA
:10027000EE0FFF1FE458FF4FA591B4918FB7F8948C
:100280009C91ED2FE095E923EC938FBFDF91CF9107
:100290000895CF93DF93E0EBF0E08491ECE9F0E098
:1002A000D491E8E8F0E0C491CC2391F081110E9450
:1002B000F800EC2FF0E0EE0FFF1FEE58FF4FA59176
:1002C000B491EC91ED2381E090E021F480E002C054
:1002D00080E090E0DF91CF910895CF93DF9390E09D
:1002E000FC01E656FF4F2491FC01EA57FF4F849131
:1002F000882361F190E0880F991FFC01E859FF4FB6
:10030000C591D491FC01E458FF4FA591B4916111BE
:1003100009C09FB7F8948881209582238883EC9147
:100320002E230BC0623061F49FB7F8943881822F7E
:10033000809583238883EC912E2B2C939FBF06C03E
:100340008FB7F894E8812E2B28838FBFDF91CF9150
:1003500008953FB7F8948091230190912401A091D2
:100360002501B091260126B5A89B05C02F3F19F0A5
:100370000196A11DB11D3FBFBA2FA92F982F882725
:10038000820F911DA11DB11DBC01CD0142E0660F80
:10039000771F881F991F4A95D1F708950F931F93D0
:1003A000CF93DF93CDB7DEB729970FB6F894DEBFB2
:1003B0000FBECDBF80912F0190913001892B09F4A0
:1003C000A2C00E94A901009135011091360120912F
:1003D000370130913801DC01CB01801B910BA20B5E
:1003E000B30B8C329140A105B10558F3F89480917C
:1003F0002B0190912C019A838983E0912F01F09138
:100400003001DF0111968081898790912701E09169
:100410003901F0913A0180913B01992309F42EC0F2
:100420009081982B98879081809589238F838F81E5
:100430008C8388E08B8358856F8149853B812C8133
:1004400089819A81508347FD252F3A952083262F55
:1004500039F0441F00C000006083000000C0F2CFEC
:1004600038E04D9160830000019761F7F0933A0105
:10047000E093390149873B832C8338C09081982BC6
:1004800098879081809589238F838F818E8388E0E0
:100490008D8358856F8149853D812E8189819A811F
:1004A000508347FD252F00C000C0208300C000C03E
:1004B00000C000C000C060830000262F3A9541F0C4
:1004C000441F000000C000C000C000C000C0E8CF52
:1004D00038E04D9100C0608300C0019709F7F093A8
:1004E0003A01E093390149873D832E839A838983BA
:1004F00078940E94A901609335017093360180932E
:1005000037019093380129960FB6F894DEBF0FBEDD
:10051000CDBFDF91CF911F910F9108958F929F9240
:10052000AF92BF92CF92DF92EF92FF926B017C016C
:100530000E94A9014B015C01C114D104E104F10442
:10054000F1F00E94A901DC01CB0188199909AA09DF
:10055000BB09883E9340A105B10570F321E0C21AA2
:10056000D108E108F10888EE880E83E0981EA11CEE
:10057000B11CC114D104E104F10419F7DDCFFF90DF
:10058000EF90DF90CF90BF90AF909F908F900895A5
:10059000CF92DF92EF92FF92CF93DF936B017C01BA
:1005A000C0E0D0E08091290190912A01C817D907B5
:1005B00038F4B701A601CE010E948D002196F2CF3A
:1005C0000E94CE016AE070E080E090E0DF91CF9180
:1005D000FF90EF90DF90CF900C948E021F920F92BD
:1005E0000FB60F9211242F933F938F939F93AF9346
:1005F000BF9380911F0190912001A0912101B091A2
:10060000220130911E0123E0230F2D3720F40196A3
:10061000A11DB11D05C026E8230F0296A11DB11D25
:1006200020931E0180931F0190932001A09321012C
:10063000B09322018091230190912401A091250182
:10064000B09126010196A11DB11D809323019093C5
:100650002401A0932501B0932601BF91AF919F91F2
:100660008F913F912F910F900FBE0F901F90189573
:10067000CF93DF9300D000D0CDB7DEB7789484B5A8
:10068000826084BD84B5816084BD85B5826085BD8E
:1006900085B5816085BD80916E00816080936E001C
:1006A000109281008091810082608093810080910E
:1006B00081008160809381008091800081608093BF
:1006C00080008091B10084608093B1008091B0007F
:1006D00081608093B00080917A00846080937A007A
:1006E00080917A00826080937A0080917A008160A4
:1006F00080937A0080917A00806880937A001092CB
:10070000C10062E082E00E946D0180912D0187FDB1
:1007100007C061E00E946D0180912D010E942101BE
:1007200081E0809328010E94CE01C12CD12C76015A
:10073000D394B0E02B2EB0E03B2E0E944901892BD0
:1007400011F081E01AC180910201882309F414C1DB
:100750006AE070E080E090E00E948E020E94490111
:10076000892B79F7809100019091010101968630E3
:1007700091052CF4909301018093000104C0109224
:10078000010110920001809100018230D1F050F4FB
:10079000882391F0813009F0EFC060E07FEF80E0C6
:1007A00090E013C0843009F453C090F0853009F014
:1007B000E3C000E010E08EC060E070E08FEF90E0FA
:1007C00004C06FEF70E080E090E00E94C802D4C0E7
:1007D000A12CB12C812C912C00E010E080912901FA
:1007E00090912A018816990618F50E5F1F4F0F3F4A
:1007F000110519F014F00FEF10E0A801012E000C04
:10080000660B770BA114B10421F4BA0155274427D4
:1008100008C021E0A216B10421F4762F652F542FD1
:100820004427C4010E948D003FEF831A930AD6CF5C
:100830000E94CE0164EF71E080E090E00E948E02A1
:100840004FEFA41AB40A53E0A516B10419F694C0E8
:1008500000E010E08091290190912A010817190702
:1008600080F5C8018770992720E830E002C03595EF
:1008700027958A95E2F7F80143E0F695E7954A95C2
:10088000E1F7E35FFE4F9081892F90E0822393236D
:10089000892B69F00034110528F440E050E06FEF37
:1008A00070E009C040E05FEF60E070E004C04FEF2F
:1008B0005FEF6FEF70E0C8010E948D000F5F1F4F68
:1008C000C9CF0E94CE016AE070E080E090E00E9413
:1008D0008E0252C08091290190912A0108171907B0
:1008E00008F04AC00E9487054B015C010E94870501
:1008F0002B013C010E948705A70196010E949505E6
:10090000DC01CB019927AA27BB27AC01332722277B
:1009100029833A834B835C83C301B201A70196010B
:100920000E9495052B013C01552466247724762CE2
:10093000652C542C442489819A81AB81BC81482A3E
:10094000592A6A2A7B2AC501B401A70196010E948F
:100950009505D301C201862BAC01BD01C8010E94DF
:100960008D000E94CE016AE070E080E090E00E947D
:100970008E020F5F1F4FAECF80E0809302012114E3
:10098000310409F4DACE0E940000D7CECF93DF9372
:100990001092280110922E0110923501109236010A
:1009A000109237011092380181E0809334018093D6
:1009B00031011092320192E090933301809327012C
:1009C000C0E8D1E0D0932C01C0932B0180E891E0E6
:1009D0000E94FE059093300180932F01009769F0EB
:1009E000FC019E01119221503040E1F780E890E037
:1009F00090932A018093290108C010922C01109233
:100A00002B0110922A011092290186E080932D017A
:100A100080912801882339F061E086E00E946D0111
:100A200086E00E942101ECE8F0E0E491F0E0EE0FB6
:100A3000FF1FE458FF4F8591949190933A01809362
:100A40003901E0EAF0E0E491E0933B01DF91CF91DE
:100A5000089580912F0190913001009711F00E942C
:100A6000930680912D0187FD03C060E00C946D0119
:100A700008958F929F92AF92BF92CF92DF92EF92A2
:100A8000FF92CF93DF93EC01688179818A819B810A
:100A9000611571058105910521F464E279ED8BE51D
:100AA00097E02DE133EF41E050E00E9495054901C8
:100AB0005A019B01AC01A7EAB1E40E94B4056B01A5
:100AC0007C01ACEEB4EFA50194010E94C205DC01EB
:100AD000CB018C0D9D1DAE1DBF1DB7FF03C001973F
:100AE000A109B04888839983AA83BB83BC01CD0147
:100AF0009F77DF91CF91FF90EF90DF90CF90BF90E5
:100B0000AF909F908F9008950E943905089583E0DB
:100B100091E00E94390508956093030170930401E8
:100B200080930501909306010895052E97FB1EF40E
:100B300000940E94AC0557FD07D00E94C70507FC32
:100B400003D04EF40C94AC0550954095309521950A
:100B50003F4F4F4F5F4F08959095809570956195E9
:100B60007F4F8F4F9F4F08950E94E905A59F900DDD
:100B7000B49F900DA49F800D911D11240895B7FF7F
:100B80000C94B4050E94B405821B930B0895A1E256
:100B90001A2EAA1BBB1BFD010DC0AA1FBB1FEE1FF7
:100BA000FF1FA217B307E407F50720F0A21BB30B42
:100BB000E40BF50B661F771F881F991F1A9469F7BE
:100BC00060957095809590959B01AC01BD01CF011A
:100BD0000895A29FB001B39FC001A39F700D811D16
:100BE0001124911DB29F700D811D1124911D089536
:100BF000EE0FFF1F0590F491E02D0994CF93DF9342
:100C00008230910510F482E090E0E0913E01F09195
:100C10003F0120E030E0C0E0D0E0309711F14081AA
:100C2000518148175907C0F04817590761F482816C
:100C30009381209719F09B838A832BC090933F0167
:100C400080933E0126C02115310519F04217530744
:100C500018F49A01BE01DF01EF010280F381E02D5B
:100C6000DCCF2115310509F1281B390B2430310562
:100C700090F412968D919C9113976115710521F056
:100C8000FB019383828304C090933F0180933E01D4
:100C9000FD01329644C0FD01E20FF31F8193919351
:100CA000225031092D933C933AC020913C01309160
:100CB0003D01232B41F42091090130910A01309329
:100CC0003D0120933C01209107013091080121153D
:100CD000310541F42DB73EB740910B0150910C0105
:100CE000241B350BE0913C01F0913D01E217F30725
:100CF000A0F42E1B3F0B2817390778F0AC014E5F8C
:100D00005F4F2417350748F04E0F5F1F50933D018A
:100D100040933C018193919302C0E0E0F0E0CF0169
:100D2000DF91CF9108950F931F93CF93DF93009797
:100D300009F48CC0FC0132971382128200913E01AB
:100D400010913F010115110581F420813181820F3D
:100D5000931F20913C0130913D012817390779F507
:100D6000F0933D01E0933C0171C0D80140E050E0B8
:100D7000AE17BF0750F412962D913C911397AD0119
:100D80002115310509F1D901F3CF9D01DA01338332
:100D9000228360817181860F971F8217930769F400
:100DA000EC0128813981260F371F2E5F3F4F318399
:100DB00020838A819B8193838283452B29F4F0933E
:100DC0003F01E0933E0142C01396FC93EE931297CD
:100DD000ED01499159919E01240F351FE217F30748
:100DE00071F480819181840F951F029611969C93D6
:100DF0008E938281938113969C938E931297E0E059
:100E0000F0E0D80112968D919C911397009719F0FC
:100E1000F8018C01F6CF8D919C9198012E5F3F4F88
:100E2000820F931F20913C0130913D012817390713
:100E300069F4309729F410923F0110923E0102C0EC
:100E40001382128210933D0100933C01DF91CF91F8
:100E50001F910F91089510E0C2E6D0E004C0FE019A
:100E60000E94F8052196C336D107C9F7F894FFCF41
:100E7000FFFF010100000000004001800018381849
:0E0E800018181818183C62060C1830607E0016
:00000001FF
