:100000000C945C000C9479000C9479000C947900A9
:100010000C9479000C9479000C9479000C9479007C
:100020000C9479000C9479000C9479000C9479006C
:100030000C9479000C9479000C9479000C9479005C
:100040000C943B010C9479000C9479000C94790089
:100050000C9479000C9479000C9479000C9479003C
:100060000C9479000C947900000000080002010053
:100070000003040700000000000000000000000072
:10008000250028002B0000000000240027002A0083
:10009000040404040404040402020202020203032E
:1000A0000303030301020408102040800102040836
:1000B000102001020408102011241FBECFEFD8E049
:1000C000DEBFCDBF11E0A0E0B1E0EAEEF4E002C097
:1000D00005900D92A231B107D9F721E0A2E1B1E07C
:1000E00001C01D92AB31B207E1F70E9485010C946B
:1000F00073020C94000090E0FC01EC55FF4F24913A
:10010000FC01E057FF4F8491882399F090E0880F1D
:10011000991FFC01EA57FF4FA591B491FC01E458E7
:10012000FF4F859194918FB7F894EC91E22BEC936B
:100130008FBF089590E0FC01E859FF4F3491FC0116
:10014000EC55FF4F2491FC01E057FF4FE491EE2363
:1001500009F43BC0332339F1333091F038F43130B6
:10016000A9F0323001F584B58F7D12C0373091F09F
:100170003830A1F03430B9F4809180008F7D03C015
:10018000809180008F77809380000DC084B58F7739
:1001900084BD09C08091B0008F7703C08091B0000A
:1001A0008F7D8093B000F0E0EE0FFF1FE458FF4F0B
:1001B000A591B4918FB7F894EC91611103C020958B
:1001C0002E2301C02E2B2C938FBF08953FB7F89498
:1001D0008091170190911801A0911901B0911A0115
:1001E00026B5A89B05C02F3F19F00196A11DB11D92
:1001F0003FBFBA2FA92F982F8827820F911DA11DCD
:10020000B11DBC01CD0142E0660F771F881F991F09
:100210004A95D1F70895EF92FF920F931F93CF93D2
:10022000DF93082FC8E0D0E010E883E0E82EF12C3F
:1002300061E0912F902309F460E089E00E949A0028
:1002400060E088E00E949A00F7013197F1F761E0E1
:1002500088E00E949A00F7013197F1F716952197EF
:1002600039F760E088E0DF91CF911F910F91FF9007
:10027000EF900C949A001F920F920FB60F921124D8
:100280002F933F938F939F93AF93BF9380911301CD
:1002900090911401A0911501B091160130911201B5
:1002A00023E0230F2D3720F40196A11DB11D05C0B9
:1002B00026E8230F0296A11DB11D20931201809301
:1002C000130190931401A0931501B093160180912E
:1002D000170190911801A0911901B0911A0101968E
:1002E000A11DB11D8093170190931801A0931901CE
:1002F000B0931A01BF91AF919F918F913F912F9130
:100300000F900FBE0F901F901895789484B582605F
:1003100084BD84B5816084BD85B5826085BD85B5A9
:10032000816085BD80916E00816080936E00109227
:1003300081008091810082608093810080918100A2
:100340008160809381008091800081608093800033
:100350008091B10084608093B1008091B000816091
:100360008093B00080917A00846080937A008091BD
:100370007A00826080937A0080917A008160809315
:100380007A0080917A00806880937A001092C10090
:1003900088E00E947B0089E00E947B008AE00E9446
:1003A0007B000AE010E098EEE92E93E0F92E24E6B7
:1003B000C22ED12C30E0232E30E0332ECAE0D1E023
:1003C00069907990C301B8010E944B022B01FC0196
:1003D000E050FF4F80810E940B01C201B8010E94D2
:1003E0004B02FC01E050FF4F80818F770E940B0190
:1003F000C301B7010E944B023B01B6010E944B02B0
:10040000FB01E050FF4F80810E940B01F301E0509F
:10041000FF4F80810E940B0160E08AE00E949A00F9
:1004200061E08AE00E949A0060E08AE00E949A00FF
:100430000E94E6004B015C0188EE482E83E0582EB6
:10044000612C712C0E94E600DC01CB01881999090E
:10045000AA09BB09883E9340A105B10558F021E0E7
:10046000421A51086108710888EE880E83E0981ED0
:10047000A11CB11C411451046104710419F781E0FD
:10048000C231D80709F09CCF2114310409F496CF6A
:100490000E94000093CF97FB072E16F4009407D01C
:1004A00077FD09D00E945F0207FC05D03EF49095CD
:1004B00081959F4F0895709561957F4F0895AA1B70
:1004C000BB1B51E107C0AA1FBB1FA617B70710F03F
:1004D000A61BB70B881F991F5A95A9F78095909571
:0A04E000BC01CD010895F894FFCF90
:1004EA00C0F9A4B0999282F880907A0BD204E505FB
:0204FA00B20D41
:00000001FF
