:100000000C943E010C9466010C9466010C946601FC
:100010000C9466010C9466010C9466010C946601C4
:100020000C9466010C9466010C9466010C946601B4
:100030000C9466010C9466010C9466010C946601A4
:100040000C94D9020C9466010C9449030C9423037C
:100050000C9466010C9466010C9466010C94660184
:100060000C9466010C946601000000002500280035
:100070002B0000000000240027002A00AAAAAAAA38
:10008000AAAAAAAAAAAAAAAAAAAAAAAAAAAAAAAAD0
:10009000CC0A1DFFF3F2F5F4F7F6F9F8FBFAFDFCD4
:1000A000FFFED1D0D3D2D5D4D7D6D9D8DBDADDDC98
:1000B000DFDEE1E0E3E2E5E4E7E6E9E8EBEAEDECE8
:1000C000F0EEA2A1A4A3A6A5A8A7AAA9ACABAEAD29
:1000D00080AF82818483868588878A898C8B8E8D88
:1000E000BBBBBBBBBBBBBBBBBBBBBBBBBBBBBBBB60
:1000F000BBBBBBBB61616161616161616161616188
:1001000061616161F0F1F2F3F4F5F6F7F8F9FAFBE9
:10011000FCFDFEFFD0D1D2D3D4D5D6D7D8D9DADBE7
:10012000DCDDDEDFE0E1E2E3E4E5E6E7E8E9EAEB97
:10013000ECEDEEEFA0A1A2A3A4A5A6A7A8A9AAAB47
:10014000ACADAEAF808182838485868788898A8BB7
:100150008C8D8E8F909192939495969798999A9B67
:100160009C9D9E9F707172737475767778797A7B97
:100170007C7D7E7F202122232425262728292A2BC7
:100180002C2D2E2FC0C1C2C3C4C5C6C7C8C9CACB77
:10019000CCCDCECF505152535455565758595A5B27
:1001A0005C5D5E5FE0E1E2E3E4E5E6E7E8E9EAEB17
:1001B000ECEDEEEFA0A1A2A3A4A5A6A7A8A9AAABC7
:1001C000ACADAEAF808182838485868788898A8B37
:1001D0008C8D8E8F909192939495969798999A9BE7
:1001E0009C9D9E9F707172737475767778797A7B17
:1001F0007C7D7E7FA0A1A2A3A4A5A6A7A8A9AAAB47
:10020000ACADAEAF808182838485868788898A8BF6
:100210008C8D8E8F909192939495969798999A9BA6
:100220009C9D9E9F626262626262626262626262C0
:1002300062626262000000002300260029000404BC
:10024000040404040404020202020202030303037E
:10025000030301020408102040800102040810205A
:100260000102040810200000000800020100000341
:1002700004070000000000000000C30411241FBE9A
:10028000CFEFD8E0DEBFCDBF11E0A0E0B1E0EAEAF9
:10029000FFE002C005900D92A03BB107D9F722E024
:1002A000A0EBB1E001C01D92A336B207E1F711E067
:1002B000CEE3D1E004C02197FE010E94F004CD33CB
:1002C000D107C9F70E947B030C94D3070C9400005C
:1002D000EEE6F2E08491EAE5F2E09491E6E4F2E001
:1002E000E491EE23B9F1882339F1833091F038F4A9
:1002F0008130A9F0823001F584B58F7D12C087303E
:1003000091F08830A1F08430B9F4809180008F7D25
:1003100003C0809180008F77809380000DC084B5EA
:100320008F7784BD09C08091B0008F7703C0809122
:10033000B0008F7D8093B000F0E0EE0FFF1FEC5C0B
:10034000FD4FA591B491EC91E92381E090E021F477
:1003500080E0089580E090E00895CF92DF92EF92E0
:10036000FF920F931F93CF93DF936C017A018B0160
:10037000C0E0D0E0CE15DF0589F0D8016D918D0188
:10038000D601ED91FC910190F081E02DC601099517
:10039000892B11F47E0102C02196ECCFC701DF91B9
:1003A000CF911F910F91FF90EF90DF90CF90089524
:1003B000089580E090E00895FC01538D448D252F31
:1003C00030E0842F90E0821B930B541710F0CF96EF
:1003D000089501970895FC01918D828D981761F021
:1003E000828DDF01A80FB11D5D968C91928D9F5F6C
:1003F0009F73928F90E008958FEF9FEF0895FC0117
:10040000918D828D981731F0828DE80FF11D858DC9
:1004100090E008958FEF9FEF0895FC01918D228D5C
:10042000892F90E0805C9F4F821B91098F739927E1
:10043000089586EC91E00E940D0221E0892B09F4D9
:1004400020E0822F0895FC01848DDF01A80FB11DEB
:10045000A35ABF4F2C91848D90E001968F739927FA
:10046000848FA689B7892C93A089B1898C918064E7
:100470008C93938D848D981306C00288F389E02DA8
:1004800080818F7D80830895EF92FF920F931F9359
:10049000CF93DF93EC0181E0888F9B8D8C8D981337
:1004A00005C0E889F989808185FD24C0F62E0B8D71
:1004B00010E00F5F1F4F0F731127E02E8C8DE81295
:1004C0000CC00FB607FCFACFE889F989808185FF57
:1004D000F5CFCE010E942302F1CF8B8DFE01E80FF4
:1004E000F11DE35AFF4FF0820B8FEA89FB8980816F
:1004F000806207C0EE89FF896083E889F98980817D
:100500008064808381E090E0DF91CF911F910F9113
:10051000FF90EF900895CF93DF93EC01888D8823AF
:10052000C9F0EA89FB89808185FD05C0A889B98960
:100530008C9186FD0FC00FB607FCF5CF808185FF3B
:10054000F2CFA889B9898C9185FFEDCFCE010E94A9
:100550002302E7CFDF91CF91089580E090E0892BCF
:1005600029F00E94190281110C940000089500974F
:1005700069F0FC0101900020E9F73197AF01481BB9
:10058000590BBC0186EC91E00C94AD0180E090E049
:100590000895CF93DF930E94B702EC0182E191E0CE
:1005A0000E94B7028C0F9D1FDF91CF9108950E948A
:1005B000F6041F920F920FB60F9211242F933F93C0
:1005C0008F939F93AF93BF938091C2019091C3018A
:1005D000A091C401B091C5013091C10123E0230F66
:1005E0002D3720F40196A11DB11D05C026E8230F6B
:1005F0000296A11DB11D2093C1018093C201909369
:10060000C301A093C401B093C5018091BD01909135
:10061000BE01A091BF01B091C0010196A11DB11D05
:100620008093BD019093BE01A093BF01B093C00120
:10063000BF91AF919F918F913F912F910F900FBEDE
:100640000F901F9018951F920F920FB60F921124C2
:100650002F933F934F935F936F937F938F939F93CA
:10066000AF93BF93EF93FF9386EC91E00E94230238
:10067000FF91EF91BF91AF919F918F917F916F917A
:100680005F914F913F912F910F900FBE0F901F9050
:1006900018951F920F920FB60F9211242F938F93DC
:1006A0009F93EF93FF93E091D601F091D701808162
:1006B000E091DC01F091DD0182FD12C0908180911A
:1006C000DF018F5F8F732091E001821751F0E0917D
:1006D000DF01F0E0EA53FE4F958F8093DF0101C008
:1006E0008081FF91EF919F918F912F910F900FBE7D
:1006F0000F901F901895789484B5826084BD84B55E
:10070000816084BD85B5826085BD85B5816085BD0C
:1007100080916E00816080936E00109281008091C4
:10072000810082608093810080918100816080934C
:100730008100809180008160809380008091B10071
:1007400084608093B1008091B00081608093B0009C
:1007500080917A00846080937A0080917A00826030
:1007600080937A0080917A00816080937A008091F2
:100770007A00806880937A001092C100EAE5F2E086
:100780002491E6E4F2E084918823C1F090E0880FA0
:10079000991FFC01EE58FF4FC591D491FC01E85917
:1007A000FF4FA591B4919FB7F8943881822F80951F
:1007B00083238883EC91E22BEC939FBFE091D601D9
:1007C000F091D70182E08083E091D201F091D301D2
:1007D0001082E091D401F091D5018FEC80831092CA
:1007E000DE01E091DA01F091DB0186E08083E091A7
:1007F000D801F091D901808180618083E091D80196
:10080000F091D901808188608083E091D801F091D6
:10081000D901808180688083E091D801F091D9016D
:1008200080818F7D808304EA11E0C2EBD1E09AEAF7
:10083000E92E91E0F92E85E191E00E94C9020E9423
:100840006801892BE1F70E946801892B09F098C0A3
:1008500089E491E00E94C90286E791E00E94C90202
:100860001092BC011092BB011092BA011092B90112
:10087000E091BB01F091BC01E03481E0F807A0F504
:10088000EC50FF4FE491E093B8011F92EF931F9358
:100890000F93DF93CF930E94FB0482EB91E00E94C1
:1008A000B7028091B9019091BA0101969093BA0173
:1008B0008093B9010F900F900F900F900F900F90B1
:1008C000449741F41092BA011092B90182E191E08B
:1008D0000E94B7028091BB019091BC010196909358
:1008E000BC018093BB01C4CF86E791E00E94C9029E
:1008F0001092BC011092BB011092BA011092B90182
:10090000E091BB01F091BC01EC33F105C8F5EE0FAD
:10091000FF1FE458FF4F859194918093B00190930D
:10092000B1019F938F93FF92EF92DF93CF930E9439
:10093000FB0482EB91E00E94B7028091B901909193
:10094000BA0101969093BA018093B9010F900F906C
:100950000F900F900F900F900A9741F41092BA01E8
:100960001092B90182E191E00E94B7028091BB012F
:100970009091BC0101969093BC018093BB01C0CFC4
:100980000E94AD0258CFE6ECF1E01382128288EEAD
:1009900093E0A0E0B0E084839583A683B78384E0EE
:1009A00091E09183808385EC90E09587848784EC47
:1009B00090E09787868780EC90E0918B808B81EC2C
:1009C00090E0938B828B82EC90E0958B848B86EC0D
:1009D00090E0978B868B118E128E138E148E089555
:1009E000EE0FFF1F0590F491E02D099481E090E057
:1009F000F8940C94D307AEE0B0E0E1E0F5E00C949D
:100A0000AA070D891E8986E08C831A8309838FEFDC
:100A10009FE79E838D83AE01475E5F4F6F89788D20
:100A2000CE0101960E941E052F813885F801E20F44
:100A3000F31F10822E96E4E00C94C607ACE0B0E001
:100A4000E4E2F5E00C949C077C016B018A01FC0157
:100A500017821682838181FFBDC1CE0101964C01B0
:100A6000F7019381F60193FD859193FF81916F01C9
:100A7000882309F4ABC1853239F493FD859193FF46
:100A800081916F01853229F4B70190E00E94060739
:100A9000E7CF512C312C20E02032A0F48B3269F0CA
:100AA00030F4803259F0833269F420612CC08D32E9
:100AB00039F0803339F4216026C02260246023C0DD
:100AC000286021C027FD27C030ED380F3A3078F478
:100AD00026FF06C0FAE05F9E300D1124532E13C08E
:100AE0008AE0389E300D1124332E20620CC08E32E5
:100AF00021F426FD6BC1206406C08C3611F42068F9
:100B000002C0883641F4F60193FD859193FF8191EF
:100B10006F018111C1CF982F9F7D9554933028F498
:100B20000C5F1F4FFFE3F9830DC0833631F083372D
:100B300071F0833509F05BC022C0F80180818983A0
:100B40000E5F1F4F44244394512C540115C03801AB
:100B5000F2E06F0E711CF801A080B18026FF03C087
:100B6000652D70E002C06FEF7FEFC5012C870E94FA
:100B7000FB062C0183012C852F77222E17C038010C
:100B8000F2E06F0E711CF801A080B18026FF03C057
:100B9000652D70E002C06FEF7FEFC5012C870E94CA
:100BA000F0062C012C852068222E830123FC1BC01B
:100BB000832D90E048165906B0F4B70180E290E02A
:100BC0000E9406073A94F4CFF50127FC859127FE91
:100BD00081915F01B70190E00E94060731103A94BD
:100BE000F1E04F1A51084114510471F7E5C0843601
:100BF00011F0893639F5F80127FF07C0608171814E
:100C0000828193810C5F1F4F08C060817181072E24
:100C1000000C880B990B0E5F1F4F2F76722E97FFDB
:100C200009C090958095709561957F4F8F4F9F4F2C
:100C30002068722E2AE030E0A4010E943E07A82E10
:100C4000A81844C0853729F42F7EB22E2AE030E060
:100C500025C0F22FF97FBF2E8F36C1F018F48835EA
:100C600079F0B4C0803719F0883721F0AFC02F2F4A
:100C70002061B22EB4FE0DC08B2D8460B82E09C049
:100C800024FF0AC09F2F9660B92E06C028E030E0EE
:100C900005C020E130E002C020E132E0F801B7FEFB
:100CA00007C060817181828193810C5F1F4F06C0F4
:100CB0006081718180E090E00E5F1F4FA4010E946F
:100CC0003E07A82EA818FB2DFF777F2E76FE0BC0BF
:100CD000372D3E7FA51450F474FE0AC072FC08C084
:100CE000372D3E7E05C0BA2C372D03C0BA2C01C06B
:100CF000B52C34FF0DC0FE01EA0DF11D808180335B
:100D000011F4397E09C032FF06C0B394B39404C015
:100D1000832F867809F0B39433FD13C030FF06C0EB
:100D20005A2CB31418F4530C5B18B32CB31468F496
:100D3000B70180E290E03C870E940607B3943C85AF
:100D4000F5CFB31410F43B1801C0312C34FF12C09E
:100D5000B70180E390E03C870E9406073C8532FFA4
:100D600017C031FD03C088E790E002C088E590E03D
:100D7000B7010CC0832F867859F031FF02C08BE297
:100D800001C080E237FD8DE2B70190E00E940607C6
:100D9000A51438F4B70180E390E00E9406075A9446
:100DA000F7CFAA94F401EA0DF11D8081B70190E01C
:100DB0000E940607A110F5CF332009F451CEB701E8
:100DC00080E290E00E9406073A94F6CFF701868110
:100DD000978102C08FEF9FEF2C96E2E10C94B80749
:100DE000FC010590615070400110D8F780959095F6
:100DF0008E0F9F1F0895FC016150704001900110FB
:100E0000D8F7809590958E0F9F1F08950F931F938D
:100E1000CF93DF93FB01238121FD03C08FEF9FEF71
:100E200028C022FF16C04681578124813581421790
:100E3000530744F4A081B1819D012F5F3F4F31835F
:100E400020838C93268137812F5F3F4F3783268302
:100E500010C0EB01092F182F0084F185E02D0995B2
:100E6000892BE1F68E819F8101969F838E83812F4E
:100E7000902FDF91CF911F910F910895FA01AA272A
:100E8000283051F1203181F1E8946F936E7F6E5FCD
:100E90007F4F8F4F9F4FAF4FB1E03ED0B4E03CD07B
:100EA000670F781F891F9A1FA11D680F791F8A1F5E
:100EB000911DA11D6A0F711D811D911DA11D20D0C5
:100EC00009F468943F912AE0269F11243019305D7F
:100ED0003193DEF6CF010895462F4770405D419370
:100EE000B3E00FD0C9F7F6CF462F4F70405D4A33BD
:100EF00018F0495D31FD4052419302D0A9F7EACF85
:100F0000B4E0A6959795879577956795BA95C9F7B3
:100F100000976105710508959B01AC010A2E0694A6
:100F20005795479537952795BA95C9F7620F731F5F
:100F3000841F951FA01D08952F923F924F925F929C
:100F40006F927F928F929F92AF92BF92CF92DF92D9
:100F5000EF92FF920F931F93CF93DF93CDB7DEB73E
:100F6000CA1BDB0B0FB6F894DEBF0FBECDBF0994D2
:100F70002A88398848885F846E847D848C849B8429
:100F8000AA84B984C884DF80EE80FD800C811B8137
:100F9000AA81B981CE0FD11D0FB6F894DEBF0FBE66
:0A0FA000CDBFED010895F894FFCFD6
:100FAA00000000004402AD01DC018B020D02EB01DE
:100FBA00FF010D0A000A5072657373204B312074C9
:100FCA006F205265616420446174612046726F6DBE
:100FDA002050726F6772616D20466C617368204D94
:100FEA00656D6F72792E2E2E0041726475696E6F6F
:100FFA002050726F6772616D20466C617368204D74
:10100A00656D6F727920446174612044656D6F2E3D
:10101A002E2E2E2E2E002D2D2D2D2D2D2D2D2D2D1E
:10102A002D2D2D2D2D2D2D2D2D2D2D2D2D2D2D2DE6
:10103A002D2D2D2D2D2D2D2D2D2D2D2D2D2D2D2DD6
:10104A002D2D2D002530325820002530345820000F
:00000001FF
