:1000000013C1000092C3000065C3000038C30000A4
:100010000BC30000DEC20000B1C2000084C20000B9
:1000200057C2000020C100001EC100001CC100001A
:100030001AC1000018C1000016C1000014C1000060
:1000400012C1000010C100000EC100000CC1000070
:100050000AC1000008C1000006C10000EFC1000095
:1000600002C1000000C10000FEC00000FCC0000092
:10007000FAC00000F8C00000F6C00000F4C00000A4
:10008000F2C00000F0C00000EEC00000ECC00000B4
:10009000EAC00000E8C00000E6C00000E4C00000C4
:1000A000E2C00000E0C00000DEC00000DCC00000D4
:1000B000DAC00000D8C00000D6C00000D4C00000E4
:1000C000D2C00000D0C00000CEC00000CCC00000F4
:1000D000CAC00000C8C00000C6C00000C4C0000004
:1000E000C2C0000058015B014A014E015401920157
:1000F0005F01630169016D01710177017B017F017E
:100100009201850189018D0100002200250028004F
:100110002B002E003100340002010000050108010F
:100120000B0100002100240027002A002D003000D0
:10013000330001010000040107010A010000200052
:100140002300260029002C002F00320000010000AF
:10015000030106010901050505050705080808084A
:10016000020202020A0A080804040404010101014F
:10017000010101010303030303030303040707074A
:100180000C0C0C0C0C0C0C0C0202020206060606EF
:10019000060606060B0B0B0B0B0B0B0B01021020BC
:1001A00020080810204010204080020102010804AD
:1001B0000201010204081020408080402010080441
:1001C000020180040201804020100804020108049A
:1001D00002010102040810204080010204081020DE
:1001E000408000000A0B02090C0D0E0807030401F1
:1001F00000000000000000000000000000000000FF
:1002000000000000000000000000000000001211CB
:1002100010000000000000000000000000000000CE
:10022000000000000000000011241FBECFEFD1E24B
:10023000DEBFCDBF00E00CBF12E0A0E0B2E0ECE317
:10024000FAE000E00BBF02C007900D92A633B107A1
:10025000D9F722E0A6E3B2E001C01D92A434B207B0
:10026000E1F78ED2E9C3CCCE809128029091290289
:1002700001969093290280932802089590E0FC0152
:100280003197E231F10508F04DC08827EE58FF4F55
:100290008F4FB6C3809180008F7703C0809180001C
:1002A0008F7D80938000089580918000877FF9CFB3
:1002B00084B58F7702C084B58F7D84BD0895809109
:1002C000B0008F7703C08091B0008F7D8093B00025
:1002D0000895809190008F7707C0809190008F7D66
:1002E00003C080919000877F809390000895809153
:1002F000A0008F7707C08091A0008F7D03C0809100
:10030000A000877F8093A0000895809120018F77BF
:1003100007C0809120018F7D03C080912001877FDD
:10032000809320010895CF93DF9390E0FC01E45681
:10033000FE4F2491FC01EA5AFE4F8491882361F11B
:1003400090E0880F991FFC01EE5DFE4FC591D4919E
:10035000FC01E85FFE4FA591B491611109C09FB700
:10036000F8948881209582238883EC912E230BC0FA
:10037000623061F49FB7F8943881822F809583238F
:100380008883EC912E2B2C939FBF06C08FB7F894D7
:10039000E8812E2B28838FBFDF91CF910895089598
:1003A000DF92EF92FF920F931F93CF93DF938C0115
:1003B00010923602C62FD0E0D090360287E08D151D
:1003C00008F434C0F801ED0DF11D208130E0F90191
:1003D000EE51FE4F8491F901E456FE4FE490F9018D
:1003E000EA5AFE4FF490FF20D9F0811147DFEF2D3C
:1003F000F0E0EE0FFF1FE85FFE4FA591B4918FB7BD
:10040000F8949E0102C035952795DA94E2F7EC91B5
:1004100020FD03C0E094EE2201C0EE2AEC928FBFD3
:10042000809136028F5F80933602C6CFDF91CF91E5
:100430001F910F91FF90EF90DF9008951F920F9200
:100440000FB60F9211242F933F938F939F93AF93E7
:10045000BF938091400290914102A0914202B091DD
:10046000430230913F0223E0230F2D3720F4019601
:10047000A11DB11D05C026E8230F0296A11DB11DC7
:1004800020933F028093400290934102A093420246
:10049000B093430280913B0290913C02A0913D02B7
:1004A000B0913E020196A11DB11D80933B02909335
:1004B0003C02A0933D02B0933E02BF91AF919F9149
:1004C0008F913F912F910F900FBE0F901F90189515
:1004D0001F920F920FB60F9211240BB60F922F930B
:1004E0003F934F935F936F937F938F939F93AF93BC
:1004F000BF93EF93FF93E0910E02F0910F021995D5
:10050000FF91EF91BF91AF919F918F917F916F91EB
:100510005F914F913F912F910F900BBE0F900FBEA7
:100520000F901F9018951F920F920FB60F921124E3
:100530000BB60F922F933F934F935F936F937F93DD
:100540008F939F93AF93BF93EF93FF93E0910C0230
:10055000F0910D021995FF91EF91BF91AF919F918D
:100560008F917F916F915F914F913F912F910F905C
:100570000BBE0F900FBE0F901F9018951F920F92F9
:100580000FB60F9211240BB60F922F933F934F93F8
:100590005F936F937F938F939F93AF93BF93EF93EB
:1005A000FF93E0910202F09103021995FF91EF9100
:1005B000BF91AF919F918F917F916F915F914F917B
:1005C0003F912F910F900BBE0F900FBE0F901F9079
:1005D00018951F920F920FB60F9211240BB60F921F
:1005E0002F933F934F935F936F937F938F939F933B
:1005F000AF93BF93EF93FF93E0910002F09101025C
:100600001995FF91EF91BF91AF919F918F917F913C
:100610006F915F914F913F912F910F900BBE0F9073
:100620000FBE0F901F9018951F920F920FB60F924A
:1006300011240BB60F922F933F934F935F936F93B9
:100640007F938F939F93AF93BF93EF93FF93E0912B
:100650000A02F0910B021995FF91EF91BF91AF91B2
:100660009F918F917F916F915F914F913F912F91CA
:100670000F900BBE0F900FBE0F901F9018951F92FA
:100680000F920FB60F9211240BB60F922F933F9338
:100690004F935F936F937F938F939F93AF93BF938A
:1006A000EF93FF93E0910802F09109021995FF91F1
:1006B000EF91BF91AF919F918F917F916F915F91DA
:1006C0004F913F912F910F900BBE0F900FBE0F9047
:1006D0001F9018951F920F920FB60F9211240BB610
:1006E0000F922F933F934F935F936F937F938F93CB
:1006F0009F93AF93BF93EF93FF93E0910602F09126
:1007000007021995FF91EF91BF91AF919F918F9142
:100710007F916F915F914F913F912F910F900BBE01
:100720000F900FBE0F901F9018951F920F920FB64B
:100730000F9211240BB60F922F933F934F935F9319
:100740006F937F938F939F93AF93BF93EF93FF9399
:10075000E0910402F09105021995FF91EF91BF918C
:10076000AF919F918F917F916F915F914F913F9149
:100770002F910F900BBE0F900FBE0F901F901895EA
:10078000789484B5826084BD84B5816084BD85B56C
:10079000826085BD85B5816085BD80916E00816078
:1007A00080936E001092810080918100826080931E
:1007B0008100809181008160809381008091800020
:1007C0008160809380008091B10084608093B1004B
:1007D0008091B00081608093B00080919100826030
:1007E000809391008091910081608093910080912D
:1007F00090008160809390008091A100826080933E
:10080000A1008091A10081608093A1008091A0004F
:1008100081608093A00080912101826080932101FA
:10082000809121018160809321018091200181606C
:100830008093200180917A00846080937A00809177
:100840007A00826080937A0080917A008160809340
:100850007A0080917A00806880937A001092C100BB
:1008600010923702C0913702C83058F4EC2FF0E0F4
:10087000E05EFD4F61E0808156DDCF5FC0933702BF
:10088000F1CF10923702C0913702C83058F4EC2FE4
:10089000F0E0E85EFD4F61E0808145DDCF5FC09311
:1008A0003702F1CF10923702C0913702C83058F4A6
:1008B000EC2FF0E0E05FFD4F61E0808134DDCF5F41
:1008C000C0933702F1CF62E082E02DDD60E083E08B
:1008D0002ADD84E391E090930102809300028091ED
:1008E0006A008C7F826080936A00EC9A95EEE92E14
:1008F00091E0F92E2FE9C22E21E0D22E39E5A32E68
:1009000031E0B32EC4E6D0E00AE010E04AE0742EF5
:1009100050E0852E50E0952EF7018491F601549019
:10092000F5016490662071F08111A8DCE62DF0E0FD
:10093000EE0FFF1FE45CFE4FA591B4918C915822FD
:1009400009F046C08091280290912902BE0145D04D
:10095000262F609338028091280290912902BE01CF
:100960003CD0B8013AD0362F6093390280912802EA
:1009700090912902B80131D02C0180933A022111C3
:1009800006C070923802311102C070923902E091B3
:100990003802F0E0E65DFD4F608180E292E000DD2C
:1009A000E0913902F0E0E65DFD4F608188E192E080
:1009B000F7DCF201FF27E65DFD4F608180E192E008
:1009C000EFDC8114910409F4A7CF0E940000A4CFAA
:1009D0001092290210922802B5CF97FB072E16F429
:1009E000009406D077FD08D013D007FC05D03EF464
:1009F000909581959F4F0895709561957F4F0895CB
:100A0000EE0FFF1F881F8BBF0790F691E02D199402
:100A1000AA1BBB1B51E107C0AA1FBB1FA617B70724
:100A200010F0A61BB70B881F991F5A95A9F7809540
:0C0A30009095BC01CD010895F894FFCF13
:100A3C00CF01CF01CF01CF01CF01CF01CF01CF012A
:100A4C00262728292A2B2C2D1E1F20212223242542
:100A5C00161718191A1B1C1DD300C0F9A4B09992B3
:060A6C0082F88090FF00FB
:00000001FF
